{
  "contractName": "ZeNFT",
  "abi": [
    {
      "inputs": [],
      "stateMutability": "nonpayable",
      "type": "constructor"
    },
    {
      "anonymous": false,
      "inputs": [
        {
          "indexed": true,
          "internalType": "address",
          "name": "account",
          "type": "address"
        },
        {
          "indexed": true,
          "internalType": "address",
          "name": "operator",
          "type": "address"
        },
        {
          "indexed": false,
          "internalType": "bool",
          "name": "approved",
          "type": "bool"
        }
      ],
      "name": "ApprovalForAll",
      "type": "event"
    },
    {
      "anonymous": false,
      "inputs": [
        {
          "indexed": false,
          "internalType": "address",
          "name": "account",
          "type": "address"
        }
      ],
      "name": "Paused",
      "type": "event"
    },
    {
      "anonymous": false,
      "inputs": [
        {
          "indexed": true,
          "internalType": "bytes32",
          "name": "role",
          "type": "bytes32"
        },
        {
          "indexed": true,
          "internalType": "bytes32",
          "name": "previousAdminRole",
          "type": "bytes32"
        },
        {
          "indexed": true,
          "internalType": "bytes32",
          "name": "newAdminRole",
          "type": "bytes32"
        }
      ],
      "name": "RoleAdminChanged",
      "type": "event"
    },
    {
      "anonymous": false,
      "inputs": [
        {
          "indexed": true,
          "internalType": "bytes32",
          "name": "role",
          "type": "bytes32"
        },
        {
          "indexed": true,
          "internalType": "address",
          "name": "account",
          "type": "address"
        },
        {
          "indexed": true,
          "internalType": "address",
          "name": "sender",
          "type": "address"
        }
      ],
      "name": "RoleGranted",
      "type": "event"
    },
    {
      "anonymous": false,
      "inputs": [
        {
          "indexed": true,
          "internalType": "bytes32",
          "name": "role",
          "type": "bytes32"
        },
        {
          "indexed": true,
          "internalType": "address",
          "name": "account",
          "type": "address"
        },
        {
          "indexed": true,
          "internalType": "address",
          "name": "sender",
          "type": "address"
        }
      ],
      "name": "RoleRevoked",
      "type": "event"
    },
    {
      "anonymous": false,
      "inputs": [
        {
          "indexed": true,
          "internalType": "address",
          "name": "operator",
          "type": "address"
        },
        {
          "indexed": true,
          "internalType": "address",
          "name": "from",
          "type": "address"
        },
        {
          "indexed": true,
          "internalType": "address",
          "name": "to",
          "type": "address"
        },
        {
          "indexed": false,
          "internalType": "uint256[]",
          "name": "ids",
          "type": "uint256[]"
        },
        {
          "indexed": false,
          "internalType": "uint256[]",
          "name": "values",
          "type": "uint256[]"
        }
      ],
      "name": "TransferBatch",
      "type": "event"
    },
    {
      "anonymous": false,
      "inputs": [
        {
          "indexed": true,
          "internalType": "address",
          "name": "operator",
          "type": "address"
        },
        {
          "indexed": true,
          "internalType": "address",
          "name": "from",
          "type": "address"
        },
        {
          "indexed": true,
          "internalType": "address",
          "name": "to",
          "type": "address"
        },
        {
          "indexed": false,
          "internalType": "uint256",
          "name": "id",
          "type": "uint256"
        },
        {
          "indexed": false,
          "internalType": "uint256",
          "name": "value",
          "type": "uint256"
        }
      ],
      "name": "TransferSingle",
      "type": "event"
    },
    {
      "anonymous": false,
      "inputs": [
        {
          "indexed": false,
          "internalType": "string",
          "name": "value",
          "type": "string"
        },
        {
          "indexed": true,
          "internalType": "uint256",
          "name": "id",
          "type": "uint256"
        }
      ],
      "name": "URI",
      "type": "event"
    },
    {
      "anonymous": false,
      "inputs": [
        {
          "indexed": false,
          "internalType": "address",
          "name": "account",
          "type": "address"
        }
      ],
      "name": "Unpaused",
      "type": "event"
    },
    {
      "inputs": [],
      "name": "DEFAULT_ADMIN_ROLE",
      "outputs": [
        {
          "internalType": "bytes32",
          "name": "",
          "type": "bytes32"
        }
      ],
      "stateMutability": "view",
      "type": "function"
    },
    {
      "inputs": [],
      "name": "MINTER_ROLE",
      "outputs": [
        {
          "internalType": "bytes32",
          "name": "",
          "type": "bytes32"
        }
      ],
      "stateMutability": "view",
      "type": "function"
    },
    {
      "inputs": [],
      "name": "PAUSER_ROLE",
      "outputs": [
        {
          "internalType": "bytes32",
          "name": "",
          "type": "bytes32"
        }
      ],
      "stateMutability": "view",
      "type": "function"
    },
    {
      "inputs": [],
      "name": "URI_SETTER_ROLE",
      "outputs": [
        {
          "internalType": "bytes32",
          "name": "",
          "type": "bytes32"
        }
      ],
      "stateMutability": "view",
      "type": "function"
    },
    {
      "inputs": [
        {
          "internalType": "address",
          "name": "account",
          "type": "address"
        },
        {
          "internalType": "uint256",
          "name": "id",
          "type": "uint256"
        }
      ],
      "name": "balanceOf",
      "outputs": [
        {
          "internalType": "uint256",
          "name": "",
          "type": "uint256"
        }
      ],
      "stateMutability": "view",
      "type": "function"
    },
    {
      "inputs": [
        {
          "internalType": "address[]",
          "name": "accounts",
          "type": "address[]"
        },
        {
          "internalType": "uint256[]",
          "name": "ids",
          "type": "uint256[]"
        }
      ],
      "name": "balanceOfBatch",
      "outputs": [
        {
          "internalType": "uint256[]",
          "name": "",
          "type": "uint256[]"
        }
      ],
      "stateMutability": "view",
      "type": "function"
    },
    {
      "inputs": [
        {
          "internalType": "address",
          "name": "account",
          "type": "address"
        },
        {
          "internalType": "uint256",
          "name": "id",
          "type": "uint256"
        },
        {
          "internalType": "uint256",
          "name": "value",
          "type": "uint256"
        }
      ],
      "name": "burn",
      "outputs": [],
      "stateMutability": "nonpayable",
      "type": "function"
    },
    {
      "inputs": [
        {
          "internalType": "address",
          "name": "account",
          "type": "address"
        },
        {
          "internalType": "uint256[]",
          "name": "ids",
          "type": "uint256[]"
        },
        {
          "internalType": "uint256[]",
          "name": "values",
          "type": "uint256[]"
        }
      ],
      "name": "burnBatch",
      "outputs": [],
      "stateMutability": "nonpayable",
      "type": "function"
    },
    {
      "inputs": [
        {
          "internalType": "bytes32",
          "name": "role",
          "type": "bytes32"
        }
      ],
      "name": "getRoleAdmin",
      "outputs": [
        {
          "internalType": "bytes32",
          "name": "",
          "type": "bytes32"
        }
      ],
      "stateMutability": "view",
      "type": "function"
    },
    {
      "inputs": [
        {
          "internalType": "bytes32",
          "name": "role",
          "type": "bytes32"
        },
        {
          "internalType": "address",
          "name": "account",
          "type": "address"
        }
      ],
      "name": "grantRole",
      "outputs": [],
      "stateMutability": "nonpayable",
      "type": "function"
    },
    {
      "inputs": [
        {
          "internalType": "bytes32",
          "name": "role",
          "type": "bytes32"
        },
        {
          "internalType": "address",
          "name": "account",
          "type": "address"
        }
      ],
      "name": "hasRole",
      "outputs": [
        {
          "internalType": "bool",
          "name": "",
          "type": "bool"
        }
      ],
      "stateMutability": "view",
      "type": "function"
    },
    {
      "inputs": [
        {
          "internalType": "address",
          "name": "account",
          "type": "address"
        },
        {
          "internalType": "address",
          "name": "operator",
          "type": "address"
        }
      ],
      "name": "isApprovedForAll",
      "outputs": [
        {
          "internalType": "bool",
          "name": "",
          "type": "bool"
        }
      ],
      "stateMutability": "view",
      "type": "function"
    },
    {
      "inputs": [],
      "name": "paused",
      "outputs": [
        {
          "internalType": "bool",
          "name": "",
          "type": "bool"
        }
      ],
      "stateMutability": "view",
      "type": "function"
    },
    {
      "inputs": [
        {
          "internalType": "bytes32",
          "name": "role",
          "type": "bytes32"
        },
        {
          "internalType": "address",
          "name": "account",
          "type": "address"
        }
      ],
      "name": "renounceRole",
      "outputs": [],
      "stateMutability": "nonpayable",
      "type": "function"
    },
    {
      "inputs": [
        {
          "internalType": "bytes32",
          "name": "role",
          "type": "bytes32"
        },
        {
          "internalType": "address",
          "name": "account",
          "type": "address"
        }
      ],
      "name": "revokeRole",
      "outputs": [],
      "stateMutability": "nonpayable",
      "type": "function"
    },
    {
      "inputs": [
        {
          "internalType": "address",
          "name": "from",
          "type": "address"
        },
        {
          "internalType": "address",
          "name": "to",
          "type": "address"
        },
        {
          "internalType": "uint256[]",
          "name": "ids",
          "type": "uint256[]"
        },
        {
          "internalType": "uint256[]",
          "name": "amounts",
          "type": "uint256[]"
        },
        {
          "internalType": "bytes",
          "name": "data",
          "type": "bytes"
        }
      ],
      "name": "safeBatchTransferFrom",
      "outputs": [],
      "stateMutability": "nonpayable",
      "type": "function"
    },
    {
      "inputs": [
        {
          "internalType": "address",
          "name": "from",
          "type": "address"
        },
        {
          "internalType": "address",
          "name": "to",
          "type": "address"
        },
        {
          "internalType": "uint256",
          "name": "id",
          "type": "uint256"
        },
        {
          "internalType": "uint256",
          "name": "amount",
          "type": "uint256"
        },
        {
          "internalType": "bytes",
          "name": "data",
          "type": "bytes"
        }
      ],
      "name": "safeTransferFrom",
      "outputs": [],
      "stateMutability": "nonpayable",
      "type": "function"
    },
    {
      "inputs": [
        {
          "internalType": "address",
          "name": "operator",
          "type": "address"
        },
        {
          "internalType": "bool",
          "name": "approved",
          "type": "bool"
        }
      ],
      "name": "setApprovalForAll",
      "outputs": [],
      "stateMutability": "nonpayable",
      "type": "function"
    },
    {
      "inputs": [
        {
          "internalType": "uint256",
          "name": "",
          "type": "uint256"
        }
      ],
      "name": "uri",
      "outputs": [
        {
          "internalType": "string",
          "name": "",
          "type": "string"
        }
      ],
      "stateMutability": "view",
      "type": "function"
    },
    {
      "inputs": [],
      "name": "initialize",
      "outputs": [],
      "stateMutability": "nonpayable",
      "type": "function"
    },
    {
      "inputs": [
        {
          "internalType": "string",
          "name": "newuri",
          "type": "string"
        }
      ],
      "name": "setURI",
      "outputs": [],
      "stateMutability": "nonpayable",
      "type": "function"
    },
    {
      "inputs": [],
      "name": "pause",
      "outputs": [],
      "stateMutability": "nonpayable",
      "type": "function"
    },
    {
      "inputs": [],
      "name": "unpause",
      "outputs": [],
      "stateMutability": "nonpayable",
      "type": "function"
    },
    {
      "inputs": [
        {
          "internalType": "address",
          "name": "account",
          "type": "address"
        },
        {
          "internalType": "uint256",
          "name": "id",
          "type": "uint256"
        },
        {
          "internalType": "uint256",
          "name": "amount",
          "type": "uint256"
        },
        {
          "internalType": "bytes",
          "name": "data",
          "type": "bytes"
        }
      ],
      "name": "mint",
      "outputs": [],
      "stateMutability": "nonpayable",
      "type": "function"
    },
    {
      "inputs": [
        {
          "internalType": "address",
          "name": "to",
          "type": "address"
        },
        {
          "internalType": "uint256[]",
          "name": "ids",
          "type": "uint256[]"
        },
        {
          "internalType": "uint256[]",
          "name": "amounts",
          "type": "uint256[]"
        },
        {
          "internalType": "bytes",
          "name": "data",
          "type": "bytes"
        }
      ],
      "name": "mintBatch",
      "outputs": [],
      "stateMutability": "nonpayable",
      "type": "function"
    },
    {
      "inputs": [
        {
          "internalType": "bytes4",
          "name": "interfaceId",
          "type": "bytes4"
        }
      ],
      "name": "supportsInterface",
      "outputs": [
        {
          "internalType": "bool",
          "name": "",
          "type": "bool"
        }
      ],
      "stateMutability": "view",
      "type": "function"
    }
  ],
  "bytecode": "0x60806040523480156200001157600080fd5b50600060019054906101000a900460ff166200003c5760008054906101000a900460ff16156200004d565b6200004c6200010960201b60201c565b5b6200008f576040517f08c379a0000000000000000000000000000000000000000000000000000000008152600401620000869062000161565b60405180910390fd5b60008060019054906101000a900460ff161590508015620000e0576001600060016101000a81548160ff02191690831515021790555060016000806101000a81548160ff0219169083151502179055505b8015620001025760008060016101000a81548160ff0219169083151502179055505b50620001e3565b600062000121306200012760201b62000fdd1760201c565b15905090565b600080823b905060008111915050919050565b600062000149602e8362000183565b9150620001568262000194565b604082019050919050565b600060208201905081810360008301526200017c816200013a565b9050919050565b600082825260208201905092915050565b7f496e697469616c697a61626c653a20636f6e747261637420697320616c72656160008201527f647920696e697469616c697a6564000000000000000000000000000000000000602082015250565b614e5980620001f36000396000f3fe608060405234801561001057600080fd5b506004361061018d5760003560e01c8063731133e9116100de578063a22cb46511610097578063e63ab1e911610071578063e63ab1e914610444578063e985e9c514610462578063f242432a14610492578063f5298aca146104ae5761018d565b8063a22cb465146103ee578063d53913931461040a578063d547741f146104285761018d565b8063731133e9146103525780637f3457101461036e5780638129fc1c1461038c5780638456cb591461039657806391d14854146103a0578063a217fddf146103d05761018d565b80632eb2c2d61161014b5780633f4ba83a116101255780633f4ba83a146102de5780634e1273f4146102e85780635c975abb146103185780636b20c454146103365761018d565b80632eb2c2d61461028a5780632f2ff15d146102a657806336568abe146102c25761018d565b8062fdd58e1461019257806301ffc9a7146101c257806302fe5305146101f25780630e89341c1461020e5780631f7fdffa1461023e578063248a9ca31461025a575b600080fd5b6101ac60048036038101906101a791906137ad565b6104ca565b6040516101b991906142ab565b60405180910390f35b6101dc60048036038101906101d79190613984565b610594565b6040516101e99190613ff3565b60405180910390f35b61020c600480360381019061020791906139d6565b6105a6565b005b61022860048036038101906102239190613a17565b6105e5565b6040516102359190614029565b60405180910390f35b610258600480360381019061025391906136c6565b610679565b005b610274600480360381019061026f919061391f565b6106be565b604051610281919061400e565b60405180910390f35b6102a4600480360381019061029f91906134f9565b6106de565b005b6102c060048036038101906102bb9190613948565b61077f565b005b6102dc60048036038101906102d79190613948565b6107a8565b005b6102e661082b565b005b61030260048036038101906102fd91906138b3565b610868565b60405161030f9190613f9a565b60405180910390f35b610320610a19565b60405161032d9190613ff3565b60405180910390f35b610350600480360381019061034b9190613647565b610a30565b005b61036c60048036038101906103679190613838565b610acd565b005b610376610b12565b604051610383919061400e565b60405180910390f35b610394610b36565b005b61039e610cd5565b005b6103ba60048036038101906103b59190613948565b610d12565b6040516103c79190613ff3565b60405180910390f35b6103d8610d7d565b6040516103e5919061400e565b60405180910390f35b61040860048036038101906104039190613771565b610d84565b005b610412610d9a565b60405161041f919061400e565b60405180910390f35b610442600480360381019061043d9190613948565b610dbe565b005b61044c610de7565b604051610459919061400e565b60405180910390f35b61047c600480360381019061047791906134bd565b610e0b565b6040516104899190613ff3565b60405180910390f35b6104ac60048036038101906104a791906135b8565b610e9f565b005b6104c860048036038101906104c391906137e9565b610f40565b005b60008073ffffffffffffffffffffffffffffffffffffffff168373ffffffffffffffffffffffffffffffffffffffff16141561053b576040517f08c379a0000000000000000000000000000000000000000000000000000000008152600401610532906140cb565b60405180910390fd5b6065600083815260200190815260200160002060008473ffffffffffffffffffffffffffffffffffffffff1673ffffffffffffffffffffffffffffffffffffffff16815260200190815260200160002054905092915050565b600061059f82610ff0565b9050919050565b7f7804d923f43a17d325d77e781528e0793b2edd9890ab45fc64efd7b4b427744c6105d8816105d361106a565b611072565b6105e18261110f565b5050565b6060606780546105f4906145e4565b80601f0160208091040260200160405190810160405280929190818152602001828054610620906145e4565b801561066d5780601f106106425761010080835404028352916020019161066d565b820191906000526020600020905b81548152906001019060200180831161065057829003601f168201915b50505050509050919050565b7f9f2df0fed2c77648de5860a4cc508cd0818c85b8b8a1ab4ceeef8d981c8956a66106ab816106a661106a565b611072565b6106b785858585611129565b5050505050565b600060976000838152602001908152602001600020600101549050919050565b6106e661106a565b73ffffffffffffffffffffffffffffffffffffffff168573ffffffffffffffffffffffffffffffffffffffff16148061072c575061072b8561072661106a565b610e0b565b5b61076b576040517f08c379a00000000000000000000000000000000000000000000000000000000081526004016107629061416b565b60405180910390fd5b6107788585858585611394565b5050505050565b610788826106be565b6107998161079461106a565b611072565b6107a383836116f7565b505050565b6107b061106a565b73ffffffffffffffffffffffffffffffffffffffff168173ffffffffffffffffffffffffffffffffffffffff161461081d576040517f08c379a00000000000000000000000000000000000000000000000000000000081526004016108149061428b565b60405180910390fd5b61082782826117d8565b5050565b7f65d7a28e3265b37a6474929f336521b332c1681b933f6cb9f3376673440d862a61085d8161085861106a565b611072565b6108656118ba565b50565b606081518351146108ae576040517f08c379a00000000000000000000000000000000000000000000000000000000081526004016108a59061422b565b60405180910390fd5b6000835167ffffffffffffffff8111156108f1577f4e487b7100000000000000000000000000000000000000000000000000000000600052604160045260246000fd5b60405190808252806020026020018201604052801561091f5781602001602082028036833780820191505090505b50905060005b8451811015610a0e576109b885828151811061096a577f4e487b7100000000000000000000000000000000000000000000000000000000600052603260045260246000fd5b60200260200101518583815181106109ab577f4e487b7100000000000000000000000000000000000000000000000000000000600052603260045260246000fd5b60200260200101516104ca565b8282815181106109f1577f4e487b7100000000000000000000000000000000000000000000000000000000600052603260045260246000fd5b60200260200101818152505080610a0790614647565b9050610925565b508091505092915050565b600060c960009054906101000a900460ff16905090565b610a3861106a565b73ffffffffffffffffffffffffffffffffffffffff168373ffffffffffffffffffffffffffffffffffffffff161480610a7e5750610a7d83610a7861106a565b610e0b565b5b610abd576040517f08c379a0000000000000000000000000000000000000000000000000000000008152600401610ab49061410b565b60405180910390fd5b610ac883838361195c565b505050565b7f9f2df0fed2c77648de5860a4cc508cd0818c85b8b8a1ab4ceeef8d981c8956a6610aff81610afa61106a565b611072565b610b0b85858585611c5b565b5050505050565b7f7804d923f43a17d325d77e781528e0793b2edd9890ab45fc64efd7b4b427744c81565b600060019054906101000a900460ff16610b5e5760008054906101000a900460ff1615610b67565b610b66611df2565b5b610ba6576040517f08c379a0000000000000000000000000000000000000000000000000000000008152600401610b9d9061418b565b60405180910390fd5b60008060019054906101000a900460ff161590508015610bf6576001600060016101000a81548160ff02191690831515021790555060016000806101000a81548160ff0219169083151502179055505b610c0e60405180602001604052806000815250611e03565b610c16611e6e565b610c1e611ed7565b610c26611f38565b610c336000801b3361077f565b610c5d7f7804d923f43a17d325d77e781528e0793b2edd9890ab45fc64efd7b4b427744c3361077f565b610c877f65d7a28e3265b37a6474929f336521b332c1681b933f6cb9f3376673440d862a3361077f565b610cb17f9f2df0fed2c77648de5860a4cc508cd0818c85b8b8a1ab4ceeef8d981c8956a63361077f565b8015610cd25760008060016101000a81548160ff0219169083151502179055505b50565b7f65d7a28e3265b37a6474929f336521b332c1681b933f6cb9f3376673440d862a610d0781610d0261106a565b611072565b610d0f611fa1565b50565b60006097600084815260200190815260200160002060000160008373ffffffffffffffffffffffffffffffffffffffff1673ffffffffffffffffffffffffffffffffffffffff16815260200190815260200160002060009054906101000a900460ff16905092915050565b6000801b81565b610d96610d8f61106a565b8383612044565b5050565b7f9f2df0fed2c77648de5860a4cc508cd0818c85b8b8a1ab4ceeef8d981c8956a681565b610dc7826106be565b610dd881610dd361106a565b611072565b610de283836117d8565b505050565b7f65d7a28e3265b37a6474929f336521b332c1681b933f6cb9f3376673440d862a81565b6000606660008473ffffffffffffffffffffffffffffffffffffffff1673ffffffffffffffffffffffffffffffffffffffff16815260200190815260200160002060008373ffffffffffffffffffffffffffffffffffffffff1673ffffffffffffffffffffffffffffffffffffffff16815260200190815260200160002060009054906101000a900460ff16905092915050565b610ea761106a565b73ffffffffffffffffffffffffffffffffffffffff168573ffffffffffffffffffffffffffffffffffffffff161480610eed5750610eec85610ee761106a565b610e0b565b5b610f2c576040517f08c379a0000000000000000000000000000000000000000000000000000000008152600401610f239061410b565b60405180910390fd5b610f3985858585856121b1565b5050505050565b610f4861106a565b73ffffffffffffffffffffffffffffffffffffffff168373ffffffffffffffffffffffffffffffffffffffff161480610f8e5750610f8d83610f8861106a565b610e0b565b5b610fcd576040517f08c379a0000000000000000000000000000000000000000000000000000000008152600401610fc49061410b565b60405180910390fd5b610fd8838383612436565b505050565b600080823b905060008111915050919050565b60007f7965db0b000000000000000000000000000000000000000000000000000000007bffffffffffffffffffffffffffffffffffffffffffffffffffffffff1916827bffffffffffffffffffffffffffffffffffffffffffffffffffffffff19161480611063575061106282612655565b5b9050919050565b600033905090565b61107c8282610d12565b61110b576110a18173ffffffffffffffffffffffffffffffffffffffff166014612737565b6110af8360001c6020612737565b6040516020016110c0929190613e83565b6040516020818303038152906040526040517f08c379a00000000000000000000000000000000000000000000000000000000081526004016111029190614029565b60405180910390fd5b5050565b80606790805190602001906111259291906131a0565b5050565b600073ffffffffffffffffffffffffffffffffffffffff168473ffffffffffffffffffffffffffffffffffffffff161415611199576040517f08c379a00000000000000000000000000000000000000000000000000000000081526004016111909061426b565b60405180910390fd5b81518351146111dd576040517f08c379a00000000000000000000000000000000000000000000000000000000081526004016111d49061424b565b60405180910390fd5b60006111e761106a565b90506111f881600087878787612a31565b60005b84518110156112fe5783818151811061123d577f4e487b7100000000000000000000000000000000000000000000000000000000600052603260045260246000fd5b602002602001015160656000878481518110611282577f4e487b7100000000000000000000000000000000000000000000000000000000600052603260045260246000fd5b6020026020010151815260200190815260200160002060008873ffffffffffffffffffffffffffffffffffffffff1673ffffffffffffffffffffffffffffffffffffffff16815260200190815260200160002060008282546112e4919061444a565b9250508190555080806112f690614647565b9150506111fb565b508473ffffffffffffffffffffffffffffffffffffffff16600073ffffffffffffffffffffffffffffffffffffffff168273ffffffffffffffffffffffffffffffffffffffff167f4a39dc06d4c0dbc64b70af90fd698a233a518aa5d07e595d983b8c0526c8f7fb8787604051611376929190613fbc565b60405180910390a461138d81600087878787612a8f565b5050505050565b81518351146113d8576040517f08c379a00000000000000000000000000000000000000000000000000000000081526004016113cf9061424b565b60405180910390fd5b600073ffffffffffffffffffffffffffffffffffffffff168473ffffffffffffffffffffffffffffffffffffffff161415611448576040517f08c379a000000000000000000000000000000000000000000000000000000000815260040161143f9061414b565b60405180910390fd5b600061145261106a565b9050611462818787878787612a31565b60005b84518110156116625760008582815181106114a9577f4e487b7100000000000000000000000000000000000000000000000000000000600052603260045260246000fd5b6020026020010151905060008583815181106114ee577f4e487b7100000000000000000000000000000000000000000000000000000000600052603260045260246000fd5b6020026020010151905060006065600084815260200190815260200160002060008b73ffffffffffffffffffffffffffffffffffffffff1673ffffffffffffffffffffffffffffffffffffffff16815260200190815260200160002054905081811015611590576040517f08c379a0000000000000000000000000000000000000000000000000000000008152600401611587906141cb565b60405180910390fd5b8181036065600085815260200190815260200160002060008c73ffffffffffffffffffffffffffffffffffffffff1673ffffffffffffffffffffffffffffffffffffffff16815260200190815260200160002081905550816065600085815260200190815260200160002060008b73ffffffffffffffffffffffffffffffffffffffff1673ffffffffffffffffffffffffffffffffffffffff1681526020019081526020016000206000828254611647919061444a565b925050819055505050508061165b90614647565b9050611465565b508473ffffffffffffffffffffffffffffffffffffffff168673ffffffffffffffffffffffffffffffffffffffff168273ffffffffffffffffffffffffffffffffffffffff167f4a39dc06d4c0dbc64b70af90fd698a233a518aa5d07e595d983b8c0526c8f7fb87876040516116d9929190613fbc565b60405180910390a46116ef818787878787612a8f565b505050505050565b6117018282610d12565b6117d45760016097600084815260200190815260200160002060000160008373ffffffffffffffffffffffffffffffffffffffff1673ffffffffffffffffffffffffffffffffffffffff16815260200190815260200160002060006101000a81548160ff02191690831515021790555061177961106a565b73ffffffffffffffffffffffffffffffffffffffff168173ffffffffffffffffffffffffffffffffffffffff16837f2f8788117e7eff1d82e926ec794901d17c78024a50270940304540a733656f0d60405160405180910390a45b5050565b6117e28282610d12565b156118b65760006097600084815260200190815260200160002060000160008373ffffffffffffffffffffffffffffffffffffffff1673ffffffffffffffffffffffffffffffffffffffff16815260200190815260200160002060006101000a81548160ff02191690831515021790555061185b61106a565b73ffffffffffffffffffffffffffffffffffffffff168173ffffffffffffffffffffffffffffffffffffffff16837ff6391f5c32d9c69d2a47ea670b442974b53935d1edc7fd64eb21e047a839171b60405160405180910390a45b5050565b6118c2610a19565b611901576040517f08c379a00000000000000000000000000000000000000000000000000000000081526004016118f8906140ab565b60405180910390fd5b600060c960006101000a81548160ff0219169083151502179055507f5db9ee0a495bf2e6ff9c91a7834c1ba4fdd244a5e8aa4e537bd38aeae4b073aa61194561106a565b6040516119529190613ebd565b60405180910390a1565b600073ffffffffffffffffffffffffffffffffffffffff168373ffffffffffffffffffffffffffffffffffffffff1614156119cc576040517f08c379a00000000000000000000000000000000000000000000000000000000081526004016119c3906141ab565b60405180910390fd5b8051825114611a10576040517f08c379a0000000000000000000000000000000000000000000000000000000008152600401611a079061424b565b60405180910390fd5b6000611a1a61106a565b9050611a3a81856000868660405180602001604052806000815250612a31565b60005b8351811015611bd5576000848281518110611a81577f4e487b7100000000000000000000000000000000000000000000000000000000600052603260045260246000fd5b602002602001015190506000848381518110611ac6577f4e487b7100000000000000000000000000000000000000000000000000000000600052603260045260246000fd5b6020026020010151905060006065600084815260200190815260200160002060008973ffffffffffffffffffffffffffffffffffffffff1673ffffffffffffffffffffffffffffffffffffffff16815260200190815260200160002054905081811015611b68576040517f08c379a0000000000000000000000000000000000000000000000000000000008152600401611b5f906140eb565b60405180910390fd5b8181036065600085815260200190815260200160002060008a73ffffffffffffffffffffffffffffffffffffffff1673ffffffffffffffffffffffffffffffffffffffff168152602001908152602001600020819055505050508080611bcd90614647565b915050611a3d565b50600073ffffffffffffffffffffffffffffffffffffffff168473ffffffffffffffffffffffffffffffffffffffff168273ffffffffffffffffffffffffffffffffffffffff167f4a39dc06d4c0dbc64b70af90fd698a233a518aa5d07e595d983b8c0526c8f7fb8686604051611c4d929190613fbc565b60405180910390a450505050565b600073ffffffffffffffffffffffffffffffffffffffff168473ffffffffffffffffffffffffffffffffffffffff161415611ccb576040517f08c379a0000000000000000000000000000000000000000000000000000000008152600401611cc29061426b565b60405180910390fd5b6000611cd561106a565b9050611cf681600087611ce788612c76565b611cf088612c76565b87612a31565b826065600086815260200190815260200160002060008773ffffffffffffffffffffffffffffffffffffffff1673ffffffffffffffffffffffffffffffffffffffff1681526020019081526020016000206000828254611d56919061444a565b925050819055508473ffffffffffffffffffffffffffffffffffffffff16600073ffffffffffffffffffffffffffffffffffffffff168273ffffffffffffffffffffffffffffffffffffffff167fc3d58168c5ae7397731d063d5bbf3d657854427343f4c083240f7aacaa2d0f628787604051611dd49291906142c6565b60405180910390a4611deb81600087878787612d3c565b5050505050565b6000611dfd30610fdd565b15905090565b600060019054906101000a900460ff16611e52576040517f08c379a0000000000000000000000000000000000000000000000000000000008152600401611e49906141eb565b60405180910390fd5b611e5a612f23565b611e62612f74565b611e6b81612fc5565b50565b600060019054906101000a900460ff16611ebd576040517f08c379a0000000000000000000000000000000000000000000000000000000008152600401611eb4906141eb565b60405180910390fd5b611ec5612f23565b611ecd612f74565b611ed5613020565b565b600060019054906101000a900460ff16611f26576040517f08c379a0000000000000000000000000000000000000000000000000000000008152600401611f1d906141eb565b60405180910390fd5b611f2e612f23565b611f36613071565b565b600060019054906101000a900460ff16611f87576040517f08c379a0000000000000000000000000000000000000000000000000000000008152600401611f7e906141eb565b60405180910390fd5b611f8f612f23565b611f97612f74565b611f9f6130dd565b565b611fa9610a19565b15611fe9576040517f08c379a0000000000000000000000000000000000000000000000000000000008152600401611fe09061412b565b60405180910390fd5b600160c960006101000a81548160ff0219169083151502179055507f62e78cea01bee320cd4e420270b5ea74000d11b0c9f74754ebdbfc544b05a25861202d61106a565b60405161203a9190613ebd565b60405180910390a1565b8173ffffffffffffffffffffffffffffffffffffffff168373ffffffffffffffffffffffffffffffffffffffff1614156120b3576040517f08c379a00000000000000000000000000000000000000000000000000000000081526004016120aa9061420b565b60405180910390fd5b80606660008573ffffffffffffffffffffffffffffffffffffffff1673ffffffffffffffffffffffffffffffffffffffff16815260200190815260200160002060008473ffffffffffffffffffffffffffffffffffffffff1673ffffffffffffffffffffffffffffffffffffffff16815260200190815260200160002060006101000a81548160ff0219169083151502179055508173ffffffffffffffffffffffffffffffffffffffff168373ffffffffffffffffffffffffffffffffffffffff167f17307eab39ab6107e8899845ad3d59bd9653f200f220920489ca2b5937696c31836040516121a49190613ff3565b60405180910390a3505050565b600073ffffffffffffffffffffffffffffffffffffffff168473ffffffffffffffffffffffffffffffffffffffff161415612221576040517f08c379a00000000000000000000000000000000000000000000000000000000081526004016122189061414b565b60405180910390fd5b600061222b61106a565b905061224b81878761223c88612c76565b61224588612c76565b87612a31565b60006065600086815260200190815260200160002060008873ffffffffffffffffffffffffffffffffffffffff1673ffffffffffffffffffffffffffffffffffffffff168152602001908152602001600020549050838110156122e3576040517f08c379a00000000000000000000000000000000000000000000000000000000081526004016122da906141cb565b60405180910390fd5b8381036065600087815260200190815260200160002060008973ffffffffffffffffffffffffffffffffffffffff1673ffffffffffffffffffffffffffffffffffffffff16815260200190815260200160002081905550836065600087815260200190815260200160002060008873ffffffffffffffffffffffffffffffffffffffff1673ffffffffffffffffffffffffffffffffffffffff168152602001908152602001600020600082825461239a919061444a565b925050819055508573ffffffffffffffffffffffffffffffffffffffff168773ffffffffffffffffffffffffffffffffffffffff168373ffffffffffffffffffffffffffffffffffffffff167fc3d58168c5ae7397731d063d5bbf3d657854427343f4c083240f7aacaa2d0f6288886040516124179291906142c6565b60405180910390a461242d828888888888612d3c565b50505050505050565b600073ffffffffffffffffffffffffffffffffffffffff168373ffffffffffffffffffffffffffffffffffffffff1614156124a6576040517f08c379a000000000000000000000000000000000000000000000000000000000815260040161249d906141ab565b60405180910390fd5b60006124b061106a565b90506124e0818560006124c287612c76565b6124cb87612c76565b60405180602001604052806000815250612a31565b60006065600085815260200190815260200160002060008673ffffffffffffffffffffffffffffffffffffffff1673ffffffffffffffffffffffffffffffffffffffff16815260200190815260200160002054905082811015612578576040517f08c379a000000000000000000000000000000000000000000000000000000000815260040161256f906140eb565b60405180910390fd5b8281036065600086815260200190815260200160002060008773ffffffffffffffffffffffffffffffffffffffff1673ffffffffffffffffffffffffffffffffffffffff16815260200190815260200160002081905550600073ffffffffffffffffffffffffffffffffffffffff168573ffffffffffffffffffffffffffffffffffffffff168373ffffffffffffffffffffffffffffffffffffffff167fc3d58168c5ae7397731d063d5bbf3d657854427343f4c083240f7aacaa2d0f6287876040516126469291906142c6565b60405180910390a45050505050565b60007fd9b67a26000000000000000000000000000000000000000000000000000000007bffffffffffffffffffffffffffffffffffffffffffffffffffffffff1916827bffffffffffffffffffffffffffffffffffffffffffffffffffffffff1916148061272057507f0e89341c000000000000000000000000000000000000000000000000000000007bffffffffffffffffffffffffffffffffffffffffffffffffffffffff1916827bffffffffffffffffffffffffffffffffffffffffffffffffffffffff1916145b80612730575061272f8261312e565b5b9050919050565b60606000600283600261274a91906144a0565b612754919061444a565b67ffffffffffffffff811115612793577f4e487b7100000000000000000000000000000000000000000000000000000000600052604160045260246000fd5b6040519080825280601f01601f1916602001820160405280156127c55781602001600182028036833780820191505090505b5090507f300000000000000000000000000000000000000000000000000000000000000081600081518110612823577f4e487b7100000000000000000000000000000000000000000000000000000000600052603260045260246000fd5b60200101907effffffffffffffffffffffffffffffffffffffffffffffffffffffffffffff1916908160001a9053507f7800000000000000000000000000000000000000000000000000000000000000816001815181106128ad577f4e487b7100000000000000000000000000000000000000000000000000000000600052603260045260246000fd5b60200101907effffffffffffffffffffffffffffffffffffffffffffffffffffffffffffff1916908160001a905350600060018460026128ed91906144a0565b6128f7919061444a565b90505b60018111156129e3577f3031323334353637383961626364656600000000000000000000000000000000600f86166010811061295f577f4e487b7100000000000000000000000000000000000000000000000000000000600052603260045260246000fd5b1a60f81b82828151811061299c577f4e487b7100000000000000000000000000000000000000000000000000000000600052603260045260246000fd5b60200101907effffffffffffffffffffffffffffffffffffffffffffffffffffffffffffff1916908160001a905350600485901c9450806129dc906145ba565b90506128fa565b5060008414612a27576040517f08c379a0000000000000000000000000000000000000000000000000000000008152600401612a1e9061406b565b60405180910390fd5b8091505092915050565b612a39610a19565b15612a79576040517f08c379a0000000000000000000000000000000000000000000000000000000008152600401612a709061412b565b60405180910390fd5b612a87868686868686613198565b505050505050565b612aae8473ffffffffffffffffffffffffffffffffffffffff16610fdd565b15612c6e578373ffffffffffffffffffffffffffffffffffffffff1663bc197c8187878686866040518663ffffffff1660e01b8152600401612af4959493929190613ed8565b602060405180830381600087803b158015612b0e57600080fd5b505af1925050508015612b3f57506040513d601f19601f82011682018060405250810190612b3c91906139ad565b60015b612be557612b4b61471d565b806308c379a01415612ba85750612b60614d1a565b80612b6b5750612baa565b806040517f08c379a0000000000000000000000000000000000000000000000000000000008152600401612b9f9190614029565b60405180910390fd5b505b6040517f08c379a0000000000000000000000000000000000000000000000000000000008152600401612bdc9061404b565b60405180910390fd5b63bc197c8160e01b7bffffffffffffffffffffffffffffffffffffffffffffffffffffffff1916817bffffffffffffffffffffffffffffffffffffffffffffffffffffffff191614612c6c576040517f08c379a0000000000000000000000000000000000000000000000000000000008152600401612c639061408b565b60405180910390fd5b505b505050505050565b60606000600167ffffffffffffffff811115612cbb577f4e487b7100000000000000000000000000000000000000000000000000000000600052604160045260246000fd5b604051908082528060200260200182016040528015612ce95781602001602082028036833780820191505090505b5090508281600081518110612d27577f4e487b7100000000000000000000000000000000000000000000000000000000600052603260045260246000fd5b60200260200101818152505080915050919050565b612d5b8473ffffffffffffffffffffffffffffffffffffffff16610fdd565b15612f1b578373ffffffffffffffffffffffffffffffffffffffff1663f23a6e6187878686866040518663ffffffff1660e01b8152600401612da1959493929190613f40565b602060405180830381600087803b158015612dbb57600080fd5b505af1925050508015612dec57506040513d601f19601f82011682018060405250810190612de991906139ad565b60015b612e9257612df861471d565b806308c379a01415612e555750612e0d614d1a565b80612e185750612e57565b806040517f08c379a0000000000000000000000000000000000000000000000000000000008152600401612e4c9190614029565b60405180910390fd5b505b6040517f08c379a0000000000000000000000000000000000000000000000000000000008152600401612e899061404b565b60405180910390fd5b63f23a6e6160e01b7bffffffffffffffffffffffffffffffffffffffffffffffffffffffff1916817bffffffffffffffffffffffffffffffffffffffffffffffffffffffff191614612f19576040517f08c379a0000000000000000000000000000000000000000000000000000000008152600401612f109061408b565b60405180910390fd5b505b505050505050565b600060019054906101000a900460ff16612f72576040517f08c379a0000000000000000000000000000000000000000000000000000000008152600401612f69906141eb565b60405180910390fd5b565b600060019054906101000a900460ff16612fc3576040517f08c379a0000000000000000000000000000000000000000000000000000000008152600401612fba906141eb565b60405180910390fd5b565b600060019054906101000a900460ff16613014576040517f08c379a000000000000000000000000000000000000000000000000000000000815260040161300b906141eb565b60405180910390fd5b61301d8161110f565b50565b600060019054906101000a900460ff1661306f576040517f08c379a0000000000000000000000000000000000000000000000000000000008152600401613066906141eb565b60405180910390fd5b565b600060019054906101000a900460ff166130c0576040517f08c379a00000000000000000000000000000000000000000000000000000000081526004016130b7906141eb565b60405180910390fd5b600060c960006101000a81548160ff021916908315150217905550565b600060019054906101000a900460ff1661312c576040517f08c379a0000000000000000000000000000000000000000000000000000000008152600401613123906141eb565b60405180910390fd5b565b60007f01ffc9a7000000000000000000000000000000000000000000000000000000007bffffffffffffffffffffffffffffffffffffffffffffffffffffffff1916827bffffffffffffffffffffffffffffffffffffffffffffffffffffffff1916149050919050565b505050505050565b8280546131ac906145e4565b90600052602060002090601f0160209004810192826131ce5760008555613215565b82601f106131e757805160ff1916838001178555613215565b82800160010185558215613215579182015b828111156132145782518255916020019190600101906131f9565b5b5090506132229190613226565b5090565b5b8082111561323f576000816000905550600101613227565b5090565b600061325661325184614314565b6142ef565b9050808382526020820190508285602086028201111561327557600080fd5b60005b858110156132a5578161328b8882613397565b845260208401935060208301925050600181019050613278565b5050509392505050565b60006132c26132bd84614340565b6142ef565b905080838252602082019050828560208602820111156132e157600080fd5b60005b8581101561331157816132f788826134a8565b8452602084019350602083019250506001810190506132e4565b5050509392505050565b600061332e6133298461436c565b6142ef565b90508281526020810184848401111561334657600080fd5b613351848285614578565b509392505050565b600061336c6133678461439d565b6142ef565b90508281526020810184848401111561338457600080fd5b61338f848285614578565b509392505050565b6000813590506133a681614db0565b92915050565b600082601f8301126133bd57600080fd5b81356133cd848260208601613243565b91505092915050565b600082601f8301126133e757600080fd5b81356133f78482602086016132af565b91505092915050565b60008135905061340f81614dc7565b92915050565b60008135905061342481614dde565b92915050565b60008135905061343981614df5565b92915050565b60008151905061344e81614df5565b92915050565b600082601f83011261346557600080fd5b813561347584826020860161331b565b91505092915050565b600082601f83011261348f57600080fd5b813561349f848260208601613359565b91505092915050565b6000813590506134b781614e0c565b92915050565b600080604083850312156134d057600080fd5b60006134de85828601613397565b92505060206134ef85828601613397565b9150509250929050565b600080600080600060a0868803121561351157600080fd5b600061351f88828901613397565b955050602061353088828901613397565b945050604086013567ffffffffffffffff81111561354d57600080fd5b613559888289016133d6565b935050606086013567ffffffffffffffff81111561357657600080fd5b613582888289016133d6565b925050608086013567ffffffffffffffff81111561359f57600080fd5b6135ab88828901613454565b9150509295509295909350565b600080600080600060a086880312156135d057600080fd5b60006135de88828901613397565b95505060206135ef88828901613397565b9450506040613600888289016134a8565b9350506060613611888289016134a8565b925050608086013567ffffffffffffffff81111561362e57600080fd5b61363a88828901613454565b9150509295509295909350565b60008060006060848603121561365c57600080fd5b600061366a86828701613397565b935050602084013567ffffffffffffffff81111561368757600080fd5b613693868287016133d6565b925050604084013567ffffffffffffffff8111156136b057600080fd5b6136bc868287016133d6565b9150509250925092565b600080600080608085870312156136dc57600080fd5b60006136ea87828801613397565b945050602085013567ffffffffffffffff81111561370757600080fd5b613713878288016133d6565b935050604085013567ffffffffffffffff81111561373057600080fd5b61373c878288016133d6565b925050606085013567ffffffffffffffff81111561375957600080fd5b61376587828801613454565b91505092959194509250565b6000806040838503121561378457600080fd5b600061379285828601613397565b92505060206137a385828601613400565b9150509250929050565b600080604083850312156137c057600080fd5b60006137ce85828601613397565b92505060206137df858286016134a8565b9150509250929050565b6000806000606084860312156137fe57600080fd5b600061380c86828701613397565b935050602061381d868287016134a8565b925050604061382e868287016134a8565b9150509250925092565b6000806000806080858703121561384e57600080fd5b600061385c87828801613397565b945050602061386d878288016134a8565b935050604061387e878288016134a8565b925050606085013567ffffffffffffffff81111561389b57600080fd5b6138a787828801613454565b91505092959194509250565b600080604083850312156138c657600080fd5b600083013567ffffffffffffffff8111156138e057600080fd5b6138ec858286016133ac565b925050602083013567ffffffffffffffff81111561390957600080fd5b613915858286016133d6565b9150509250929050565b60006020828403121561393157600080fd5b600061393f84828501613415565b91505092915050565b6000806040838503121561395b57600080fd5b600061396985828601613415565b925050602061397a85828601613397565b9150509250929050565b60006020828403121561399657600080fd5b60006139a48482850161342a565b91505092915050565b6000602082840312156139bf57600080fd5b60006139cd8482850161343f565b91505092915050565b6000602082840312156139e857600080fd5b600082013567ffffffffffffffff811115613a0257600080fd5b613a0e8482850161347e565b91505092915050565b600060208284031215613a2957600080fd5b6000613a37848285016134a8565b91505092915050565b6000613a4c8383613e65565b60208301905092915050565b613a61816144fa565b82525050565b6000613a72826143de565b613a7c818561440c565b9350613a87836143ce565b8060005b83811015613ab8578151613a9f8882613a40565b9750613aaa836143ff565b925050600181019050613a8b565b5085935050505092915050565b613ace8161450c565b82525050565b613add81614518565b82525050565b6000613aee826143e9565b613af8818561441d565b9350613b08818560208601614587565b613b118161473f565b840191505092915050565b6000613b27826143f4565b613b31818561442e565b9350613b41818560208601614587565b613b4a8161473f565b840191505092915050565b6000613b60826143f4565b613b6a818561443f565b9350613b7a818560208601614587565b80840191505092915050565b6000613b9360348361442e565b9150613b9e8261475d565b604082019050919050565b6000613bb660208361442e565b9150613bc1826147ac565b602082019050919050565b6000613bd960288361442e565b9150613be4826147d5565b604082019050919050565b6000613bfc60148361442e565b9150613c0782614824565b602082019050919050565b6000613c1f602b8361442e565b9150613c2a8261484d565b604082019050919050565b6000613c4260248361442e565b9150613c4d8261489c565b604082019050919050565b6000613c6560298361442e565b9150613c70826148eb565b604082019050919050565b6000613c8860108361442e565b9150613c938261493a565b602082019050919050565b6000613cab60258361442e565b9150613cb682614963565b604082019050919050565b6000613cce60328361442e565b9150613cd9826149b2565b604082019050919050565b6000613cf1602e8361442e565b9150613cfc82614a01565b604082019050919050565b6000613d1460238361442e565b9150613d1f82614a50565b604082019050919050565b6000613d37602a8361442e565b9150613d4282614a9f565b604082019050919050565b6000613d5a602b8361442e565b9150613d6582614aee565b604082019050919050565b6000613d7d60178361443f565b9150613d8882614b3d565b601782019050919050565b6000613da060298361442e565b9150613dab82614b66565b604082019050919050565b6000613dc360298361442e565b9150613dce82614bb5565b604082019050919050565b6000613de660288361442e565b9150613df182614c04565b604082019050919050565b6000613e0960218361442e565b9150613e1482614c53565b604082019050919050565b6000613e2c60118361443f565b9150613e3782614ca2565b601182019050919050565b6000613e4f602f8361442e565b9150613e5a82614ccb565b604082019050919050565b613e6e8161456e565b82525050565b613e7d8161456e565b82525050565b6000613e8e82613d70565b9150613e9a8285613b55565b9150613ea582613e1f565b9150613eb18284613b55565b91508190509392505050565b6000602082019050613ed26000830184613a58565b92915050565b600060a082019050613eed6000830188613a58565b613efa6020830187613a58565b8181036040830152613f0c8186613a67565b90508181036060830152613f208185613a67565b90508181036080830152613f348184613ae3565b90509695505050505050565b600060a082019050613f556000830188613a58565b613f626020830187613a58565b613f6f6040830186613e74565b613f7c6060830185613e74565b8181036080830152613f8e8184613ae3565b90509695505050505050565b60006020820190508181036000830152613fb48184613a67565b905092915050565b60006040820190508181036000830152613fd68185613a67565b90508181036020830152613fea8184613a67565b90509392505050565b60006020820190506140086000830184613ac5565b92915050565b60006020820190506140236000830184613ad4565b92915050565b600060208201905081810360008301526140438184613b1c565b905092915050565b6000602082019050818103600083015261406481613b86565b9050919050565b6000602082019050818103600083015261408481613ba9565b9050919050565b600060208201905081810360008301526140a481613bcc565b9050919050565b600060208201905081810360008301526140c481613bef565b9050919050565b600060208201905081810360008301526140e481613c12565b9050919050565b6000602082019050818103600083015261410481613c35565b9050919050565b6000602082019050818103600083015261412481613c58565b9050919050565b6000602082019050818103600083015261414481613c7b565b9050919050565b6000602082019050818103600083015261416481613c9e565b9050919050565b6000602082019050818103600083015261418481613cc1565b9050919050565b600060208201905081810360008301526141a481613ce4565b9050919050565b600060208201905081810360008301526141c481613d07565b9050919050565b600060208201905081810360008301526141e481613d2a565b9050919050565b6000602082019050818103600083015261420481613d4d565b9050919050565b6000602082019050818103600083015261422481613d93565b9050919050565b6000602082019050818103600083015261424481613db6565b9050919050565b6000602082019050818103600083015261426481613dd9565b9050919050565b6000602082019050818103600083015261428481613dfc565b9050919050565b600060208201905081810360008301526142a481613e42565b9050919050565b60006020820190506142c06000830184613e74565b92915050565b60006040820190506142db6000830185613e74565b6142e86020830184613e74565b9392505050565b60006142f961430a565b90506143058282614616565b919050565b6000604051905090565b600067ffffffffffffffff82111561432f5761432e6146ee565b5b602082029050602081019050919050565b600067ffffffffffffffff82111561435b5761435a6146ee565b5b602082029050602081019050919050565b600067ffffffffffffffff821115614387576143866146ee565b5b6143908261473f565b9050602081019050919050565b600067ffffffffffffffff8211156143b8576143b76146ee565b5b6143c18261473f565b9050602081019050919050565b6000819050602082019050919050565b600081519050919050565b600081519050919050565b600081519050919050565b6000602082019050919050565b600082825260208201905092915050565b600082825260208201905092915050565b600082825260208201905092915050565b600081905092915050565b60006144558261456e565b91506144608361456e565b9250827fffffffffffffffffffffffffffffffffffffffffffffffffffffffffffffffff0382111561449557614494614690565b5b828201905092915050565b60006144ab8261456e565b91506144b68361456e565b9250817fffffffffffffffffffffffffffffffffffffffffffffffffffffffffffffffff04831182151516156144ef576144ee614690565b5b828202905092915050565b60006145058261454e565b9050919050565b60008115159050919050565b6000819050919050565b60007fffffffff0000000000000000000000000000000000000000000000000000000082169050919050565b600073ffffffffffffffffffffffffffffffffffffffff82169050919050565b6000819050919050565b82818337600083830152505050565b60005b838110156145a557808201518184015260208101905061458a565b838111156145b4576000848401525b50505050565b60006145c58261456e565b915060008214156145d9576145d8614690565b5b600182039050919050565b600060028204905060018216806145fc57607f821691505b602082108114156146105761460f6146bf565b5b50919050565b61461f8261473f565b810181811067ffffffffffffffff8211171561463e5761463d6146ee565b5b80604052505050565b60006146528261456e565b91507fffffffffffffffffffffffffffffffffffffffffffffffffffffffffffffffff82141561468557614684614690565b5b600182019050919050565b7f4e487b7100000000000000000000000000000000000000000000000000000000600052601160045260246000fd5b7f4e487b7100000000000000000000000000000000000000000000000000000000600052602260045260246000fd5b7f4e487b7100000000000000000000000000000000000000000000000000000000600052604160045260246000fd5b600060033d111561473c5760046000803e614739600051614750565b90505b90565b6000601f19601f8301169050919050565b60008160e01c9050919050565b7f455243313135353a207472616e7366657220746f206e6f6e204552433131353560008201527f526563656976657220696d706c656d656e746572000000000000000000000000602082015250565b7f537472696e67733a20686578206c656e67746820696e73756666696369656e74600082015250565b7f455243313135353a204552433131353552656365697665722072656a6563746560008201527f6420746f6b656e73000000000000000000000000000000000000000000000000602082015250565b7f5061757361626c653a206e6f7420706175736564000000000000000000000000600082015250565b7f455243313135353a2062616c616e636520717565727920666f7220746865207a60008201527f65726f2061646472657373000000000000000000000000000000000000000000602082015250565b7f455243313135353a206275726e20616d6f756e7420657863656564732062616c60008201527f616e636500000000000000000000000000000000000000000000000000000000602082015250565b7f455243313135353a2063616c6c6572206973206e6f74206f776e6572206e6f7260008201527f20617070726f7665640000000000000000000000000000000000000000000000602082015250565b7f5061757361626c653a2070617573656400000000000000000000000000000000600082015250565b7f455243313135353a207472616e7366657220746f20746865207a65726f20616460008201527f6472657373000000000000000000000000000000000000000000000000000000602082015250565b7f455243313135353a207472616e736665722063616c6c6572206973206e6f742060008201527f6f776e6572206e6f7220617070726f7665640000000000000000000000000000602082015250565b7f496e697469616c697a61626c653a20636f6e747261637420697320616c72656160008201527f647920696e697469616c697a6564000000000000000000000000000000000000602082015250565b7f455243313135353a206275726e2066726f6d20746865207a65726f206164647260008201527f6573730000000000000000000000000000000000000000000000000000000000602082015250565b7f455243313135353a20696e73756666696369656e742062616c616e636520666f60008201527f72207472616e7366657200000000000000000000000000000000000000000000602082015250565b7f496e697469616c697a61626c653a20636f6e7472616374206973206e6f74206960008201527f6e697469616c697a696e67000000000000000000000000000000000000000000602082015250565b7f416363657373436f6e74726f6c3a206163636f756e7420000000000000000000600082015250565b7f455243313135353a2073657474696e6720617070726f76616c2073746174757360008201527f20666f722073656c660000000000000000000000000000000000000000000000602082015250565b7f455243313135353a206163636f756e747320616e6420696473206c656e67746860008201527f206d69736d617463680000000000000000000000000000000000000000000000602082015250565b7f455243313135353a2069647320616e6420616d6f756e7473206c656e6774682060008201527f6d69736d61746368000000000000000000000000000000000000000000000000602082015250565b7f455243313135353a206d696e7420746f20746865207a65726f2061646472657360008201527f7300000000000000000000000000000000000000000000000000000000000000602082015250565b7f206973206d697373696e6720726f6c6520000000000000000000000000000000600082015250565b7f416363657373436f6e74726f6c3a2063616e206f6e6c792072656e6f756e636560008201527f20726f6c657320666f722073656c660000000000000000000000000000000000602082015250565b600060443d1015614d2a57614dad565b614d3261430a565b60043d036004823e80513d602482011167ffffffffffffffff82111715614d5a575050614dad565b808201805167ffffffffffffffff811115614d785750505050614dad565b80602083010160043d038501811115614d95575050505050614dad565b614da482602001850186614616565b82955050505050505b90565b614db9816144fa565b8114614dc457600080fd5b50565b614dd08161450c565b8114614ddb57600080fd5b50565b614de781614518565b8114614df257600080fd5b50565b614dfe81614522565b8114614e0957600080fd5b50565b614e158161456e565b8114614e2057600080fd5b5056fea26469706673582212202a0919034a03be091a2238cdf8dff8c097662e51c69fee4b68a6ca04166cc02f64736f6c63430008020033",
  "immutableReferences": {},
  "source": "// SPDX-License-Identifier: MIT\r\npragma solidity ^0.8.2;\r\n\r\nimport \"@openzeppelin/contracts-upgradeable/token/ERC1155/ERC1155Upgradeable.sol\";\r\nimport \"@openzeppelin/contracts-upgradeable/access/AccessControlUpgradeable.sol\";\r\nimport \"@openzeppelin/contracts-upgradeable/security/PausableUpgradeable.sol\";\r\nimport \"@openzeppelin/contracts-upgradeable/token/ERC1155/extensions/ERC1155BurnableUpgradeable.sol\";\r\nimport \"@openzeppelin/contracts-upgradeable/token/ERC1155/extensions/ERC1155SupplyUpgradeable.sol\";\r\nimport \"@openzeppelin/contracts-upgradeable/proxy/utils/Initializable.sol\";\r\nimport \"@openzeppelin/contracts/utils/cryptography/ECDSA.sol\";\r\nimport \"@openzeppelin/contracts-upgradeable/utils/cryptography/draft-EIP712Upgradeable.sol\";\r\n\r\n/// @custom:security-contact Kyle@zenft.app\r\ncontract ZeNFT is Initializable, ERC1155Upgradeable, AccessControlUpgradeable, PausableUpgradeable, ERC1155BurnableUpgradeable, EIP712Upgradeable {\r\n    bytes32 public constant URI_SETTER_ROLE = keccak256(\"URI_SETTER_ROLE\");\r\n    bytes32 public constant PAUSER_ROLE = keccak256(\"PAUSER_ROLE\");\r\n    bytes32 public constant MINTER_ROLE = keccak256(\"MINTER_ROLE\");\r\n    mapping (address => uint256) pendingWithdrawals;\r\n\r\n    /// @custom:oz-upgrades-unsafe-allow constructor\r\n    constructor() initializer {}\r\n\r\n    function initialize() initializer public {\r\n        __ERC1155_init(\"\");\r\n        __AccessControl_init();\r\n        __Pausable_init();\r\n        __ERC1155Burnable_init();\r\n        grantRole(DEFAULT_ADMIN_ROLE, msg.sender);\r\n        grantRole(URI_SETTER_ROLE, msg.sender);\r\n        grantRole(PAUSER_ROLE, msg.sender);\r\n        grantRole(MINTER_ROLE, msg.sender);\r\n    }\r\n\r\n    function setURI(string memory newuri) public onlyRole(URI_SETTER_ROLE) {\r\n        _setURI(newuri);\r\n    }\r\n\r\n    function pause() public onlyRole(PAUSER_ROLE) {\r\n        _pause();\r\n    }\r\n\r\n    function unpause() public onlyRole(PAUSER_ROLE) {\r\n        _unpause();\r\n    }\r\n    function mint(address account, uint256 id, uint256 amount, bytes memory data) public onlyRole(MINTER_ROLE){\r\n        _mint(account, id, amount, data);\r\n    }\r\n\r\n    function mintBatch(address to, uint256[] memory ids, uint256[] memory amounts, bytes memory data) public onlyRole(MINTER_ROLE){\r\n        _mintBatch(to, ids, amounts, data);\r\n    }\r\n\r\n    function _beforeTokenTransfer(address operator, address from, address to, uint256[] memory ids, uint256[] memory amounts, bytes memory data)\r\n        internal whenNotPaused override(ERC1155Upgradeable){\r\n        super._beforeTokenTransfer(operator, from, to, ids, amounts, data);\r\n    }\r\n\r\n    // The following functions are overrides required by Solidity.\r\n    function supportsInterface(bytes4 interfaceId)public view override(ERC1155Upgradeable, AccessControlUpgradeable)returns (bool){\r\n        return super.supportsInterface(interfaceId);\r\n    }\r\n    /*\r\n\r\n    //if you are doing an airdrop then you have to take the minimum price out of it and then the buyer pays the gas fees\r\n  ///Represents an un-minted NFT, which has not yet been recorded into the blockchain. A signed voucher can be redeemed for a real NFT using the redeem function.\r\n  struct NFTVoucher {\r\n    // The id of the token to be redeemed. Must be unique - if another token with this ID already exists, the redeem function will revert.\r\n    uint256 tokenId;\r\n    //The minimum price (in wei) that the NFT creator is willing to accept for the initial sale of this NFT.\r\n    uint256 minPrice;\r\n    //The metadata URI to associate with this token.\r\n    string uri;\r\n    //the EIP-712 signature of all other fields in the NFTVoucher struct. For a voucher to be valid, it must be signed by an account with the MINTER_ROLE.\r\n    bytes signature;\r\n  }\r\n  /// notice Redeems an NFTVoucher for an actual NFT, creating it in the process.\r\n  /// param redeemer The address of the account which will receive the NFT upon success.\r\n  /// param voucher A signed NFTVoucher that describes the NFT to be redeemed.\r\n  function redeem(address redeemer, NFTVoucher calldata voucher) public payable returns (uint256) {\r\n    // make sure signature is valid and get the address of the signer\r\n    address signer = _verify(voucher);\r\n    // make sure that the signer is authorized to mint NFTs\r\n    require(hasRole(MINTER_ROLE, signer), \"Signature invalid or unauthorized\");\r\n    // make sure that the redeemer is paying enough to cover the buyer's cost\r\n    require(msg.value >= voucher.minPrice, \"Insufficient funds to redeem\");\r\n    // first assign the token to the signer, to establish provenance on-chain\r\n    _mint(signer, voucher.tokenId, 1, voucher);\r\n    _setURI(voucher.tokenId, voucher.uri);\r\n    // transfer the token to the redeemer\r\n    _safeTransferFrom(signer, redeemer, voucher.tokenId);\r\n    // record payment to signer's withdrawal balance\r\n    pendingWithdrawals[signer] += msg.value;\r\n    //you return the tkenID\r\n    return voucher.tokenId;\r\n  }\r\n\r\n  /// notice Transfers all pending withdrawal balance to the caller. Reverts if the caller is not an authorized minter.\r\n  function withdraw() public {\r\n    //hasRole\r\n    require(hasRole(MINTER_ROLE, msg.sender), \"Only authorized minters can withdraw\");\r\n    // IMPORTANT: casting msg.sender to a payable address is only safe if ALL members of the minter role are payable addresses.\r\n    address payable receiver = payable(msg.sender);\r\n    uint amount = pendingWithdrawals[receiver];\r\n    // zero account before transfer to prevent re-entrancy attack\r\n    pendingWithdrawals[receiver] = 0;\r\n    receiver.transfer(amount);\r\n  }\r\n  /// notice Retuns the amount of Ether available to the caller to withdraw.\r\n  function availableToWithdraw() public view returns (uint256) {\r\n    return pendingWithdrawals[msg.sender];\r\n  }\r\n\r\n  /// @notice Returns a hash of the given NFTVoucher, prepared using EIP712 typed data hashing rules.\r\n  /// @param voucher An NFTVoucher to hash.\r\n  function _hash(NFTVoucher calldata voucher) internal view returns (bytes32) {\r\n    return _hashTypedDataV4(keccak256(abi.encode(\r\n      keccak256(\"NFTVoucher(uint256 tokenId,uint256 minPrice,string uri)\"),\r\n      voucher.tokenId,\r\n      voucher.minPrice,\r\n      keccak256(bytes(voucher.uri))\r\n    )));\r\n  }\r\n\r\n  /// notice Returns the chain id of the current blockchain.\r\n  /// @dev This is used to workaround an issue with ganache returning different values from the on-chain chainid() function and\r\n  ///  the eth_chainId RPC method. See https://github.com/protocol/nft-website/issues/121 for context.\r\n  function getChainID() external view returns (uint256) {\r\n    uint256 id;\r\n    assembly {\r\n        id := chainid()\r\n    }\r\n    return id;\r\n  }\r\n  /// notice Verifies the signature for a given NFTVoucher, returning the address of the signer.\r\n  /// dev Will revert if the signature is invalid. Does not verify that the signer is authorized to mint NFTs.\r\n  /// param voucher An NFTVoucher describing an unminted NFT.\r\n  function _verify(NFTVoucher calldata voucher) internal view returns (address) {\r\n    bytes32 digest = _hash(voucher);\r\n    return ECDSA.recover(digest, voucher.signature);\r\n  }\r\n  */\r\n    \r\n}",
  "sourcePath": "/home/elfindis/Documents/ZeNFT-Minter/contracts/ZeNFT.sol",
  "compiler": {
    "name": "solc",
    "version": "0.8.2+commit.661d1103.Emscripten.clang"
  },
  "schemaVersion": "3.4.4",
  "updatedAt": "2022-02-04T04:44:01.786Z",
  "devdoc": {
    "custom:security-contact": "Kyle@zenft.app",
    "kind": "dev",
    "methods": {
      "balanceOf(address,uint256)": {
        "details": "See {IERC1155-balanceOf}. Requirements: - `account` cannot be the zero address."
      },
      "balanceOfBatch(address[],uint256[])": {
        "details": "See {IERC1155-balanceOfBatch}. Requirements: - `accounts` and `ids` must have the same length."
      },
      "constructor": {
        "custom:oz-upgrades-unsafe-allow": "constructor"
      },
      "getRoleAdmin(bytes32)": {
        "details": "Returns the admin role that controls `role`. See {grantRole} and {revokeRole}. To change a role's admin, use {_setRoleAdmin}."
      },
      "grantRole(bytes32,address)": {
        "details": "Grants `role` to `account`. If `account` had not been already granted `role`, emits a {RoleGranted} event. Requirements: - the caller must have ``role``'s admin role."
      },
      "hasRole(bytes32,address)": {
        "details": "Returns `true` if `account` has been granted `role`."
      },
      "isApprovedForAll(address,address)": {
        "details": "See {IERC1155-isApprovedForAll}."
      },
      "paused()": {
        "details": "Returns true if the contract is paused, and false otherwise."
      },
      "renounceRole(bytes32,address)": {
        "details": "Revokes `role` from the calling account. Roles are often managed via {grantRole} and {revokeRole}: this function's purpose is to provide a mechanism for accounts to lose their privileges if they are compromised (such as when a trusted device is misplaced). If the calling account had been revoked `role`, emits a {RoleRevoked} event. Requirements: - the caller must be `account`."
      },
      "revokeRole(bytes32,address)": {
        "details": "Revokes `role` from `account`. If `account` had been granted `role`, emits a {RoleRevoked} event. Requirements: - the caller must have ``role``'s admin role."
      },
      "safeBatchTransferFrom(address,address,uint256[],uint256[],bytes)": {
        "details": "See {IERC1155-safeBatchTransferFrom}."
      },
      "safeTransferFrom(address,address,uint256,uint256,bytes)": {
        "details": "See {IERC1155-safeTransferFrom}."
      },
      "setApprovalForAll(address,bool)": {
        "details": "See {IERC1155-setApprovalForAll}."
      },
      "uri(uint256)": {
        "details": "See {IERC1155MetadataURI-uri}. This implementation returns the same URI for *all* token types. It relies on the token type ID substitution mechanism https://eips.ethereum.org/EIPS/eip-1155#metadata[defined in the EIP]. Clients calling this function must replace the `\\{id\\}` substring with the actual token type ID."
      }
    },
    "version": 1
  },
  "userdoc": {
    "kind": "user",
    "methods": {},
    "version": 1
  }
}