{
  "contractName": "ZeNFT",
  "abi": [
    {
      "anonymous": false,
      "inputs": [
        {
          "indexed": false,
          "internalType": "address",
          "name": "previousAdmin",
          "type": "address"
        },
        {
          "indexed": false,
          "internalType": "address",
          "name": "newAdmin",
          "type": "address"
        }
      ],
      "name": "AdminChanged",
      "type": "event"
    },
    {
      "anonymous": false,
      "inputs": [
        {
          "indexed": true,
          "internalType": "address",
          "name": "account",
          "type": "address"
        },
        {
          "indexed": true,
          "internalType": "address",
          "name": "operator",
          "type": "address"
        },
        {
          "indexed": false,
          "internalType": "bool",
          "name": "approved",
          "type": "bool"
        }
      ],
      "name": "ApprovalForAll",
      "type": "event"
    },
    {
      "anonymous": false,
      "inputs": [
        {
          "indexed": true,
          "internalType": "address",
          "name": "beacon",
          "type": "address"
        }
      ],
      "name": "BeaconUpgraded",
      "type": "event"
    },
    {
      "anonymous": false,
      "inputs": [
        {
          "indexed": true,
          "internalType": "address",
          "name": "previousOwner",
          "type": "address"
        },
        {
          "indexed": true,
          "internalType": "address",
          "name": "newOwner",
          "type": "address"
        }
      ],
      "name": "OwnershipTransferred",
      "type": "event"
    },
    {
      "anonymous": false,
      "inputs": [
        {
          "indexed": false,
          "internalType": "address",
          "name": "account",
          "type": "address"
        }
      ],
      "name": "Paused",
      "type": "event"
    },
    {
      "anonymous": false,
      "inputs": [
        {
          "indexed": true,
          "internalType": "address",
          "name": "operator",
          "type": "address"
        },
        {
          "indexed": true,
          "internalType": "address",
          "name": "from",
          "type": "address"
        },
        {
          "indexed": true,
          "internalType": "address",
          "name": "to",
          "type": "address"
        },
        {
          "indexed": false,
          "internalType": "uint256[]",
          "name": "ids",
          "type": "uint256[]"
        },
        {
          "indexed": false,
          "internalType": "uint256[]",
          "name": "values",
          "type": "uint256[]"
        }
      ],
      "name": "TransferBatch",
      "type": "event"
    },
    {
      "anonymous": false,
      "inputs": [
        {
          "indexed": true,
          "internalType": "address",
          "name": "operator",
          "type": "address"
        },
        {
          "indexed": true,
          "internalType": "address",
          "name": "from",
          "type": "address"
        },
        {
          "indexed": true,
          "internalType": "address",
          "name": "to",
          "type": "address"
        },
        {
          "indexed": false,
          "internalType": "uint256",
          "name": "id",
          "type": "uint256"
        },
        {
          "indexed": false,
          "internalType": "uint256",
          "name": "value",
          "type": "uint256"
        }
      ],
      "name": "TransferSingle",
      "type": "event"
    },
    {
      "anonymous": false,
      "inputs": [
        {
          "indexed": false,
          "internalType": "string",
          "name": "value",
          "type": "string"
        },
        {
          "indexed": true,
          "internalType": "uint256",
          "name": "id",
          "type": "uint256"
        }
      ],
      "name": "URI",
      "type": "event"
    },
    {
      "anonymous": false,
      "inputs": [
        {
          "indexed": false,
          "internalType": "address",
          "name": "account",
          "type": "address"
        }
      ],
      "name": "Unpaused",
      "type": "event"
    },
    {
      "anonymous": false,
      "inputs": [
        {
          "indexed": true,
          "internalType": "address",
          "name": "implementation",
          "type": "address"
        }
      ],
      "name": "Upgraded",
      "type": "event"
    },
    {
      "inputs": [
        {
          "internalType": "address",
          "name": "account",
          "type": "address"
        },
        {
          "internalType": "uint256",
          "name": "id",
          "type": "uint256"
        }
      ],
      "name": "balanceOf",
      "outputs": [
        {
          "internalType": "uint256",
          "name": "",
          "type": "uint256"
        }
      ],
      "stateMutability": "view",
      "type": "function",
      "constant": true
    },
    {
      "inputs": [
        {
          "internalType": "address[]",
          "name": "accounts",
          "type": "address[]"
        },
        {
          "internalType": "uint256[]",
          "name": "ids",
          "type": "uint256[]"
        }
      ],
      "name": "balanceOfBatch",
      "outputs": [
        {
          "internalType": "uint256[]",
          "name": "",
          "type": "uint256[]"
        }
      ],
      "stateMutability": "view",
      "type": "function",
      "constant": true
    },
    {
      "inputs": [
        {
          "internalType": "address",
          "name": "account",
          "type": "address"
        },
        {
          "internalType": "uint256",
          "name": "id",
          "type": "uint256"
        },
        {
          "internalType": "uint256",
          "name": "value",
          "type": "uint256"
        }
      ],
      "name": "burn",
      "outputs": [],
      "stateMutability": "nonpayable",
      "type": "function"
    },
    {
      "inputs": [
        {
          "internalType": "address",
          "name": "account",
          "type": "address"
        },
        {
          "internalType": "uint256[]",
          "name": "ids",
          "type": "uint256[]"
        },
        {
          "internalType": "uint256[]",
          "name": "values",
          "type": "uint256[]"
        }
      ],
      "name": "burnBatch",
      "outputs": [],
      "stateMutability": "nonpayable",
      "type": "function"
    },
    {
      "inputs": [
        {
          "internalType": "address",
          "name": "account",
          "type": "address"
        },
        {
          "internalType": "address",
          "name": "operator",
          "type": "address"
        }
      ],
      "name": "isApprovedForAll",
      "outputs": [
        {
          "internalType": "bool",
          "name": "",
          "type": "bool"
        }
      ],
      "stateMutability": "view",
      "type": "function",
      "constant": true
    },
    {
      "inputs": [],
      "name": "owner",
      "outputs": [
        {
          "internalType": "address",
          "name": "",
          "type": "address"
        }
      ],
      "stateMutability": "view",
      "type": "function",
      "constant": true
    },
    {
      "inputs": [],
      "name": "paused",
      "outputs": [
        {
          "internalType": "bool",
          "name": "",
          "type": "bool"
        }
      ],
      "stateMutability": "view",
      "type": "function",
      "constant": true
    },
    {
      "inputs": [],
      "name": "renounceOwnership",
      "outputs": [],
      "stateMutability": "nonpayable",
      "type": "function"
    },
    {
      "inputs": [
        {
          "internalType": "address",
          "name": "from",
          "type": "address"
        },
        {
          "internalType": "address",
          "name": "to",
          "type": "address"
        },
        {
          "internalType": "uint256[]",
          "name": "ids",
          "type": "uint256[]"
        },
        {
          "internalType": "uint256[]",
          "name": "amounts",
          "type": "uint256[]"
        },
        {
          "internalType": "bytes",
          "name": "data",
          "type": "bytes"
        }
      ],
      "name": "safeBatchTransferFrom",
      "outputs": [],
      "stateMutability": "nonpayable",
      "type": "function"
    },
    {
      "inputs": [
        {
          "internalType": "address",
          "name": "from",
          "type": "address"
        },
        {
          "internalType": "address",
          "name": "to",
          "type": "address"
        },
        {
          "internalType": "uint256",
          "name": "id",
          "type": "uint256"
        },
        {
          "internalType": "uint256",
          "name": "amount",
          "type": "uint256"
        },
        {
          "internalType": "bytes",
          "name": "data",
          "type": "bytes"
        }
      ],
      "name": "safeTransferFrom",
      "outputs": [],
      "stateMutability": "nonpayable",
      "type": "function"
    },
    {
      "inputs": [
        {
          "internalType": "address",
          "name": "operator",
          "type": "address"
        },
        {
          "internalType": "bool",
          "name": "approved",
          "type": "bool"
        }
      ],
      "name": "setApprovalForAll",
      "outputs": [],
      "stateMutability": "nonpayable",
      "type": "function"
    },
    {
      "inputs": [
        {
          "internalType": "bytes4",
          "name": "interfaceId",
          "type": "bytes4"
        }
      ],
      "name": "supportsInterface",
      "outputs": [
        {
          "internalType": "bool",
          "name": "",
          "type": "bool"
        }
      ],
      "stateMutability": "view",
      "type": "function",
      "constant": true
    },
    {
      "inputs": [
        {
          "internalType": "address",
          "name": "newOwner",
          "type": "address"
        }
      ],
      "name": "transferOwnership",
      "outputs": [],
      "stateMutability": "nonpayable",
      "type": "function"
    },
    {
      "inputs": [
        {
          "internalType": "address",
          "name": "newImplementation",
          "type": "address"
        }
      ],
      "name": "upgradeTo",
      "outputs": [],
      "stateMutability": "nonpayable",
      "type": "function"
    },
    {
      "inputs": [
        {
          "internalType": "address",
          "name": "newImplementation",
          "type": "address"
        },
        {
          "internalType": "bytes",
          "name": "data",
          "type": "bytes"
        }
      ],
      "name": "upgradeToAndCall",
      "outputs": [],
      "stateMutability": "payable",
      "type": "function",
      "payable": true
    },
    {
      "inputs": [
        {
          "internalType": "uint256",
          "name": "",
          "type": "uint256"
        }
      ],
      "name": "uri",
      "outputs": [
        {
          "internalType": "string",
          "name": "",
          "type": "string"
        }
      ],
      "stateMutability": "view",
      "type": "function",
      "constant": true
    },
    {
      "inputs": [],
      "name": "initialize",
      "outputs": [],
      "stateMutability": "nonpayable",
      "type": "function"
    },
    {
      "inputs": [
        {
          "internalType": "string",
          "name": "newuri",
          "type": "string"
        }
      ],
      "name": "setURI",
      "outputs": [],
      "stateMutability": "nonpayable",
      "type": "function"
    },
    {
      "inputs": [],
      "name": "pause",
      "outputs": [],
      "stateMutability": "nonpayable",
      "type": "function"
    },
    {
      "inputs": [],
      "name": "unpause",
      "outputs": [],
      "stateMutability": "nonpayable",
      "type": "function"
    },
    {
      "inputs": [
        {
          "internalType": "address",
          "name": "account",
          "type": "address"
        },
        {
          "internalType": "uint256",
          "name": "id",
          "type": "uint256"
        },
        {
          "internalType": "uint256",
          "name": "amount",
          "type": "uint256"
        },
        {
          "internalType": "bytes",
          "name": "data",
          "type": "bytes"
        }
      ],
      "name": "mint",
      "outputs": [],
      "stateMutability": "nonpayable",
      "type": "function"
    },
    {
      "inputs": [
        {
          "internalType": "address",
          "name": "to",
          "type": "address"
        },
        {
          "internalType": "uint256[]",
          "name": "ids",
          "type": "uint256[]"
        },
        {
          "internalType": "uint256[]",
          "name": "amounts",
          "type": "uint256[]"
        },
        {
          "internalType": "bytes",
          "name": "data",
          "type": "bytes"
        }
      ],
      "name": "mintBatch",
      "outputs": [],
      "stateMutability": "nonpayable",
      "type": "function"
    }
  ],
  "bytecode": "0x60a06040523073ffffffffffffffffffffffffffffffffffffffff1660809073ffffffffffffffffffffffffffffffffffffffff1660601b81525034801561004657600080fd5b5060805160601c615ab96200007b600039600081816108cb0152818161095a01528181610cb10152610d400152615ab96000f3fe6080604052600436106101345760003560e01c80636b20c454116100ab5780638da5cb5b1161006f5780638da5cb5b146103c6578063a22cb465146103f1578063e985e9c51461041a578063f242432a14610457578063f2fde38b14610480578063f5298aca146104a957610134565b80636b20c4541461032f578063715018a614610358578063731133e91461036f5780638129fc1c146103985780638456cb59146103af57610134565b80632eb2c2d6116100fd5780632eb2c2d6146102425780633659cfe61461026b5780633f4ba83a146102945780634e1273f4146102ab5780634f1ef286146102e85780635c975abb1461030457610134565b8062fdd58e1461013957806301ffc9a71461017657806302fe5305146101b35780630e89341c146101dc5780631f7fdffa14610219575b600080fd5b34801561014557600080fd5b50610160600480360381019061015b919061438d565b6104d2565b60405161016d9190614e9f565b60405180910390f35b34801561018257600080fd5b5061019d600480360381019061019891906144ff565b61059c565b6040516101aa9190614b82565b60405180910390f35b3480156101bf57600080fd5b506101da60048036038101906101d59190614551565b61067e565b005b3480156101e857600080fd5b5061020360048036038101906101fe9190614592565b610706565b6040516102109190614b9d565b60405180910390f35b34801561022557600080fd5b50610240600480360381019061023b9190614252565b61079a565b005b34801561024e57600080fd5b5061026960048036038101906102649190614085565b610828565b005b34801561027757600080fd5b50610292600480360381019061028d9190614020565b6108c9565b005b3480156102a057600080fd5b506102a9610a78565b005b3480156102b757600080fd5b506102d260048036038101906102cd9190614493565b610afe565b6040516102df9190614b29565b60405180910390f35b61030260048036038101906102fd9190614339565b610caf565b005b34801561031057600080fd5b50610319610dec565b6040516103269190614b82565b60405180910390f35b34801561033b57600080fd5b50610356600480360381019061035191906141d3565b610e03565b005b34801561036457600080fd5b5061036d610ea0565b005b34801561037b57600080fd5b5061039660048036038101906103919190614418565b610f28565b005b3480156103a457600080fd5b506103ad610fb6565b005b3480156103bb57600080fd5b506103c46110c7565b005b3480156103d257600080fd5b506103db61114d565b6040516103e89190614a4c565b60405180910390f35b3480156103fd57600080fd5b50610418600480360381019061041391906142fd565b611177565b005b34801561042657600080fd5b50610441600480360381019061043c9190614049565b6112f8565b60405161044e9190614b82565b60405180910390f35b34801561046357600080fd5b5061047e60048036038101906104799190614144565b61138c565b005b34801561048c57600080fd5b506104a760048036038101906104a29190614020565b61142d565b005b3480156104b557600080fd5b506104d060048036038101906104cb91906143c9565b611525565b005b60008073ffffffffffffffffffffffffffffffffffffffff168373ffffffffffffffffffffffffffffffffffffffff161415610543576040517f08c379a000000000000000000000000000000000000000000000000000000000815260040161053a90614c1f565b60405180910390fd5b6065600083815260200190815260200160002060008473ffffffffffffffffffffffffffffffffffffffff1673ffffffffffffffffffffffffffffffffffffffff16815260200190815260200160002054905092915050565b60007fd9b67a26000000000000000000000000000000000000000000000000000000007bffffffffffffffffffffffffffffffffffffffffffffffffffffffff1916827bffffffffffffffffffffffffffffffffffffffffffffffffffffffff1916148061066757507f0e89341c000000000000000000000000000000000000000000000000000000007bffffffffffffffffffffffffffffffffffffffffffffffffffffffff1916827bffffffffffffffffffffffffffffffffffffffffffffffffffffffff1916145b806106775750610676826115c2565b5b9050919050565b61068661162c565b73ffffffffffffffffffffffffffffffffffffffff166106a461114d565b73ffffffffffffffffffffffffffffffffffffffff16146106fa576040517f08c379a00000000000000000000000000000000000000000000000000000000081526004016106f190614ddf565b60405180910390fd5b61070381611634565b50565b6060606780546107159061514a565b80601f01602080910402602001604051908101604052809291908181526020018280546107419061514a565b801561078e5780601f106107635761010080835404028352916020019161078e565b820191906000526020600020905b81548152906001019060200180831161077157829003601f168201915b50505050509050919050565b6107a261162c565b73ffffffffffffffffffffffffffffffffffffffff166107c061114d565b73ffffffffffffffffffffffffffffffffffffffff1614610816576040517f08c379a000000000000000000000000000000000000000000000000000000000815260040161080d90614ddf565b60405180910390fd5b6108228484848461164e565b50505050565b61083061162c565b73ffffffffffffffffffffffffffffffffffffffff168573ffffffffffffffffffffffffffffffffffffffff16148061087657506108758561087061162c565b6112f8565b5b6108b5576040517f08c379a00000000000000000000000000000000000000000000000000000000081526004016108ac90614d3f565b60405180910390fd5b6108c285858585856118b9565b5050505050565b7f000000000000000000000000000000000000000000000000000000000000000073ffffffffffffffffffffffffffffffffffffffff163073ffffffffffffffffffffffffffffffffffffffff161415610958576040517f08c379a000000000000000000000000000000000000000000000000000000000815260040161094f90614c9f565b60405180910390fd5b7f000000000000000000000000000000000000000000000000000000000000000073ffffffffffffffffffffffffffffffffffffffff16610997611c1c565b73ffffffffffffffffffffffffffffffffffffffff16146109ed576040517f08c379a00000000000000000000000000000000000000000000000000000000081526004016109e490614cdf565b60405180910390fd5b6109f681611c73565b610a7581600067ffffffffffffffff811115610a3b577f4e487b7100000000000000000000000000000000000000000000000000000000600052604160045260246000fd5b6040519080825280601f01601f191660200182016040528015610a6d5781602001600182028036833780820191505090505b506000611cf2565b50565b610a8061162c565b73ffffffffffffffffffffffffffffffffffffffff16610a9e61114d565b73ffffffffffffffffffffffffffffffffffffffff1614610af4576040517f08c379a0000000000000000000000000000000000000000000000000000000008152600401610aeb90614ddf565b60405180910390fd5b610afc611ec3565b565b60608151835114610b44576040517f08c379a0000000000000000000000000000000000000000000000000000000008152600401610b3b90614e3f565b60405180910390fd5b6000835167ffffffffffffffff811115610b87577f4e487b7100000000000000000000000000000000000000000000000000000000600052604160045260246000fd5b604051908082528060200260200182016040528015610bb55781602001602082028036833780820191505090505b50905060005b8451811015610ca457610c4e858281518110610c00577f4e487b7100000000000000000000000000000000000000000000000000000000600052603260045260246000fd5b6020026020010151858381518110610c41577f4e487b7100000000000000000000000000000000000000000000000000000000600052603260045260246000fd5b60200260200101516104d2565b828281518110610c87577f4e487b7100000000000000000000000000000000000000000000000000000000600052603260045260246000fd5b60200260200101818152505080610c9d906151ad565b9050610bbb565b508091505092915050565b7f000000000000000000000000000000000000000000000000000000000000000073ffffffffffffffffffffffffffffffffffffffff163073ffffffffffffffffffffffffffffffffffffffff161415610d3e576040517f08c379a0000000000000000000000000000000000000000000000000000000008152600401610d3590614c9f565b60405180910390fd5b7f000000000000000000000000000000000000000000000000000000000000000073ffffffffffffffffffffffffffffffffffffffff16610d7d611c1c565b73ffffffffffffffffffffffffffffffffffffffff1614610dd3576040517f08c379a0000000000000000000000000000000000000000000000000000000008152600401610dca90614cdf565b60405180910390fd5b610ddc82611c73565b610de882826001611cf2565b5050565b600060c960009054906101000a900460ff16905090565b610e0b61162c565b73ffffffffffffffffffffffffffffffffffffffff168373ffffffffffffffffffffffffffffffffffffffff161480610e515750610e5083610e4b61162c565b6112f8565b5b610e90576040517f08c379a0000000000000000000000000000000000000000000000000000000008152600401610e8790614cbf565b60405180910390fd5b610e9b838383611f65565b505050565b610ea861162c565b73ffffffffffffffffffffffffffffffffffffffff16610ec661114d565b73ffffffffffffffffffffffffffffffffffffffff1614610f1c576040517f08c379a0000000000000000000000000000000000000000000000000000000008152600401610f1390614ddf565b60405180910390fd5b610f266000612264565b565b610f3061162c565b73ffffffffffffffffffffffffffffffffffffffff16610f4e61114d565b73ffffffffffffffffffffffffffffffffffffffff1614610fa4576040517f08c379a0000000000000000000000000000000000000000000000000000000008152600401610f9b90614ddf565b60405180910390fd5b610fb08484848461232a565b50505050565b600060019054906101000a900460ff1680610fdc575060008054906101000a900460ff16155b61101b576040517f08c379a000000000000000000000000000000000000000000000000000000000815260040161101290614d5f565b60405180910390fd5b60008060019054906101000a900460ff16159050801561106b576001600060016101000a81548160ff02191690831515021790555060016000806101000a81548160ff0219169083151502179055505b611083604051806020016040528060008152506124c1565b61108b6125b4565b61109361269d565b61109b612786565b6110a3612877565b80156110c45760008060016101000a81548160ff0219169083151502179055505b50565b6110cf61162c565b73ffffffffffffffffffffffffffffffffffffffff166110ed61114d565b73ffffffffffffffffffffffffffffffffffffffff1614611143576040517f08c379a000000000000000000000000000000000000000000000000000000000815260040161113a90614ddf565b60405180910390fd5b61114b612960565b565b6000609760009054906101000a900473ffffffffffffffffffffffffffffffffffffffff16905090565b8173ffffffffffffffffffffffffffffffffffffffff1661119661162c565b73ffffffffffffffffffffffffffffffffffffffff1614156111ed576040517f08c379a00000000000000000000000000000000000000000000000000000000081526004016111e490614e1f565b60405180910390fd5b80606660006111fa61162c565b73ffffffffffffffffffffffffffffffffffffffff1673ffffffffffffffffffffffffffffffffffffffff16815260200190815260200160002060008473ffffffffffffffffffffffffffffffffffffffff1673ffffffffffffffffffffffffffffffffffffffff16815260200190815260200160002060006101000a81548160ff0219169083151502179055508173ffffffffffffffffffffffffffffffffffffffff166112a761162c565b73ffffffffffffffffffffffffffffffffffffffff167f17307eab39ab6107e8899845ad3d59bd9653f200f220920489ca2b5937696c31836040516112ec9190614b82565b60405180910390a35050565b6000606660008473ffffffffffffffffffffffffffffffffffffffff1673ffffffffffffffffffffffffffffffffffffffff16815260200190815260200160002060008373ffffffffffffffffffffffffffffffffffffffff1673ffffffffffffffffffffffffffffffffffffffff16815260200190815260200160002060009054906101000a900460ff16905092915050565b61139461162c565b73ffffffffffffffffffffffffffffffffffffffff168573ffffffffffffffffffffffffffffffffffffffff1614806113da57506113d9856113d461162c565b6112f8565b5b611419576040517f08c379a000000000000000000000000000000000000000000000000000000000815260040161141090614cbf565b60405180910390fd5b6114268585858585612a03565b5050505050565b61143561162c565b73ffffffffffffffffffffffffffffffffffffffff1661145361114d565b73ffffffffffffffffffffffffffffffffffffffff16146114a9576040517f08c379a00000000000000000000000000000000000000000000000000000000081526004016114a090614ddf565b60405180910390fd5b600073ffffffffffffffffffffffffffffffffffffffff168173ffffffffffffffffffffffffffffffffffffffff161415611519576040517f08c379a000000000000000000000000000000000000000000000000000000000815260040161151090614c5f565b60405180910390fd5b61152281612264565b50565b61152d61162c565b73ffffffffffffffffffffffffffffffffffffffff168373ffffffffffffffffffffffffffffffffffffffff16148061157357506115728361156d61162c565b6112f8565b5b6115b2576040517f08c379a00000000000000000000000000000000000000000000000000000000081526004016115a990614cbf565b60405180910390fd5b6115bd838383612c88565b505050565b60007f01ffc9a7000000000000000000000000000000000000000000000000000000007bffffffffffffffffffffffffffffffffffffffffffffffffffffffff1916827bffffffffffffffffffffffffffffffffffffffffffffffffffffffff1916149050919050565b600033905090565b806067908051906020019061164a929190613d18565b5050565b600073ffffffffffffffffffffffffffffffffffffffff168473ffffffffffffffffffffffffffffffffffffffff1614156116be576040517f08c379a00000000000000000000000000000000000000000000000000000000081526004016116b590614e7f565b60405180910390fd5b8151835114611702576040517f08c379a00000000000000000000000000000000000000000000000000000000081526004016116f990614e5f565b60405180910390fd5b600061170c61162c565b905061171d81600087878787612ea7565b60005b845181101561182357838181518110611762577f4e487b7100000000000000000000000000000000000000000000000000000000600052603260045260246000fd5b6020026020010151606560008784815181106117a7577f4e487b7100000000000000000000000000000000000000000000000000000000600052603260045260246000fd5b6020026020010151815260200190815260200160002060008873ffffffffffffffffffffffffffffffffffffffff1673ffffffffffffffffffffffffffffffffffffffff1681526020019081526020016000206000828254611809919061503e565b92505081905550808061181b906151ad565b915050611720565b508473ffffffffffffffffffffffffffffffffffffffff16600073ffffffffffffffffffffffffffffffffffffffff168273ffffffffffffffffffffffffffffffffffffffff167f4a39dc06d4c0dbc64b70af90fd698a233a518aa5d07e595d983b8c0526c8f7fb878760405161189b929190614b4b565b60405180910390a46118b281600087878787612f05565b5050505050565b81518351146118fd576040517f08c379a00000000000000000000000000000000000000000000000000000000081526004016118f490614e5f565b60405180910390fd5b600073ffffffffffffffffffffffffffffffffffffffff168473ffffffffffffffffffffffffffffffffffffffff16141561196d576040517f08c379a000000000000000000000000000000000000000000000000000000000815260040161196490614d1f565b60405180910390fd5b600061197761162c565b9050611987818787878787612ea7565b60005b8451811015611b875760008582815181106119ce577f4e487b7100000000000000000000000000000000000000000000000000000000600052603260045260246000fd5b602002602001015190506000858381518110611a13577f4e487b7100000000000000000000000000000000000000000000000000000000600052603260045260246000fd5b6020026020010151905060006065600084815260200190815260200160002060008b73ffffffffffffffffffffffffffffffffffffffff1673ffffffffffffffffffffffffffffffffffffffff16815260200190815260200160002054905081811015611ab5576040517f08c379a0000000000000000000000000000000000000000000000000000000008152600401611aac90614d9f565b60405180910390fd5b8181036065600085815260200190815260200160002060008c73ffffffffffffffffffffffffffffffffffffffff1673ffffffffffffffffffffffffffffffffffffffff16815260200190815260200160002081905550816065600085815260200190815260200160002060008b73ffffffffffffffffffffffffffffffffffffffff1673ffffffffffffffffffffffffffffffffffffffff1681526020019081526020016000206000828254611b6c919061503e565b9250508190555050505080611b80906151ad565b905061198a565b508473ffffffffffffffffffffffffffffffffffffffff168673ffffffffffffffffffffffffffffffffffffffff168273ffffffffffffffffffffffffffffffffffffffff167f4a39dc06d4c0dbc64b70af90fd698a233a518aa5d07e595d983b8c0526c8f7fb8787604051611bfe929190614b4b565b60405180910390a4611c14818787878787612f05565b505050505050565b6000611c4a7f360894a13ba1a3210667c828492db98dca3e2076cc3735a920a3ca505d382bbc60001b6130ec565b60000160009054906101000a900473ffffffffffffffffffffffffffffffffffffffff16905090565b611c7b61162c565b73ffffffffffffffffffffffffffffffffffffffff16611c9961114d565b73ffffffffffffffffffffffffffffffffffffffff1614611cef576040517f08c379a0000000000000000000000000000000000000000000000000000000008152600401611ce690614ddf565b60405180910390fd5b50565b6000611cfc611c1c565b9050611d07846130f6565b600083511180611d145750815b15611d2557611d2384846131af565b505b6000611d537f4910fdfa16fed3260ed0e7147f7cc6da11a60208b5b9406d12a635614ffd914360001b613293565b90508060000160009054906101000a900460ff16611ebc5760018160000160006101000a81548160ff021916908315150217905550611e1f8583604051602401611d9d9190614a4c565b6040516020818303038152906040527f3659cfe6000000000000000000000000000000000000000000000000000000007bffffffffffffffffffffffffffffffffffffffffffffffffffffffff19166020820180517bffffffffffffffffffffffffffffffffffffffffffffffffffffffff83818316178352505050506131af565b5060008160000160006101000a81548160ff021916908315150217905550611e45611c1c565b73ffffffffffffffffffffffffffffffffffffffff168273ffffffffffffffffffffffffffffffffffffffff1614611eb2576040517f08c379a0000000000000000000000000000000000000000000000000000000008152600401611ea990614c3f565b60405180910390fd5b611ebb8561329d565b5b5050505050565b611ecb610dec565b611f0a576040517f08c379a0000000000000000000000000000000000000000000000000000000008152600401611f0190614bff565b60405180910390fd5b600060c960006101000a81548160ff0219169083151502179055507f5db9ee0a495bf2e6ff9c91a7834c1ba4fdd244a5e8aa4e537bd38aeae4b073aa611f4e61162c565b604051611f5b9190614a4c565b60405180910390a1565b600073ffffffffffffffffffffffffffffffffffffffff168373ffffffffffffffffffffffffffffffffffffffff161415611fd5576040517f08c379a0000000000000000000000000000000000000000000000000000000008152600401611fcc90614d7f565b60405180910390fd5b8051825114612019576040517f08c379a000000000000000000000000000000000000000000000000000000000815260040161201090614e5f565b60405180910390fd5b600061202361162c565b905061204381856000868660405180602001604052806000815250612ea7565b60005b83518110156121de57600084828151811061208a577f4e487b7100000000000000000000000000000000000000000000000000000000600052603260045260246000fd5b6020026020010151905060008483815181106120cf577f4e487b7100000000000000000000000000000000000000000000000000000000600052603260045260246000fd5b6020026020010151905060006065600084815260200190815260200160002060008973ffffffffffffffffffffffffffffffffffffffff1673ffffffffffffffffffffffffffffffffffffffff16815260200190815260200160002054905081811015612171576040517f08c379a000000000000000000000000000000000000000000000000000000000815260040161216890614c7f565b60405180910390fd5b8181036065600085815260200190815260200160002060008a73ffffffffffffffffffffffffffffffffffffffff1673ffffffffffffffffffffffffffffffffffffffff1681526020019081526020016000208190555050505080806121d6906151ad565b915050612046565b50600073ffffffffffffffffffffffffffffffffffffffff168473ffffffffffffffffffffffffffffffffffffffff168273ffffffffffffffffffffffffffffffffffffffff167f4a39dc06d4c0dbc64b70af90fd698a233a518aa5d07e595d983b8c0526c8f7fb8686604051612256929190614b4b565b60405180910390a450505050565b6000609760009054906101000a900473ffffffffffffffffffffffffffffffffffffffff16905081609760006101000a81548173ffffffffffffffffffffffffffffffffffffffff021916908373ffffffffffffffffffffffffffffffffffffffff1602179055508173ffffffffffffffffffffffffffffffffffffffff168173ffffffffffffffffffffffffffffffffffffffff167f8be0079c531659141344cd1fd0a4f28419497f9722a3daafe3b4186f6b6457e060405160405180910390a35050565b600073ffffffffffffffffffffffffffffffffffffffff168473ffffffffffffffffffffffffffffffffffffffff16141561239a576040517f08c379a000000000000000000000000000000000000000000000000000000000815260040161239190614e7f565b60405180910390fd5b60006123a461162c565b90506123c5816000876123b6886132ec565b6123bf886132ec565b87612ea7565b826065600086815260200190815260200160002060008773ffffffffffffffffffffffffffffffffffffffff1673ffffffffffffffffffffffffffffffffffffffff1681526020019081526020016000206000828254612425919061503e565b925050819055508473ffffffffffffffffffffffffffffffffffffffff16600073ffffffffffffffffffffffffffffffffffffffff168273ffffffffffffffffffffffffffffffffffffffff167fc3d58168c5ae7397731d063d5bbf3d657854427343f4c083240f7aacaa2d0f6287876040516124a3929190614eba565b60405180910390a46124ba816000878787876133b2565b5050505050565b600060019054906101000a900460ff16806124e7575060008054906101000a900460ff16155b612526576040517f08c379a000000000000000000000000000000000000000000000000000000000815260040161251d90614d5f565b60405180910390fd5b60008060019054906101000a900460ff161590508015612576576001600060016101000a81548160ff02191690831515021790555060016000806101000a81548160ff0219169083151502179055505b61257e613599565b612586613672565b61258f8261374b565b80156125b05760008060016101000a81548160ff0219169083151502179055505b5050565b600060019054906101000a900460ff16806125da575060008054906101000a900460ff16155b612619576040517f08c379a000000000000000000000000000000000000000000000000000000000815260040161261090614d5f565b60405180910390fd5b60008060019054906101000a900460ff161590508015612669576001600060016101000a81548160ff02191690831515021790555060016000806101000a81548160ff0219169083151502179055505b612671613599565b61267961382e565b801561269a5760008060016101000a81548160ff0219169083151502179055505b50565b600060019054906101000a900460ff16806126c3575060008054906101000a900460ff16155b612702576040517f08c379a00000000000000000000000000000000000000000000000000000000081526004016126f990614d5f565b60405180910390fd5b60008060019054906101000a900460ff161590508015612752576001600060016101000a81548160ff02191690831515021790555060016000806101000a81548160ff0219169083151502179055505b61275a613599565b612762613917565b80156127835760008060016101000a81548160ff0219169083151502179055505b50565b600060019054906101000a900460ff16806127ac575060008054906101000a900460ff16155b6127eb576040517f08c379a00000000000000000000000000000000000000000000000000000000081526004016127e290614d5f565b60405180910390fd5b60008060019054906101000a900460ff16159050801561283b576001600060016101000a81548160ff02191690831515021790555060016000806101000a81548160ff0219169083151502179055505b612843613599565b61284b613672565b612853613a0b565b80156128745760008060016101000a81548160ff0219169083151502179055505b50565b600060019054906101000a900460ff168061289d575060008054906101000a900460ff16155b6128dc576040517f08c379a00000000000000000000000000000000000000000000000000000000081526004016128d390614d5f565b60405180910390fd5b60008060019054906101000a900460ff16159050801561292c576001600060016101000a81548160ff02191690831515021790555060016000806101000a81548160ff0219169083151502179055505b612934613ae4565b61293c613bbd565b801561295d5760008060016101000a81548160ff0219169083151502179055505b50565b612968610dec565b156129a8576040517f08c379a000000000000000000000000000000000000000000000000000000000815260040161299f90614cff565b60405180910390fd5b600160c960006101000a81548160ff0219169083151502179055507f62e78cea01bee320cd4e420270b5ea74000d11b0c9f74754ebdbfc544b05a2586129ec61162c565b6040516129f99190614a4c565b60405180910390a1565b600073ffffffffffffffffffffffffffffffffffffffff168473ffffffffffffffffffffffffffffffffffffffff161415612a73576040517f08c379a0000000000000000000000000000000000000000000000000000000008152600401612a6a90614d1f565b60405180910390fd5b6000612a7d61162c565b9050612a9d818787612a8e886132ec565b612a97886132ec565b87612ea7565b60006065600086815260200190815260200160002060008873ffffffffffffffffffffffffffffffffffffffff1673ffffffffffffffffffffffffffffffffffffffff16815260200190815260200160002054905083811015612b35576040517f08c379a0000000000000000000000000000000000000000000000000000000008152600401612b2c90614d9f565b60405180910390fd5b8381036065600087815260200190815260200160002060008973ffffffffffffffffffffffffffffffffffffffff1673ffffffffffffffffffffffffffffffffffffffff16815260200190815260200160002081905550836065600087815260200190815260200160002060008873ffffffffffffffffffffffffffffffffffffffff1673ffffffffffffffffffffffffffffffffffffffff1681526020019081526020016000206000828254612bec919061503e565b925050819055508573ffffffffffffffffffffffffffffffffffffffff168773ffffffffffffffffffffffffffffffffffffffff168373ffffffffffffffffffffffffffffffffffffffff167fc3d58168c5ae7397731d063d5bbf3d657854427343f4c083240f7aacaa2d0f628888604051612c69929190614eba565b60405180910390a4612c7f8288888888886133b2565b50505050505050565b600073ffffffffffffffffffffffffffffffffffffffff168373ffffffffffffffffffffffffffffffffffffffff161415612cf8576040517f08c379a0000000000000000000000000000000000000000000000000000000008152600401612cef90614d7f565b60405180910390fd5b6000612d0261162c565b9050612d3281856000612d14876132ec565b612d1d876132ec565b60405180602001604052806000815250612ea7565b60006065600085815260200190815260200160002060008673ffffffffffffffffffffffffffffffffffffffff1673ffffffffffffffffffffffffffffffffffffffff16815260200190815260200160002054905082811015612dca576040517f08c379a0000000000000000000000000000000000000000000000000000000008152600401612dc190614c7f565b60405180910390fd5b8281036065600086815260200190815260200160002060008773ffffffffffffffffffffffffffffffffffffffff1673ffffffffffffffffffffffffffffffffffffffff16815260200190815260200160002081905550600073ffffffffffffffffffffffffffffffffffffffff168573ffffffffffffffffffffffffffffffffffffffff168373ffffffffffffffffffffffffffffffffffffffff167fc3d58168c5ae7397731d063d5bbf3d657854427343f4c083240f7aacaa2d0f628787604051612e98929190614eba565b60405180910390a45050505050565b612eaf610dec565b15612eef576040517f08c379a0000000000000000000000000000000000000000000000000000000008152600401612ee690614cff565b60405180910390fd5b612efd868686868686613c96565b505050505050565b612f248473ffffffffffffffffffffffffffffffffffffffff16613c9e565b156130e4578373ffffffffffffffffffffffffffffffffffffffff1663bc197c8187878686866040518663ffffffff1660e01b8152600401612f6a959493929190614a67565b602060405180830381600087803b158015612f8457600080fd5b505af1925050508015612fb557506040513d601f19601f82011682018060405250810190612fb29190614528565b60015b61305b57612fc1615283565b806308c379a0141561301e5750612fd661596a565b80612fe15750613020565b806040517f08c379a00000000000000000000000000000000000000000000000000000000081526004016130159190614b9d565b60405180910390fd5b505b6040517f08c379a000000000000000000000000000000000000000000000000000000000815260040161305290614bbf565b60405180910390fd5b63bc197c8160e01b7bffffffffffffffffffffffffffffffffffffffffffffffffffffffff1916817bffffffffffffffffffffffffffffffffffffffffffffffffffffffff1916146130e2576040517f08c379a00000000000000000000000000000000000000000000000000000000081526004016130d990614bdf565b60405180910390fd5b505b505050505050565b6000819050919050565b6130ff81613c9e565b61313e576040517f08c379a000000000000000000000000000000000000000000000000000000000815260040161313590614dbf565b60405180910390fd5b8061316b7f360894a13ba1a3210667c828492db98dca3e2076cc3735a920a3ca505d382bbc60001b6130ec565b60000160006101000a81548173ffffffffffffffffffffffffffffffffffffffff021916908373ffffffffffffffffffffffffffffffffffffffff16021790555050565b60606131ba83613c9e565b6131f9576040517f08c379a00000000000000000000000000000000000000000000000000000000081526004016131f090614dff565b60405180910390fd5b6000808473ffffffffffffffffffffffffffffffffffffffff16846040516132219190614a35565b600060405180830381855af49150503d806000811461325c576040519150601f19603f3d011682016040523d82523d6000602084013e613261565b606091505b50915091506132898282604051806060016040528060278152602001615a5d60279139613cb1565b9250505092915050565b6000819050919050565b6132a6816130f6565b8073ffffffffffffffffffffffffffffffffffffffff167fbc7cd75a20ee27fd9adebab32041f755214dbc6bffa90cc0225b39da2e5c2d3b60405160405180910390a250565b60606000600167ffffffffffffffff811115613331577f4e487b7100000000000000000000000000000000000000000000000000000000600052604160045260246000fd5b60405190808252806020026020018201604052801561335f5781602001602082028036833780820191505090505b509050828160008151811061339d577f4e487b7100000000000000000000000000000000000000000000000000000000600052603260045260246000fd5b60200260200101818152505080915050919050565b6133d18473ffffffffffffffffffffffffffffffffffffffff16613c9e565b15613591578373ffffffffffffffffffffffffffffffffffffffff1663f23a6e6187878686866040518663ffffffff1660e01b8152600401613417959493929190614acf565b602060405180830381600087803b15801561343157600080fd5b505af192505050801561346257506040513d601f19601f8201168201806040525081019061345f9190614528565b60015b6135085761346e615283565b806308c379a014156134cb575061348361596a565b8061348e57506134cd565b806040517f08c379a00000000000000000000000000000000000000000000000000000000081526004016134c29190614b9d565b60405180910390fd5b505b6040517f08c379a00000000000000000000000000000000000000000000000000000000081526004016134ff90614bbf565b60405180910390fd5b63f23a6e6160e01b7bffffffffffffffffffffffffffffffffffffffffffffffffffffffff1916817bffffffffffffffffffffffffffffffffffffffffffffffffffffffff19161461358f576040517f08c379a000000000000000000000000000000000000000000000000000000000815260040161358690614bdf565b60405180910390fd5b505b505050505050565b600060019054906101000a900460ff16806135bf575060008054906101000a900460ff16155b6135fe576040517f08c379a00000000000000000000000000000000000000000000000000000000081526004016135f590614d5f565b60405180910390fd5b60008060019054906101000a900460ff16159050801561364e576001600060016101000a81548160ff02191690831515021790555060016000806101000a81548160ff0219169083151502179055505b801561366f5760008060016101000a81548160ff0219169083151502179055505b50565b600060019054906101000a900460ff1680613698575060008054906101000a900460ff16155b6136d7576040517f08c379a00000000000000000000000000000000000000000000000000000000081526004016136ce90614d5f565b60405180910390fd5b60008060019054906101000a900460ff161590508015613727576001600060016101000a81548160ff02191690831515021790555060016000806101000a81548160ff0219169083151502179055505b80156137485760008060016101000a81548160ff0219169083151502179055505b50565b600060019054906101000a900460ff1680613771575060008054906101000a900460ff16155b6137b0576040517f08c379a00000000000000000000000000000000000000000000000000000000081526004016137a790614d5f565b60405180910390fd5b60008060019054906101000a900460ff161590508015613800576001600060016101000a81548160ff02191690831515021790555060016000806101000a81548160ff0219169083151502179055505b61380982611634565b801561382a5760008060016101000a81548160ff0219169083151502179055505b5050565b600060019054906101000a900460ff1680613854575060008054906101000a900460ff16155b613893576040517f08c379a000000000000000000000000000000000000000000000000000000000815260040161388a90614d5f565b60405180910390fd5b60008060019054906101000a900460ff1615905080156138e3576001600060016101000a81548160ff02191690831515021790555060016000806101000a81548160ff0219169083151502179055505b6138f36138ee61162c565b612264565b80156139145760008060016101000a81548160ff0219169083151502179055505b50565b600060019054906101000a900460ff168061393d575060008054906101000a900460ff16155b61397c576040517f08c379a000000000000000000000000000000000000000000000000000000000815260040161397390614d5f565b60405180910390fd5b60008060019054906101000a900460ff1615905080156139cc576001600060016101000a81548160ff02191690831515021790555060016000806101000a81548160ff0219169083151502179055505b600060c960006101000a81548160ff0219169083151502179055508015613a085760008060016101000a81548160ff0219169083151502179055505b50565b600060019054906101000a900460ff1680613a31575060008054906101000a900460ff16155b613a70576040517f08c379a0000000000000000000000000000000000000000000000000000000008152600401613a6790614d5f565b60405180910390fd5b60008060019054906101000a900460ff161590508015613ac0576001600060016101000a81548160ff02191690831515021790555060016000806101000a81548160ff0219169083151502179055505b8015613ae15760008060016101000a81548160ff0219169083151502179055505b50565b600060019054906101000a900460ff1680613b0a575060008054906101000a900460ff16155b613b49576040517f08c379a0000000000000000000000000000000000000000000000000000000008152600401613b4090614d5f565b60405180910390fd5b60008060019054906101000a900460ff161590508015613b99576001600060016101000a81548160ff02191690831515021790555060016000806101000a81548160ff0219169083151502179055505b8015613bba5760008060016101000a81548160ff0219169083151502179055505b50565b600060019054906101000a900460ff1680613be3575060008054906101000a900460ff16155b613c22576040517f08c379a0000000000000000000000000000000000000000000000000000000008152600401613c1990614d5f565b60405180910390fd5b60008060019054906101000a900460ff161590508015613c72576001600060016101000a81548160ff02191690831515021790555060016000806101000a81548160ff0219169083151502179055505b8015613c935760008060016101000a81548160ff0219169083151502179055505b50565b505050505050565b600080823b905060008111915050919050565b60608315613cc157829050613d11565b600083511115613cd45782518084602001fd5b816040517f08c379a0000000000000000000000000000000000000000000000000000000008152600401613d089190614b9d565b60405180910390fd5b9392505050565b828054613d249061514a565b90600052602060002090601f016020900481019282613d465760008555613d8d565b82601f10613d5f57805160ff1916838001178555613d8d565b82800160010185558215613d8d579182015b82811115613d8c578251825591602001919060010190613d71565b5b509050613d9a9190613d9e565b5090565b5b80821115613db7576000816000905550600101613d9f565b5090565b6000613dce613dc984614f08565b614ee3565b90508083825260208201905082856020860282011115613ded57600080fd5b60005b85811015613e1d5781613e038882613f0f565b845260208401935060208301925050600181019050613df0565b5050509392505050565b6000613e3a613e3584614f34565b614ee3565b90508083825260208201905082856020860282011115613e5957600080fd5b60005b85811015613e895781613e6f888261400b565b845260208401935060208301925050600181019050613e5c565b5050509392505050565b6000613ea6613ea184614f60565b614ee3565b905082815260208101848484011115613ebe57600080fd5b613ec9848285615108565b509392505050565b6000613ee4613edf84614f91565b614ee3565b905082815260208101848484011115613efc57600080fd5b613f07848285615108565b509392505050565b600081359050613f1e81615a00565b92915050565b600082601f830112613f3557600080fd5b8135613f45848260208601613dbb565b91505092915050565b600082601f830112613f5f57600080fd5b8135613f6f848260208601613e27565b91505092915050565b600081359050613f8781615a17565b92915050565b600081359050613f9c81615a2e565b92915050565b600081519050613fb181615a2e565b92915050565b600082601f830112613fc857600080fd5b8135613fd8848260208601613e93565b91505092915050565b600082601f830112613ff257600080fd5b8135614002848260208601613ed1565b91505092915050565b60008135905061401a81615a45565b92915050565b60006020828403121561403257600080fd5b600061404084828501613f0f565b91505092915050565b6000806040838503121561405c57600080fd5b600061406a85828601613f0f565b925050602061407b85828601613f0f565b9150509250929050565b600080600080600060a0868803121561409d57600080fd5b60006140ab88828901613f0f565b95505060206140bc88828901613f0f565b945050604086013567ffffffffffffffff8111156140d957600080fd5b6140e588828901613f4e565b935050606086013567ffffffffffffffff81111561410257600080fd5b61410e88828901613f4e565b925050608086013567ffffffffffffffff81111561412b57600080fd5b61413788828901613fb7565b9150509295509295909350565b600080600080600060a0868803121561415c57600080fd5b600061416a88828901613f0f565b955050602061417b88828901613f0f565b945050604061418c8882890161400b565b935050606061419d8882890161400b565b925050608086013567ffffffffffffffff8111156141ba57600080fd5b6141c688828901613fb7565b9150509295509295909350565b6000806000606084860312156141e857600080fd5b60006141f686828701613f0f565b935050602084013567ffffffffffffffff81111561421357600080fd5b61421f86828701613f4e565b925050604084013567ffffffffffffffff81111561423c57600080fd5b61424886828701613f4e565b9150509250925092565b6000806000806080858703121561426857600080fd5b600061427687828801613f0f565b945050602085013567ffffffffffffffff81111561429357600080fd5b61429f87828801613f4e565b935050604085013567ffffffffffffffff8111156142bc57600080fd5b6142c887828801613f4e565b925050606085013567ffffffffffffffff8111156142e557600080fd5b6142f187828801613fb7565b91505092959194509250565b6000806040838503121561431057600080fd5b600061431e85828601613f0f565b925050602061432f85828601613f78565b9150509250929050565b6000806040838503121561434c57600080fd5b600061435a85828601613f0f565b925050602083013567ffffffffffffffff81111561437757600080fd5b61438385828601613fb7565b9150509250929050565b600080604083850312156143a057600080fd5b60006143ae85828601613f0f565b92505060206143bf8582860161400b565b9150509250929050565b6000806000606084860312156143de57600080fd5b60006143ec86828701613f0f565b93505060206143fd8682870161400b565b925050604061440e8682870161400b565b9150509250925092565b6000806000806080858703121561442e57600080fd5b600061443c87828801613f0f565b945050602061444d8782880161400b565b935050604061445e8782880161400b565b925050606085013567ffffffffffffffff81111561447b57600080fd5b61448787828801613fb7565b91505092959194509250565b600080604083850312156144a657600080fd5b600083013567ffffffffffffffff8111156144c057600080fd5b6144cc85828601613f24565b925050602083013567ffffffffffffffff8111156144e957600080fd5b6144f585828601613f4e565b9150509250929050565b60006020828403121561451157600080fd5b600061451f84828501613f8d565b91505092915050565b60006020828403121561453a57600080fd5b600061454884828501613fa2565b91505092915050565b60006020828403121561456357600080fd5b600082013567ffffffffffffffff81111561457d57600080fd5b61458984828501613fe1565b91505092915050565b6000602082840312156145a457600080fd5b60006145b28482850161400b565b91505092915050565b60006145c78383614a17565b60208301905092915050565b6145dc81615094565b82525050565b60006145ed82614fd2565b6145f78185615000565b935061460283614fc2565b8060005b8381101561463357815161461a88826145bb565b975061462583614ff3565b925050600181019050614606565b5085935050505092915050565b614649816150a6565b82525050565b600061465a82614fdd565b6146648185615011565b9350614674818560208601615117565b61467d816152a5565b840191505092915050565b600061469382614fdd565b61469d8185615022565b93506146ad818560208601615117565b80840191505092915050565b60006146c482614fe8565b6146ce818561502d565b93506146de818560208601615117565b6146e7816152a5565b840191505092915050565b60006146ff60348361502d565b915061470a826152c3565b604082019050919050565b600061472260288361502d565b915061472d82615312565b604082019050919050565b600061474560148361502d565b915061475082615361565b602082019050919050565b6000614768602b8361502d565b91506147738261538a565b604082019050919050565b600061478b602f8361502d565b9150614796826153d9565b604082019050919050565b60006147ae60268361502d565b91506147b982615428565b604082019050919050565b60006147d160248361502d565b91506147dc82615477565b604082019050919050565b60006147f4602c8361502d565b91506147ff826154c6565b604082019050919050565b600061481760298361502d565b915061482282615515565b604082019050919050565b600061483a602c8361502d565b915061484582615564565b604082019050919050565b600061485d60108361502d565b9150614868826155b3565b602082019050919050565b600061488060258361502d565b915061488b826155dc565b604082019050919050565b60006148a360328361502d565b91506148ae8261562b565b604082019050919050565b60006148c6602e8361502d565b91506148d18261567a565b604082019050919050565b60006148e960238361502d565b91506148f4826156c9565b604082019050919050565b600061490c602a8361502d565b915061491782615718565b604082019050919050565b600061492f602d8361502d565b915061493a82615767565b604082019050919050565b600061495260208361502d565b915061495d826157b6565b602082019050919050565b600061497560268361502d565b9150614980826157df565b604082019050919050565b600061499860298361502d565b91506149a38261582e565b604082019050919050565b60006149bb60298361502d565b91506149c68261587d565b604082019050919050565b60006149de60288361502d565b91506149e9826158cc565b604082019050919050565b6000614a0160218361502d565b9150614a0c8261591b565b604082019050919050565b614a20816150fe565b82525050565b614a2f816150fe565b82525050565b6000614a418284614688565b915081905092915050565b6000602082019050614a6160008301846145d3565b92915050565b600060a082019050614a7c60008301886145d3565b614a8960208301876145d3565b8181036040830152614a9b81866145e2565b90508181036060830152614aaf81856145e2565b90508181036080830152614ac3818461464f565b90509695505050505050565b600060a082019050614ae460008301886145d3565b614af160208301876145d3565b614afe6040830186614a26565b614b0b6060830185614a26565b8181036080830152614b1d818461464f565b90509695505050505050565b60006020820190508181036000830152614b4381846145e2565b905092915050565b60006040820190508181036000830152614b6581856145e2565b90508181036020830152614b7981846145e2565b90509392505050565b6000602082019050614b976000830184614640565b92915050565b60006020820190508181036000830152614bb781846146b9565b905092915050565b60006020820190508181036000830152614bd8816146f2565b9050919050565b60006020820190508181036000830152614bf881614715565b9050919050565b60006020820190508181036000830152614c1881614738565b9050919050565b60006020820190508181036000830152614c388161475b565b9050919050565b60006020820190508181036000830152614c588161477e565b9050919050565b60006020820190508181036000830152614c78816147a1565b9050919050565b60006020820190508181036000830152614c98816147c4565b9050919050565b60006020820190508181036000830152614cb8816147e7565b9050919050565b60006020820190508181036000830152614cd88161480a565b9050919050565b60006020820190508181036000830152614cf88161482d565b9050919050565b60006020820190508181036000830152614d1881614850565b9050919050565b60006020820190508181036000830152614d3881614873565b9050919050565b60006020820190508181036000830152614d5881614896565b9050919050565b60006020820190508181036000830152614d78816148b9565b9050919050565b60006020820190508181036000830152614d98816148dc565b9050919050565b60006020820190508181036000830152614db8816148ff565b9050919050565b60006020820190508181036000830152614dd881614922565b9050919050565b60006020820190508181036000830152614df881614945565b9050919050565b60006020820190508181036000830152614e1881614968565b9050919050565b60006020820190508181036000830152614e388161498b565b9050919050565b60006020820190508181036000830152614e58816149ae565b9050919050565b60006020820190508181036000830152614e78816149d1565b9050919050565b60006020820190508181036000830152614e98816149f4565b9050919050565b6000602082019050614eb46000830184614a26565b92915050565b6000604082019050614ecf6000830185614a26565b614edc6020830184614a26565b9392505050565b6000614eed614efe565b9050614ef9828261517c565b919050565b6000604051905090565b600067ffffffffffffffff821115614f2357614f22615254565b5b602082029050602081019050919050565b600067ffffffffffffffff821115614f4f57614f4e615254565b5b602082029050602081019050919050565b600067ffffffffffffffff821115614f7b57614f7a615254565b5b614f84826152a5565b9050602081019050919050565b600067ffffffffffffffff821115614fac57614fab615254565b5b614fb5826152a5565b9050602081019050919050565b6000819050602082019050919050565b600081519050919050565b600081519050919050565b600081519050919050565b6000602082019050919050565b600082825260208201905092915050565b600082825260208201905092915050565b600081905092915050565b600082825260208201905092915050565b6000615049826150fe565b9150615054836150fe565b9250827fffffffffffffffffffffffffffffffffffffffffffffffffffffffffffffffff03821115615089576150886151f6565b5b828201905092915050565b600061509f826150de565b9050919050565b60008115159050919050565b60007fffffffff0000000000000000000000000000000000000000000000000000000082169050919050565b600073ffffffffffffffffffffffffffffffffffffffff82169050919050565b6000819050919050565b82818337600083830152505050565b60005b8381101561513557808201518184015260208101905061511a565b83811115615144576000848401525b50505050565b6000600282049050600182168061516257607f821691505b6020821081141561517657615175615225565b5b50919050565b615185826152a5565b810181811067ffffffffffffffff821117156151a4576151a3615254565b5b80604052505050565b60006151b8826150fe565b91507fffffffffffffffffffffffffffffffffffffffffffffffffffffffffffffffff8214156151eb576151ea6151f6565b5b600182019050919050565b7f4e487b7100000000000000000000000000000000000000000000000000000000600052601160045260246000fd5b7f4e487b7100000000000000000000000000000000000000000000000000000000600052602260045260246000fd5b7f4e487b7100000000000000000000000000000000000000000000000000000000600052604160045260246000fd5b600060033d11156152a25760046000803e61529f6000516152b6565b90505b90565b6000601f19601f8301169050919050565b60008160e01c9050919050565b7f455243313135353a207472616e7366657220746f206e6f6e204552433131353560008201527f526563656976657220696d706c656d656e746572000000000000000000000000602082015250565b7f455243313135353a204552433131353552656365697665722072656a6563746560008201527f6420746f6b656e73000000000000000000000000000000000000000000000000602082015250565b7f5061757361626c653a206e6f7420706175736564000000000000000000000000600082015250565b7f455243313135353a2062616c616e636520717565727920666f7220746865207a60008201527f65726f2061646472657373000000000000000000000000000000000000000000602082015250565b7f45524331393637557067726164653a207570677261646520627265616b73206660008201527f7572746865722075706772616465730000000000000000000000000000000000602082015250565b7f4f776e61626c653a206e6577206f776e657220697320746865207a65726f206160008201527f6464726573730000000000000000000000000000000000000000000000000000602082015250565b7f455243313135353a206275726e20616d6f756e7420657863656564732062616c60008201527f616e636500000000000000000000000000000000000000000000000000000000602082015250565b7f46756e6374696f6e206d7573742062652063616c6c6564207468726f7567682060008201527f64656c656761746563616c6c0000000000000000000000000000000000000000602082015250565b7f455243313135353a2063616c6c6572206973206e6f74206f776e6572206e6f7260008201527f20617070726f7665640000000000000000000000000000000000000000000000602082015250565b7f46756e6374696f6e206d7573742062652063616c6c6564207468726f7567682060008201527f6163746976652070726f78790000000000000000000000000000000000000000602082015250565b7f5061757361626c653a2070617573656400000000000000000000000000000000600082015250565b7f455243313135353a207472616e7366657220746f20746865207a65726f20616460008201527f6472657373000000000000000000000000000000000000000000000000000000602082015250565b7f455243313135353a207472616e736665722063616c6c6572206973206e6f742060008201527f6f776e6572206e6f7220617070726f7665640000000000000000000000000000602082015250565b7f496e697469616c697a61626c653a20636f6e747261637420697320616c72656160008201527f647920696e697469616c697a6564000000000000000000000000000000000000602082015250565b7f455243313135353a206275726e2066726f6d20746865207a65726f206164647260008201527f6573730000000000000000000000000000000000000000000000000000000000602082015250565b7f455243313135353a20696e73756666696369656e742062616c616e636520666f60008201527f72207472616e7366657200000000000000000000000000000000000000000000602082015250565b7f455243313936373a206e657720696d706c656d656e746174696f6e206973206e60008201527f6f74206120636f6e747261637400000000000000000000000000000000000000602082015250565b7f4f776e61626c653a2063616c6c6572206973206e6f7420746865206f776e6572600082015250565b7f416464726573733a2064656c65676174652063616c6c20746f206e6f6e2d636f60008201527f6e74726163740000000000000000000000000000000000000000000000000000602082015250565b7f455243313135353a2073657474696e6720617070726f76616c2073746174757360008201527f20666f722073656c660000000000000000000000000000000000000000000000602082015250565b7f455243313135353a206163636f756e747320616e6420696473206c656e67746860008201527f206d69736d617463680000000000000000000000000000000000000000000000602082015250565b7f455243313135353a2069647320616e6420616d6f756e7473206c656e6774682060008201527f6d69736d61746368000000000000000000000000000000000000000000000000602082015250565b7f455243313135353a206d696e7420746f20746865207a65726f2061646472657360008201527f7300000000000000000000000000000000000000000000000000000000000000602082015250565b600060443d101561597a576159fd565b615982614efe565b60043d036004823e80513d602482011167ffffffffffffffff821117156159aa5750506159fd565b808201805167ffffffffffffffff8111156159c857505050506159fd565b80602083010160043d0385018111156159e55750505050506159fd565b6159f48260200185018661517c565b82955050505050505b90565b615a0981615094565b8114615a1457600080fd5b50565b615a20816150a6565b8114615a2b57600080fd5b50565b615a37816150b2565b8114615a4257600080fd5b50565b615a4e816150fe565b8114615a5957600080fd5b5056fe416464726573733a206c6f772d6c6576656c2064656c65676174652063616c6c206661696c6564a26469706673582212203effaa440b753250fefff6d3bbb792bda38a935a8adb3d92d8cd5060be45af0d64736f6c63430008020033",
  "immutableReferences": {
    "612": [
      {
        "length": 32,
        "start": 2251
      },
      {
        "length": 32,
        "start": 2394
      },
      {
        "length": 32,
        "start": 3249
      },
      {
        "length": 32,
        "start": 3392
      }
    ]
  },
  "source": "// SPDX-License-Identifier: MIT\r\npragma solidity ^0.8.2;\r\n\r\nimport \"@openzeppelin/contracts-upgradeable/token/ERC1155/ERC1155Upgradeable.sol\";\r\nimport \"@openzeppelin/contracts-upgradeable/access/OwnableUpgradeable.sol\";\r\nimport \"@openzeppelin/contracts-upgradeable/security/PausableUpgradeable.sol\";\r\nimport \"@openzeppelin/contracts-upgradeable/token/ERC1155/extensions/ERC1155BurnableUpgradeable.sol\";\r\nimport \"@openzeppelin/contracts-upgradeable/proxy/utils/Initializable.sol\";\r\nimport \"@openzeppelin/contracts-upgradeable/proxy/utils/UUPSUpgradeable.sol\";\r\n\r\ncontract ZeNFT is Initializable, ERC1155Upgradeable, OwnableUpgradeable, PausableUpgradeable, ERC1155BurnableUpgradeable, UUPSUpgradeable {\r\n    function initialize() initializer public {\r\n        __ERC1155_init(\"\");\r\n        __Ownable_init();\r\n        __Pausable_init();\r\n        __ERC1155Burnable_init();\r\n        __UUPSUpgradeable_init();\r\n    }\r\n\r\n    function setURI(string memory newuri) public onlyOwner {\r\n        _setURI(newuri);\r\n    }\r\n\r\n    function pause() public onlyOwner {\r\n        _pause();\r\n    }\r\n\r\n    function unpause() public onlyOwner {\r\n        _unpause();\r\n    }\r\n\r\n    function mint(address account, uint256 id, uint256 amount, bytes memory data) public onlyOwner{\r\n        _mint(account, id, amount, data);\r\n    }\r\n\r\n    function mintBatch(address to, uint256[] memory ids, uint256[] memory amounts, bytes memory data) public onlyOwner{\r\n        _mintBatch(to, ids, amounts, data);\r\n    }\r\n\r\n    function _beforeTokenTransfer(address operator, address from, address to, uint256[] memory ids, uint256[] memory amounts, bytes memory data) internal whenNotPaused override {\r\n        super._beforeTokenTransfer(operator, from, to, ids, amounts, data);\r\n    }\r\n\r\n    function _authorizeUpgrade(address newImplementation) internal onlyOwner override{\r\n    }\r\n}\r\n",
  "sourcePath": "/home/elfindis/Documents/Github/ZeNFT-Minter/contracts/ZeNFT.sol",
  "compiler": {
    "name": "solc",
    "version": "0.8.2+commit.661d1103.Emscripten.clang"
  },
  "schemaVersion": "3.4.3",
  "updatedAt": "2021-11-11T16:58:42.856Z",
  "networkType": "ethereum",
  "devdoc": {
    "kind": "dev",
    "methods": {
      "balanceOf(address,uint256)": {
        "details": "See {IERC1155-balanceOf}. Requirements: - `account` cannot be the zero address."
      },
      "balanceOfBatch(address[],uint256[])": {
        "details": "See {IERC1155-balanceOfBatch}. Requirements: - `accounts` and `ids` must have the same length."
      },
      "isApprovedForAll(address,address)": {
        "details": "See {IERC1155-isApprovedForAll}."
      },
      "owner()": {
        "details": "Returns the address of the current owner."
      },
      "paused()": {
        "details": "Returns true if the contract is paused, and false otherwise."
      },
      "renounceOwnership()": {
        "details": "Leaves the contract without owner. It will not be possible to call `onlyOwner` functions anymore. Can only be called by the current owner. NOTE: Renouncing ownership will leave the contract without an owner, thereby removing any functionality that is only available to the owner."
      },
      "safeBatchTransferFrom(address,address,uint256[],uint256[],bytes)": {
        "details": "See {IERC1155-safeBatchTransferFrom}."
      },
      "safeTransferFrom(address,address,uint256,uint256,bytes)": {
        "details": "See {IERC1155-safeTransferFrom}."
      },
      "setApprovalForAll(address,bool)": {
        "details": "See {IERC1155-setApprovalForAll}."
      },
      "supportsInterface(bytes4)": {
        "details": "See {IERC165-supportsInterface}."
      },
      "transferOwnership(address)": {
        "details": "Transfers ownership of the contract to a new account (`newOwner`). Can only be called by the current owner."
      },
      "upgradeTo(address)": {
        "details": "Upgrade the implementation of the proxy to `newImplementation`. Calls {_authorizeUpgrade}. Emits an {Upgraded} event."
      },
      "upgradeToAndCall(address,bytes)": {
        "details": "Upgrade the implementation of the proxy to `newImplementation`, and subsequently execute the function call encoded in `data`. Calls {_authorizeUpgrade}. Emits an {Upgraded} event."
      },
      "uri(uint256)": {
        "details": "See {IERC1155MetadataURI-uri}. This implementation returns the same URI for *all* token types. It relies on the token type ID substitution mechanism https://eips.ethereum.org/EIPS/eip-1155#metadata[defined in the EIP]. Clients calling this function must replace the `\\{id\\}` substring with the actual token type ID."
      }
    },
    "version": 1
  },
  "userdoc": {
    "kind": "user",
    "methods": {},
    "version": 1
  }
}