{
  "contractName": "ZNFT",
  "abi": [
    {
      "inputs": [],
      "stateMutability": "nonpayable",
      "type": "constructor"
    },
    {
      "anonymous": false,
      "inputs": [
        {
          "indexed": false,
          "internalType": "address",
          "name": "previousAdmin",
          "type": "address"
        },
        {
          "indexed": false,
          "internalType": "address",
          "name": "newAdmin",
          "type": "address"
        }
      ],
      "name": "AdminChanged",
      "type": "event"
    },
    {
      "anonymous": false,
      "inputs": [
        {
          "indexed": true,
          "internalType": "address",
          "name": "owner",
          "type": "address"
        },
        {
          "indexed": true,
          "internalType": "address",
          "name": "approved",
          "type": "address"
        },
        {
          "indexed": true,
          "internalType": "uint256",
          "name": "tokenId",
          "type": "uint256"
        }
      ],
      "name": "Approval",
      "type": "event"
    },
    {
      "anonymous": false,
      "inputs": [
        {
          "indexed": true,
          "internalType": "address",
          "name": "owner",
          "type": "address"
        },
        {
          "indexed": true,
          "internalType": "address",
          "name": "operator",
          "type": "address"
        },
        {
          "indexed": false,
          "internalType": "bool",
          "name": "approved",
          "type": "bool"
        }
      ],
      "name": "ApprovalForAll",
      "type": "event"
    },
    {
      "anonymous": false,
      "inputs": [
        {
          "indexed": true,
          "internalType": "address",
          "name": "beacon",
          "type": "address"
        }
      ],
      "name": "BeaconUpgraded",
      "type": "event"
    },
    {
      "anonymous": false,
      "inputs": [
        {
          "indexed": false,
          "internalType": "address",
          "name": "account",
          "type": "address"
        }
      ],
      "name": "Paused",
      "type": "event"
    },
    {
      "anonymous": false,
      "inputs": [
        {
          "indexed": true,
          "internalType": "bytes32",
          "name": "role",
          "type": "bytes32"
        },
        {
          "indexed": true,
          "internalType": "bytes32",
          "name": "previousAdminRole",
          "type": "bytes32"
        },
        {
          "indexed": true,
          "internalType": "bytes32",
          "name": "newAdminRole",
          "type": "bytes32"
        }
      ],
      "name": "RoleAdminChanged",
      "type": "event"
    },
    {
      "anonymous": false,
      "inputs": [
        {
          "indexed": true,
          "internalType": "bytes32",
          "name": "role",
          "type": "bytes32"
        },
        {
          "indexed": true,
          "internalType": "address",
          "name": "account",
          "type": "address"
        },
        {
          "indexed": true,
          "internalType": "address",
          "name": "sender",
          "type": "address"
        }
      ],
      "name": "RoleGranted",
      "type": "event"
    },
    {
      "anonymous": false,
      "inputs": [
        {
          "indexed": true,
          "internalType": "bytes32",
          "name": "role",
          "type": "bytes32"
        },
        {
          "indexed": true,
          "internalType": "address",
          "name": "account",
          "type": "address"
        },
        {
          "indexed": true,
          "internalType": "address",
          "name": "sender",
          "type": "address"
        }
      ],
      "name": "RoleRevoked",
      "type": "event"
    },
    {
      "anonymous": false,
      "inputs": [
        {
          "indexed": true,
          "internalType": "address",
          "name": "from",
          "type": "address"
        },
        {
          "indexed": true,
          "internalType": "address",
          "name": "to",
          "type": "address"
        },
        {
          "indexed": true,
          "internalType": "uint256",
          "name": "tokenId",
          "type": "uint256"
        }
      ],
      "name": "Transfer",
      "type": "event"
    },
    {
      "anonymous": false,
      "inputs": [
        {
          "indexed": false,
          "internalType": "address",
          "name": "account",
          "type": "address"
        }
      ],
      "name": "Unpaused",
      "type": "event"
    },
    {
      "anonymous": false,
      "inputs": [
        {
          "indexed": true,
          "internalType": "address",
          "name": "implementation",
          "type": "address"
        }
      ],
      "name": "Upgraded",
      "type": "event"
    },
    {
      "inputs": [],
      "name": "DEFAULT_ADMIN_ROLE",
      "outputs": [
        {
          "internalType": "bytes32",
          "name": "",
          "type": "bytes32"
        }
      ],
      "stateMutability": "view",
      "type": "function"
    },
    {
      "inputs": [],
      "name": "MINTER_ROLE",
      "outputs": [
        {
          "internalType": "bytes32",
          "name": "",
          "type": "bytes32"
        }
      ],
      "stateMutability": "view",
      "type": "function"
    },
    {
      "inputs": [],
      "name": "PAUSER_ROLE",
      "outputs": [
        {
          "internalType": "bytes32",
          "name": "",
          "type": "bytes32"
        }
      ],
      "stateMutability": "view",
      "type": "function"
    },
    {
      "inputs": [],
      "name": "UPGRADER_ROLE",
      "outputs": [
        {
          "internalType": "bytes32",
          "name": "",
          "type": "bytes32"
        }
      ],
      "stateMutability": "view",
      "type": "function"
    },
    {
      "inputs": [
        {
          "internalType": "address",
          "name": "to",
          "type": "address"
        },
        {
          "internalType": "uint256",
          "name": "tokenId",
          "type": "uint256"
        }
      ],
      "name": "approve",
      "outputs": [],
      "stateMutability": "nonpayable",
      "type": "function"
    },
    {
      "inputs": [
        {
          "internalType": "address",
          "name": "owner",
          "type": "address"
        }
      ],
      "name": "balanceOf",
      "outputs": [
        {
          "internalType": "uint256",
          "name": "",
          "type": "uint256"
        }
      ],
      "stateMutability": "view",
      "type": "function"
    },
    {
      "inputs": [
        {
          "internalType": "uint256",
          "name": "tokenId",
          "type": "uint256"
        }
      ],
      "name": "burn",
      "outputs": [],
      "stateMutability": "nonpayable",
      "type": "function"
    },
    {
      "inputs": [
        {
          "internalType": "uint256",
          "name": "tokenId",
          "type": "uint256"
        }
      ],
      "name": "getApproved",
      "outputs": [
        {
          "internalType": "address",
          "name": "",
          "type": "address"
        }
      ],
      "stateMutability": "view",
      "type": "function"
    },
    {
      "inputs": [
        {
          "internalType": "bytes32",
          "name": "role",
          "type": "bytes32"
        }
      ],
      "name": "getRoleAdmin",
      "outputs": [
        {
          "internalType": "bytes32",
          "name": "",
          "type": "bytes32"
        }
      ],
      "stateMutability": "view",
      "type": "function"
    },
    {
      "inputs": [
        {
          "internalType": "bytes32",
          "name": "role",
          "type": "bytes32"
        },
        {
          "internalType": "address",
          "name": "account",
          "type": "address"
        }
      ],
      "name": "grantRole",
      "outputs": [],
      "stateMutability": "nonpayable",
      "type": "function"
    },
    {
      "inputs": [
        {
          "internalType": "bytes32",
          "name": "role",
          "type": "bytes32"
        },
        {
          "internalType": "address",
          "name": "account",
          "type": "address"
        }
      ],
      "name": "hasRole",
      "outputs": [
        {
          "internalType": "bool",
          "name": "",
          "type": "bool"
        }
      ],
      "stateMutability": "view",
      "type": "function"
    },
    {
      "inputs": [
        {
          "internalType": "address",
          "name": "owner",
          "type": "address"
        },
        {
          "internalType": "address",
          "name": "operator",
          "type": "address"
        }
      ],
      "name": "isApprovedForAll",
      "outputs": [
        {
          "internalType": "bool",
          "name": "",
          "type": "bool"
        }
      ],
      "stateMutability": "view",
      "type": "function"
    },
    {
      "inputs": [],
      "name": "name",
      "outputs": [
        {
          "internalType": "string",
          "name": "",
          "type": "string"
        }
      ],
      "stateMutability": "view",
      "type": "function"
    },
    {
      "inputs": [
        {
          "internalType": "uint256",
          "name": "tokenId",
          "type": "uint256"
        }
      ],
      "name": "ownerOf",
      "outputs": [
        {
          "internalType": "address",
          "name": "",
          "type": "address"
        }
      ],
      "stateMutability": "view",
      "type": "function"
    },
    {
      "inputs": [],
      "name": "paused",
      "outputs": [
        {
          "internalType": "bool",
          "name": "",
          "type": "bool"
        }
      ],
      "stateMutability": "view",
      "type": "function"
    },
    {
      "inputs": [
        {
          "internalType": "bytes32",
          "name": "role",
          "type": "bytes32"
        },
        {
          "internalType": "address",
          "name": "account",
          "type": "address"
        }
      ],
      "name": "renounceRole",
      "outputs": [],
      "stateMutability": "nonpayable",
      "type": "function"
    },
    {
      "inputs": [
        {
          "internalType": "bytes32",
          "name": "role",
          "type": "bytes32"
        },
        {
          "internalType": "address",
          "name": "account",
          "type": "address"
        }
      ],
      "name": "revokeRole",
      "outputs": [],
      "stateMutability": "nonpayable",
      "type": "function"
    },
    {
      "inputs": [
        {
          "internalType": "address",
          "name": "operator",
          "type": "address"
        },
        {
          "internalType": "bool",
          "name": "approved",
          "type": "bool"
        }
      ],
      "name": "setApprovalForAll",
      "outputs": [],
      "stateMutability": "nonpayable",
      "type": "function"
    },
    {
      "inputs": [],
      "name": "symbol",
      "outputs": [
        {
          "internalType": "string",
          "name": "",
          "type": "string"
        }
      ],
      "stateMutability": "view",
      "type": "function"
    },
    {
      "inputs": [
        {
          "internalType": "address",
          "name": "newImplementation",
          "type": "address"
        }
      ],
      "name": "upgradeTo",
      "outputs": [],
      "stateMutability": "nonpayable",
      "type": "function"
    },
    {
      "inputs": [
        {
          "internalType": "address",
          "name": "newImplementation",
          "type": "address"
        },
        {
          "internalType": "bytes",
          "name": "data",
          "type": "bytes"
        }
      ],
      "name": "upgradeToAndCall",
      "outputs": [],
      "stateMutability": "payable",
      "type": "function"
    },
    {
      "inputs": [
        {
          "internalType": "address payable",
          "name": "minter",
          "type": "address"
        }
      ],
      "name": "initialize",
      "outputs": [],
      "stateMutability": "nonpayable",
      "type": "function"
    },
    {
      "inputs": [],
      "name": "pause",
      "outputs": [],
      "stateMutability": "nonpayable",
      "type": "function"
    },
    {
      "inputs": [],
      "name": "unpause",
      "outputs": [],
      "stateMutability": "nonpayable",
      "type": "function"
    },
    {
      "inputs": [
        {
          "internalType": "address",
          "name": "to",
          "type": "address"
        },
        {
          "internalType": "string",
          "name": "uri",
          "type": "string"
        }
      ],
      "name": "safeMint",
      "outputs": [],
      "stateMutability": "nonpayable",
      "type": "function"
    },
    {
      "inputs": [
        {
          "internalType": "uint256",
          "name": "tokenId",
          "type": "uint256"
        }
      ],
      "name": "tokenURI",
      "outputs": [
        {
          "internalType": "string",
          "name": "",
          "type": "string"
        }
      ],
      "stateMutability": "view",
      "type": "function"
    },
    {
      "inputs": [
        {
          "internalType": "address",
          "name": "redeemer",
          "type": "address"
        },
        {
          "components": [
            {
              "internalType": "uint256",
              "name": "tokenId",
              "type": "uint256"
            },
            {
              "internalType": "uint256",
              "name": "minPrice",
              "type": "uint256"
            },
            {
              "internalType": "string",
              "name": "uri",
              "type": "string"
            },
            {
              "internalType": "bytes",
              "name": "signature",
              "type": "bytes"
            }
          ],
          "internalType": "struct ZNFT.NFTVoucher",
          "name": "voucher",
          "type": "tuple"
        }
      ],
      "name": "redeem",
      "outputs": [
        {
          "internalType": "uint256",
          "name": "",
          "type": "uint256"
        }
      ],
      "stateMutability": "payable",
      "type": "function"
    },
    {
      "inputs": [],
      "name": "withdraw",
      "outputs": [],
      "stateMutability": "nonpayable",
      "type": "function"
    },
    {
      "inputs": [],
      "name": "availableToWithdraw",
      "outputs": [
        {
          "internalType": "uint256",
          "name": "",
          "type": "uint256"
        }
      ],
      "stateMutability": "view",
      "type": "function"
    },
    {
      "inputs": [],
      "name": "getChainID",
      "outputs": [
        {
          "internalType": "uint256",
          "name": "",
          "type": "uint256"
        }
      ],
      "stateMutability": "view",
      "type": "function"
    },
    {
      "inputs": [
        {
          "internalType": "bytes4",
          "name": "interfaceId",
          "type": "bytes4"
        }
      ],
      "name": "supportsInterface",
      "outputs": [
        {
          "internalType": "bool",
          "name": "",
          "type": "bool"
        }
      ],
      "stateMutability": "view",
      "type": "function"
    },
    {
      "inputs": [
        {
          "internalType": "address",
          "name": "from",
          "type": "address"
        },
        {
          "internalType": "address",
          "name": "to",
          "type": "address"
        },
        {
          "internalType": "uint256",
          "name": "tokenId",
          "type": "uint256"
        }
      ],
      "name": "transferFrom",
      "outputs": [],
      "stateMutability": "nonpayable",
      "type": "function"
    },
    {
      "inputs": [
        {
          "internalType": "address",
          "name": "from",
          "type": "address"
        },
        {
          "internalType": "address",
          "name": "to",
          "type": "address"
        },
        {
          "internalType": "uint256",
          "name": "tokenId",
          "type": "uint256"
        }
      ],
      "name": "safeTransferFrom",
      "outputs": [],
      "stateMutability": "nonpayable",
      "type": "function"
    },
    {
      "inputs": [
        {
          "internalType": "address",
          "name": "from",
          "type": "address"
        },
        {
          "internalType": "address",
          "name": "to",
          "type": "address"
        },
        {
          "internalType": "uint256",
          "name": "tokenId",
          "type": "uint256"
        },
        {
          "internalType": "bytes",
          "name": "_data",
          "type": "bytes"
        }
      ],
      "name": "safeTransferFrom",
      "outputs": [],
      "stateMutability": "nonpayable",
      "type": "function"
    }
  ],
  "bytecode": "0x60a06040523073ffffffffffffffffffffffffffffffffffffffff1660809073ffffffffffffffffffffffffffffffffffffffff1660601b8152503480156200004757600080fd5b50600060019054906101000a900460ff16620000725760008054906101000a900460ff161562000083565b620000826200013f60201b60201c565b5b620000c5576040517f08c379a0000000000000000000000000000000000000000000000000000000008152600401620000bc9062000197565b60405180910390fd5b60008060019054906101000a900460ff16159050801562000116576001600060016101000a81548160ff02191690831515021790555060016000806101000a81548160ff0219169083151502179055505b8015620001385760008060016101000a81548160ff0219169083151502179055505b5062000219565b600062000157306200015d60201b620019c01760201c565b15905090565b600080823b905060008111915050919050565b60006200017f602e83620001b9565b91506200018c82620001ca565b604082019050919050565b60006020820190508181036000830152620001b28162000170565b9050919050565b600082825260208201905092915050565b7f496e697469616c697a61626c653a20636f6e747261637420697320616c72656160008201527f647920696e697469616c697a6564000000000000000000000000000000000000602082015250565b60805160601c6168696200024d60003960008181610d2c01528181610dbb015281816110d8015261116701526168696000f3fe6080604052600436106101f95760003560e01c80636352211e1161010d578063c4d66de8116100a0578063d547741f1161006f578063d547741f146106ff578063e322ad2b14610728578063e63ab1e914610753578063e985e9c51461077e578063f72c0d8b146107bb576101f9565b8063c4d66de814610645578063c87b56dd1461066e578063d204c45e146106ab578063d5391393146106d4576101f9565b806395d89b41116100dc57806395d89b411461059d578063a217fddf146105c8578063a22cb465146105f3578063b88d4fde1461061c576101f9565b80636352211e146104cf57806370a082311461050c5780638456cb591461054957806391d1485414610560576101f9565b806336568abe1161019057806342842e0e1161015f57806342842e0e1461040b57806342966c68146104345780634f1ef2861461045d578063564b81ef146104795780635c975abb146104a4576101f9565b806336568abe1461038b5780633659cfe6146103b45780633ccfd60b146103dd5780633f4ba83a146103f4576101f9565b8063095ea7b3116101cc578063095ea7b3146102d357806323b872dd146102fc578063248a9ca3146103255780632f2ff15d14610362576101f9565b806301ffc9a7146101fe57806306fdde031461023b578063081812fc1461026657806308708a78146102a3575b600080fd5b34801561020a57600080fd5b5061022560048036038101906102209190614a57565b6107e6565b604051610232919061528b565b60405180910390f35b34801561024757600080fd5b50610250610808565b60405161025d919061539e565b60405180910390f35b34801561027257600080fd5b5061028d60048036038101906102889190614aa9565b61089a565b60405161029a9190615224565b60405180910390f35b6102bd60048036038101906102b89190614962565b61091f565b6040516102ca9190615820565b60405180910390f35b3480156102df57600080fd5b506102fa60048036038101906102f591906149b6565b610abf565b005b34801561030857600080fd5b50610323600480360381019061031e91906147b4565b610bd7565b005b34801561033157600080fd5b5061034c600480360381019061034791906149f2565b610c5d565b60405161035991906152a6565b60405180910390f35b34801561036e57600080fd5b5061038960048036038101906103849190614a1b565b610c7e565b005b34801561039757600080fd5b506103b260048036038101906103ad9190614a1b565b610ca7565b005b3480156103c057600080fd5b506103db60048036038101906103d69190614726565b610d2a565b005b3480156103e957600080fd5b506103f2610ed9565b005b34801561040057600080fd5b5061040961101d565b005b34801561041757600080fd5b50610432600480360381019061042d91906147b4565b61105a565b005b34801561044057600080fd5b5061045b60048036038101906104569190614aa9565b61107a565b005b610477600480360381019061047291906148ba565b6110d6565b005b34801561048557600080fd5b5061048e611213565b60405161049b9190615820565b60405180910390f35b3480156104b057600080fd5b506104b9611220565b6040516104c6919061528b565b60405180910390f35b3480156104db57600080fd5b506104f660048036038101906104f19190614aa9565b611237565b6040516105039190615224565b60405180910390f35b34801561051857600080fd5b50610533600480360381019061052e9190614726565b6112e9565b6040516105409190615820565b60405180910390f35b34801561055557600080fd5b5061055e6113a1565b005b34801561056c57600080fd5b5061058760048036038101906105829190614a1b565b6113de565b604051610594919061528b565b60405180910390f35b3480156105a957600080fd5b506105b261144a565b6040516105bf919061539e565b60405180910390f35b3480156105d457600080fd5b506105dd6114dc565b6040516105ea91906152a6565b60405180910390f35b3480156105ff57600080fd5b5061061a6004803603810190610615919061487e565b6114e3565b005b34801561062857600080fd5b50610643600480360381019061063e9190614803565b6114f9565b005b34801561065157600080fd5b5061066c6004803603810190610667919061474f565b611581565b005b34801561067a57600080fd5b5061069560048036038101906106909190614aa9565b6117d7565b6040516106a2919061539e565b60405180910390f35b3480156106b757600080fd5b506106d260048036038101906106cd919061490e565b6117e9565b005b3480156106e057600080fd5b506106e961184f565b6040516106f691906152a6565b60405180910390f35b34801561070b57600080fd5b5061072660048036038101906107219190614a1b565b611873565b005b34801561073457600080fd5b5061073d61189c565b60405161074a9190615820565b60405180910390f35b34801561075f57600080fd5b506107686118e4565b60405161077591906152a6565b60405180910390f35b34801561078a57600080fd5b506107a560048036038101906107a09190614778565b611908565b6040516107b2919061528b565b60405180910390f35b3480156107c757600080fd5b506107d061199c565b6040516107dd91906152a6565b60405180910390f35b60006107f1826119d3565b80610801575061080082611ab5565b5b9050919050565b60606065805461081790615bdc565b80601f016020809104026020016040519081016040528092919081815260200182805461084390615bdc565b80156108905780601f1061086557610100808354040283529160200191610890565b820191906000526020600020905b81548152906001019060200180831161087357829003601f168201915b5050505050905090565b60006108a582611b2f565b6108e4576040517f08c379a00000000000000000000000000000000000000000000000000000000081526004016108db906156a0565b60405180910390fd5b6069600083815260200190815260200160002060009054906101000a900473ffffffffffffffffffffffffffffffffffffffff169050919050565b60008061092b83611b9b565b90506109577f9f2df0fed2c77648de5860a4cc508cd0818c85b8b8a1ab4ceeef8d981c8956a6826113de565b610996576040517f08c379a000000000000000000000000000000000000000000000000000000000815260040161098d90615760565b60405180910390fd5b82602001353410156109dd576040517f08c379a00000000000000000000000000000000000000000000000000000000081526004016109d490615640565b60405180910390fd5b6109eb818460000135611c0d565b610a4b8360000135848060400190610a039190615892565b8080601f016020809104026020016040519081016040528093929190818152602001838380828437600081840152601f19601f82011690508083019250505050505050611ddb565b610a5a81858560000135611e4f565b346101f760008373ffffffffffffffffffffffffffffffffffffffff1673ffffffffffffffffffffffffffffffffffffffff1681526020019081526020016000206000828254610aaa91906159be565b92505081905550826000013591505092915050565b6000610aca82611237565b90508073ffffffffffffffffffffffffffffffffffffffff168373ffffffffffffffffffffffffffffffffffffffff161415610b3b576040517f08c379a0000000000000000000000000000000000000000000000000000000008152600401610b3290615740565b60405180910390fd5b8073ffffffffffffffffffffffffffffffffffffffff16610b5a6120ab565b73ffffffffffffffffffffffffffffffffffffffff161480610b895750610b8881610b836120ab565b611908565b5b610bc8576040517f08c379a0000000000000000000000000000000000000000000000000000000008152600401610bbf90615580565b60405180910390fd5b610bd283836120b3565b505050565b3373ffffffffffffffffffffffffffffffffffffffff16610bf782611237565b73ffffffffffffffffffffffffffffffffffffffff1614610c4d576040517f08c379a0000000000000000000000000000000000000000000000000000000008152600401610c44906157a0565b60405180910390fd5b610c58838383611e4f565b505050565b600061012f6000838152602001908152602001600020600101549050919050565b610c8782610c5d565b610c9881610c936120ab565b61216c565b610ca28383612209565b505050565b610caf6120ab565b73ffffffffffffffffffffffffffffffffffffffff168173ffffffffffffffffffffffffffffffffffffffff1614610d1c576040517f08c379a0000000000000000000000000000000000000000000000000000000008152600401610d1390615800565b60405180910390fd5b610d2682826122eb565b5050565b7f000000000000000000000000000000000000000000000000000000000000000073ffffffffffffffffffffffffffffffffffffffff163073ffffffffffffffffffffffffffffffffffffffff161415610db9576040517f08c379a0000000000000000000000000000000000000000000000000000000008152600401610db0906154a0565b60405180910390fd5b7f000000000000000000000000000000000000000000000000000000000000000073ffffffffffffffffffffffffffffffffffffffff16610df86123ce565b73ffffffffffffffffffffffffffffffffffffffff1614610e4e576040517f08c379a0000000000000000000000000000000000000000000000000000000008152600401610e4590615520565b60405180910390fd5b610e5781612425565b610ed681600067ffffffffffffffff811115610e9c577f4e487b7100000000000000000000000000000000000000000000000000000000600052604160045260246000fd5b6040519080825280601f01601f191660200182016040528015610ece5781602001600182028036833780820191505090505b50600061243e565b50565b610f037f9f2df0fed2c77648de5860a4cc508cd0818c85b8b8a1ab4ceeef8d981c8956a6336113de565b610f42576040517f08c379a0000000000000000000000000000000000000000000000000000000008152600401610f3990615720565b60405180910390fd5b600033905060006101f760008373ffffffffffffffffffffffffffffffffffffffff1673ffffffffffffffffffffffffffffffffffffffff16815260200190815260200160002054905060006101f760008473ffffffffffffffffffffffffffffffffffffffff1673ffffffffffffffffffffffffffffffffffffffff168152602001908152602001600020819055508173ffffffffffffffffffffffffffffffffffffffff166108fc829081150290604051600060405180830381858888f19350505050158015611018573d6000803e3d6000fd5b505050565b7f65d7a28e3265b37a6474929f336521b332c1681b933f6cb9f3376673440d862a61104f8161104a6120ab565b61216c565b61105761260f565b50565b611075838383604051806020016040528060008152506114f9565b505050565b61108b6110856120ab565b826126b1565b6110ca576040517f08c379a00000000000000000000000000000000000000000000000000000000081526004016110c1906157e0565b60405180910390fd5b6110d38161278f565b50565b7f000000000000000000000000000000000000000000000000000000000000000073ffffffffffffffffffffffffffffffffffffffff163073ffffffffffffffffffffffffffffffffffffffff161415611165576040517f08c379a000000000000000000000000000000000000000000000000000000000815260040161115c906154a0565b60405180910390fd5b7f000000000000000000000000000000000000000000000000000000000000000073ffffffffffffffffffffffffffffffffffffffff166111a46123ce565b73ffffffffffffffffffffffffffffffffffffffff16146111fa576040517f08c379a00000000000000000000000000000000000000000000000000000000081526004016111f190615520565b60405180910390fd5b61120382612425565b61120f8282600161243e565b5050565b6000804690508091505090565b600060fd60009054906101000a900460ff16905090565b6000806067600084815260200190815260200160002060009054906101000a900473ffffffffffffffffffffffffffffffffffffffff169050600073ffffffffffffffffffffffffffffffffffffffff168173ffffffffffffffffffffffffffffffffffffffff1614156112e0576040517f08c379a00000000000000000000000000000000000000000000000000000000081526004016112d7906155c0565b60405180910390fd5b80915050919050565b60008073ffffffffffffffffffffffffffffffffffffffff168273ffffffffffffffffffffffffffffffffffffffff16141561135a576040517f08c379a0000000000000000000000000000000000000000000000000000000008152600401611351906155a0565b60405180910390fd5b606860008373ffffffffffffffffffffffffffffffffffffffff1673ffffffffffffffffffffffffffffffffffffffff168152602001908152602001600020549050919050565b7f65d7a28e3265b37a6474929f336521b332c1681b933f6cb9f3376673440d862a6113d3816113ce6120ab565b61216c565b6113db61279b565b50565b600061012f600084815260200190815260200160002060000160008373ffffffffffffffffffffffffffffffffffffffff1673ffffffffffffffffffffffffffffffffffffffff16815260200190815260200160002060009054906101000a900460ff16905092915050565b60606066805461145990615bdc565b80601f016020809104026020016040519081016040528092919081815260200182805461148590615bdc565b80156114d25780601f106114a7576101008083540402835291602001916114d2565b820191906000526020600020905b8154815290600101906020018083116114b557829003601f168201915b5050505050905090565b6000801b81565b6114f56114ee6120ab565b838361283e565b5050565b3373ffffffffffffffffffffffffffffffffffffffff1661151983611237565b73ffffffffffffffffffffffffffffffffffffffff161461156f576040517f08c379a0000000000000000000000000000000000000000000000000000000008152600401611566906157a0565b60405180910390fd5b61157b848484846129ab565b50505050565b600060019054906101000a900460ff166115a95760008054906101000a900460ff16156115b2565b6115b1612a07565b5b6115f1576040517f08c379a00000000000000000000000000000000000000000000000000000000081526004016115e890615600565b60405180910390fd5b60008060019054906101000a900460ff161590508015611641576001600060016101000a81548160ff02191690831515021790555060016000806101000a81548160ff0219169083151502179055505b6116b56040518060400160405280600481526020017f7a4e4654000000000000000000000000000000000000000000000000000000008152506040518060400160405280600481526020017f5a656e7300000000000000000000000000000000000000000000000000000000815250612a18565b6117296040518060400160405280600581526020017f5a654e46540000000000000000000000000000000000000000000000000000008152506040518060400160405280600381526020017f312e300000000000000000000000000000000000000000000000000000000000815250612a85565b611731612ae2565b611739612b4b565b611741612bac565b611749612c15565b611751612c76565b61177b7f9f2df0fed2c77648de5860a4cc508cd0818c85b8b8a1ab4ceeef8d981c8956a683612cdf565b6117886000801b33612cdf565b6117b27f65d7a28e3265b37a6474929f336521b332c1681b933f6cb9f3376673440d862a33610c7e565b80156117d35760008060016101000a81548160ff0219169083151502179055505b5050565b60606117e282612ced565b9050919050565b7f9f2df0fed2c77648de5860a4cc508cd0818c85b8b8a1ab4ceeef8d981c8956a661181b816118166120ab565b61216c565b60006118286101f8612e3f565b90506118356101f8612e4d565b61183f8482612e63565b6118498184611ddb565b50505050565b7f9f2df0fed2c77648de5860a4cc508cd0818c85b8b8a1ab4ceeef8d981c8956a681565b61187c82610c5d565b61188d816118886120ab565b61216c565b61189783836122eb565b505050565b60006101f760003373ffffffffffffffffffffffffffffffffffffffff1673ffffffffffffffffffffffffffffffffffffffff16815260200190815260200160002054905090565b7f65d7a28e3265b37a6474929f336521b332c1681b933f6cb9f3376673440d862a81565b6000606a60008473ffffffffffffffffffffffffffffffffffffffff1673ffffffffffffffffffffffffffffffffffffffff16815260200190815260200160002060008373ffffffffffffffffffffffffffffffffffffffff1673ffffffffffffffffffffffffffffffffffffffff16815260200190815260200160002060009054906101000a900460ff16905092915050565b7f1effbbff9c66c5e59634f24fe842750c60d18891155c32dd155fc2d661a4c86d81565b600080823b905060008111915050919050565b60007f80ac58cd000000000000000000000000000000000000000000000000000000007bffffffffffffffffffffffffffffffffffffffffffffffffffffffff1916827bffffffffffffffffffffffffffffffffffffffffffffffffffffffff19161480611a9e57507f5b5e139f000000000000000000000000000000000000000000000000000000007bffffffffffffffffffffffffffffffffffffffffffffffffffffffff1916827bffffffffffffffffffffffffffffffffffffffffffffffffffffffff1916145b80611aae5750611aad82612e81565b5b9050919050565b60007f7965db0b000000000000000000000000000000000000000000000000000000007bffffffffffffffffffffffffffffffffffffffffffffffffffffffff1916827bffffffffffffffffffffffffffffffffffffffffffffffffffffffff19161480611b285750611b27826119d3565b5b9050919050565b60008073ffffffffffffffffffffffffffffffffffffffff166067600084815260200190815260200160002060009054906101000a900473ffffffffffffffffffffffffffffffffffffffff1673ffffffffffffffffffffffffffffffffffffffff1614159050919050565b600080611ba783612eeb565b9050611c0581848060600190611bbd919061583b565b8080601f016020809104026020016040519081016040528093929190818152602001838380828437600081840152601f19601f82011690508083019250505050505050612f76565b915050919050565b600073ffffffffffffffffffffffffffffffffffffffff168273ffffffffffffffffffffffffffffffffffffffff161415611c7d576040517f08c379a0000000000000000000000000000000000000000000000000000000008152600401611c7490615660565b60405180910390fd5b611c8681611b2f565b15611cc6576040517f08c379a0000000000000000000000000000000000000000000000000000000008152600401611cbd90615480565b60405180910390fd5b611cd260008383612f9d565b6001606860008473ffffffffffffffffffffffffffffffffffffffff1673ffffffffffffffffffffffffffffffffffffffff1681526020019081526020016000206000828254611d2291906159be565b92505081905550816067600083815260200190815260200160002060006101000a81548173ffffffffffffffffffffffffffffffffffffffff021916908373ffffffffffffffffffffffffffffffffffffffff160217905550808273ffffffffffffffffffffffffffffffffffffffff16600073ffffffffffffffffffffffffffffffffffffffff167fddf252ad1be2c89b69c2b068fc378daa952ba7f163c4a11628f55a4df523b3ef60405160405180910390a45050565b611de482611b2f565b611e23576040517f08c379a0000000000000000000000000000000000000000000000000000000008152600401611e1a906155e0565b60405180910390fd5b8060cb60008481526020019081526020016000209080519060200190611e4a9291906144c5565b505050565b8273ffffffffffffffffffffffffffffffffffffffff16611e6f82611237565b73ffffffffffffffffffffffffffffffffffffffff1614611ec5576040517f08c379a0000000000000000000000000000000000000000000000000000000008152600401611ebc906156e0565b60405180910390fd5b600073ffffffffffffffffffffffffffffffffffffffff168273ffffffffffffffffffffffffffffffffffffffff161415611f35576040517f08c379a0000000000000000000000000000000000000000000000000000000008152600401611f2c906154c0565b60405180910390fd5b611f40838383612f9d565b611f4b6000826120b3565b6001606860008573ffffffffffffffffffffffffffffffffffffffff1673ffffffffffffffffffffffffffffffffffffffff1681526020019081526020016000206000828254611f9b9190615a9f565b925050819055506001606860008473ffffffffffffffffffffffffffffffffffffffff1673ffffffffffffffffffffffffffffffffffffffff1681526020019081526020016000206000828254611ff291906159be565b92505081905550816067600083815260200190815260200160002060006101000a81548173ffffffffffffffffffffffffffffffffffffffff021916908373ffffffffffffffffffffffffffffffffffffffff160217905550808273ffffffffffffffffffffffffffffffffffffffff168473ffffffffffffffffffffffffffffffffffffffff167fddf252ad1be2c89b69c2b068fc378daa952ba7f163c4a11628f55a4df523b3ef60405160405180910390a4505050565b600033905090565b816069600083815260200190815260200160002060006101000a81548173ffffffffffffffffffffffffffffffffffffffff021916908373ffffffffffffffffffffffffffffffffffffffff160217905550808273ffffffffffffffffffffffffffffffffffffffff1661212683611237565b73ffffffffffffffffffffffffffffffffffffffff167f8c5be1e5ebec7d5bd14f71427d1e84f3dd0314c0f7b2291e5b200ac8c7c3b92560405160405180910390a45050565b61217682826113de565b6122055761219b8173ffffffffffffffffffffffffffffffffffffffff166014612ff5565b6121a98360001c6020612ff5565b6040516020016121ba9291906151ea565b6040516020818303038152906040526040517f08c379a00000000000000000000000000000000000000000000000000000000081526004016121fc919061539e565b60405180910390fd5b5050565b61221382826113de565b6122e757600161012f600084815260200190815260200160002060000160008373ffffffffffffffffffffffffffffffffffffffff1673ffffffffffffffffffffffffffffffffffffffff16815260200190815260200160002060006101000a81548160ff02191690831515021790555061228c6120ab565b73ffffffffffffffffffffffffffffffffffffffff168173ffffffffffffffffffffffffffffffffffffffff16837f2f8788117e7eff1d82e926ec794901d17c78024a50270940304540a733656f0d60405160405180910390a45b5050565b6122f582826113de565b156123ca57600061012f600084815260200190815260200160002060000160008373ffffffffffffffffffffffffffffffffffffffff1673ffffffffffffffffffffffffffffffffffffffff16815260200190815260200160002060006101000a81548160ff02191690831515021790555061236f6120ab565b73ffffffffffffffffffffffffffffffffffffffff168173ffffffffffffffffffffffffffffffffffffffff16837ff6391f5c32d9c69d2a47ea670b442974b53935d1edc7fd64eb21e047a839171b60405160405180910390a45b5050565b60006123fc7f360894a13ba1a3210667c828492db98dca3e2076cc3735a920a3ca505d382bbc60001b6132ef565b60000160009054906101000a900473ffffffffffffffffffffffffffffffffffffffff16905090565b6000801b61243a816124356120ab565b61216c565b5050565b60006124486123ce565b9050612453846132f9565b6000835111806124605750815b156124715761246f84846133b2565b505b600061249f7f4910fdfa16fed3260ed0e7147f7cc6da11a60208b5b9406d12a635614ffd914360001b613496565b90508060000160009054906101000a900460ff166126085760018160000160006101000a81548160ff02191690831515021790555061256b85836040516024016124e99190615224565b6040516020818303038152906040527f3659cfe6000000000000000000000000000000000000000000000000000000007bffffffffffffffffffffffffffffffffffffffffffffffffffffffff19166020820180517bffffffffffffffffffffffffffffffffffffffffffffffffffffffff83818316178352505050506133b2565b5060008160000160006101000a81548160ff0219169083151502179055506125916123ce565b73ffffffffffffffffffffffffffffffffffffffff168273ffffffffffffffffffffffffffffffffffffffff16146125fe576040517f08c379a00000000000000000000000000000000000000000000000000000000081526004016125f590615460565b60405180910390fd5b612607856134a0565b5b5050505050565b612617611220565b612656576040517f08c379a000000000000000000000000000000000000000000000000000000000815260040161264d90615400565b60405180910390fd5b600060fd60006101000a81548160ff0219169083151502179055507f5db9ee0a495bf2e6ff9c91a7834c1ba4fdd244a5e8aa4e537bd38aeae4b073aa61269a6120ab565b6040516126a79190615224565b60405180910390a1565b60006126bc82611b2f565b6126fb576040517f08c379a00000000000000000000000000000000000000000000000000000000081526004016126f290615540565b60405180910390fd5b600061270683611237565b90508073ffffffffffffffffffffffffffffffffffffffff168473ffffffffffffffffffffffffffffffffffffffff16148061277557508373ffffffffffffffffffffffffffffffffffffffff1661275d8461089a565b73ffffffffffffffffffffffffffffffffffffffff16145b8061278657506127858185611908565b5b91505092915050565b612798816134ef565b50565b6127a3611220565b156127e3576040517f08c379a00000000000000000000000000000000000000000000000000000000081526004016127da90615560565b60405180910390fd5b600160fd60006101000a81548160ff0219169083151502179055507f62e78cea01bee320cd4e420270b5ea74000d11b0c9f74754ebdbfc544b05a2586128276120ab565b6040516128349190615224565b60405180910390a1565b8173ffffffffffffffffffffffffffffffffffffffff168373ffffffffffffffffffffffffffffffffffffffff1614156128ad576040517f08c379a00000000000000000000000000000000000000000000000000000000081526004016128a4906154e0565b60405180910390fd5b80606a60008573ffffffffffffffffffffffffffffffffffffffff1673ffffffffffffffffffffffffffffffffffffffff16815260200190815260200160002060008473ffffffffffffffffffffffffffffffffffffffff1673ffffffffffffffffffffffffffffffffffffffff16815260200190815260200160002060006101000a81548160ff0219169083151502179055508173ffffffffffffffffffffffffffffffffffffffff168373ffffffffffffffffffffffffffffffffffffffff167f17307eab39ab6107e8899845ad3d59bd9653f200f220920489ca2b5937696c318360405161299e919061528b565b60405180910390a3505050565b6129b6848484611e4f565b6129c284848484613542565b612a01576040517f08c379a00000000000000000000000000000000000000000000000000000000081526004016129f890615440565b60405180910390fd5b50505050565b6000612a12306119c0565b15905090565b600060019054906101000a900460ff16612a67576040517f08c379a0000000000000000000000000000000000000000000000000000000008152600401612a5e906157c0565b60405180910390fd5b612a6f6136d9565b612a7761372a565b612a81828261377b565b5050565b600060019054906101000a900460ff16612ad4576040517f08c379a0000000000000000000000000000000000000000000000000000000008152600401612acb906157c0565b60405180910390fd5b612ade82826137fc565b5050565b600060019054906101000a900460ff16612b31576040517f08c379a0000000000000000000000000000000000000000000000000000000008152600401612b28906157c0565b60405180910390fd5b612b396136d9565b612b4161372a565b612b49613877565b565b600060019054906101000a900460ff16612b9a576040517f08c379a0000000000000000000000000000000000000000000000000000000008152600401612b91906157c0565b60405180910390fd5b612ba26136d9565b612baa6138c8565b565b600060019054906101000a900460ff16612bfb576040517f08c379a0000000000000000000000000000000000000000000000000000000008152600401612bf2906157c0565b60405180910390fd5b612c036136d9565b612c0b61372a565b612c13613934565b565b600060019054906101000a900460ff16612c64576040517f08c379a0000000000000000000000000000000000000000000000000000000008152600401612c5b906157c0565b60405180910390fd5b612c6c613985565b612c746139d6565b565b600060019054906101000a900460ff16612cc5576040517f08c379a0000000000000000000000000000000000000000000000000000000008152600401612cbc906157c0565b60405180910390fd5b612ccd6136d9565b612cd561372a565b612cdd613a27565b565b612ce98282612209565b5050565b6060612cf882611b2f565b612d37576040517f08c379a0000000000000000000000000000000000000000000000000000000008152600401612d2e90615680565b60405180910390fd5b600060cb60008481526020019081526020016000208054612d5790615bdc565b80601f0160208091040260200160405190810160405280929190818152602001828054612d8390615bdc565b8015612dd05780601f10612da557610100808354040283529160200191612dd0565b820191906000526020600020905b815481529060010190602001808311612db357829003601f168201915b505050505090506000612de1613a78565b9050600081511415612df7578192505050612e3a565b600082511115612e2c578082604051602001612e1492919061518f565b60405160208183030381529060405292505050612e3a565b612e3584613a8f565b925050505b919050565b600081600001549050919050565b6001816000016000828254019250508190555050565b612e7d828260405180602001604052806000815250613b36565b5050565b60007f01ffc9a7000000000000000000000000000000000000000000000000000000007bffffffffffffffffffffffffffffffffffffffffffffffffffffffff1916827bffffffffffffffffffffffffffffffffffffffffffffffffffffffff1916149050919050565b6000612f6f7f6316f9ddd4d59a364f3b95c26bab9d392c3380ace0fff15e91ed76f0d8bcd15a83600001358460200135858060400190612f2b9190615892565b604051612f3992919061515f565b6040518091039020604051602001612f549493929190615314565b60405160208183030381529060405280519060200120613b91565b9050919050565b6000806000612f858585613bab565b91509150612f9281613c2e565b819250505092915050565b612fa5611220565b15612fe5576040517f08c379a0000000000000000000000000000000000000000000000000000000008152600401612fdc90615560565b60405180910390fd5b612ff0838383613f7f565b505050565b6060600060028360026130089190615a45565b61301291906159be565b67ffffffffffffffff811115613051577f4e487b7100000000000000000000000000000000000000000000000000000000600052604160045260246000fd5b6040519080825280601f01601f1916602001820160405280156130835781602001600182028036833780820191505090505b5090507f3000000000000000000000000000000000000000000000000000000000000000816000815181106130e1577f4e487b7100000000000000000000000000000000000000000000000000000000600052603260045260246000fd5b60200101907effffffffffffffffffffffffffffffffffffffffffffffffffffffffffffff1916908160001a9053507f78000000000000000000000000000000000000000000000000000000000000008160018151811061316b577f4e487b7100000000000000000000000000000000000000000000000000000000600052603260045260246000fd5b60200101907effffffffffffffffffffffffffffffffffffffffffffffffffffffffffffff1916908160001a905350600060018460026131ab9190615a45565b6131b591906159be565b90505b60018111156132a1577f3031323334353637383961626364656600000000000000000000000000000000600f86166010811061321d577f4e487b7100000000000000000000000000000000000000000000000000000000600052603260045260246000fd5b1a60f81b82828151811061325a577f4e487b7100000000000000000000000000000000000000000000000000000000600052603260045260246000fd5b60200101907effffffffffffffffffffffffffffffffffffffffffffffffffffffffffffff1916908160001a905350600485901c94508061329a90615bb2565b90506131b8565b50600084146132e5576040517f08c379a00000000000000000000000000000000000000000000000000000000081526004016132dc906153e0565b60405180910390fd5b8091505092915050565b6000819050919050565b613302816119c0565b613341576040517f08c379a0000000000000000000000000000000000000000000000000000000008152600401613338906156c0565b60405180910390fd5b8061336e7f360894a13ba1a3210667c828492db98dca3e2076cc3735a920a3ca505d382bbc60001b6132ef565b60000160006101000a81548173ffffffffffffffffffffffffffffffffffffffff021916908373ffffffffffffffffffffffffffffffffffffffff16021790555050565b60606133bd836119c0565b6133fc576040517f08c379a00000000000000000000000000000000000000000000000000000000081526004016133f390615780565b60405180910390fd5b6000808473ffffffffffffffffffffffffffffffffffffffff16846040516134249190615178565b600060405180830381855af49150503d806000811461345f576040519150601f19603f3d011682016040523d82523d6000602084013e613464565b606091505b509150915061348c828260405180606001604052806027815260200161680d60279139613f84565b9250505092915050565b6000819050919050565b6134a9816132f9565b8073ffffffffffffffffffffffffffffffffffffffff167fbc7cd75a20ee27fd9adebab32041f755214dbc6bffa90cc0225b39da2e5c2d3b60405160405180910390a250565b6134f881613feb565b600060cb6000838152602001908152602001600020805461351890615bdc565b90501461353f5760cb6000828152602001908152602001600020600061353e919061454b565b5b50565b60006135638473ffffffffffffffffffffffffffffffffffffffff166119c0565b156136cc578373ffffffffffffffffffffffffffffffffffffffff1663150b7a0261358c6120ab565b8786866040518563ffffffff1660e01b81526004016135ae949392919061523f565b602060405180830381600087803b1580156135c857600080fd5b505af19250505080156135f957506040513d601f19601f820116820180604052508101906135f69190614a80565b60015b61367c573d8060008114613629576040519150601f19603f3d011682016040523d82523d6000602084013e61362e565b606091505b50600081511415613674576040517f08c379a000000000000000000000000000000000000000000000000000000000815260040161366b90615440565b60405180910390fd5b805181602001fd5b63150b7a0260e01b7bffffffffffffffffffffffffffffffffffffffffffffffffffffffff1916817bffffffffffffffffffffffffffffffffffffffffffffffffffffffff1916149150506136d1565b600190505b949350505050565b600060019054906101000a900460ff16613728576040517f08c379a000000000000000000000000000000000000000000000000000000000815260040161371f906157c0565b60405180910390fd5b565b600060019054906101000a900460ff16613779576040517f08c379a0000000000000000000000000000000000000000000000000000000008152600401613770906157c0565b60405180910390fd5b565b600060019054906101000a900460ff166137ca576040517f08c379a00000000000000000000000000000000000000000000000000000000081526004016137c1906157c0565b60405180910390fd5b81606590805190602001906137e09291906144c5565b5080606690805190602001906137f79291906144c5565b505050565b600060019054906101000a900460ff1661384b576040517f08c379a0000000000000000000000000000000000000000000000000000000008152600401613842906157c0565b60405180910390fd5b600082805190602001209050600082805190602001209050816097819055508060988190555050505050565b600060019054906101000a900460ff166138c6576040517f08c379a00000000000000000000000000000000000000000000000000000000081526004016138bd906157c0565b60405180910390fd5b565b600060019054906101000a900460ff16613917576040517f08c379a000000000000000000000000000000000000000000000000000000000815260040161390e906157c0565b60405180910390fd5b600060fd60006101000a81548160ff021916908315150217905550565b600060019054906101000a900460ff16613983576040517f08c379a000000000000000000000000000000000000000000000000000000000815260040161397a906157c0565b60405180910390fd5b565b600060019054906101000a900460ff166139d4576040517f08c379a00000000000000000000000000000000000000000000000000000000081526004016139cb906157c0565b60405180910390fd5b565b600060019054906101000a900460ff16613a25576040517f08c379a0000000000000000000000000000000000000000000000000000000008152600401613a1c906157c0565b60405180910390fd5b565b600060019054906101000a900460ff16613a76576040517f08c379a0000000000000000000000000000000000000000000000000000000008152600401613a6d906157c0565b60405180910390fd5b565b606060405180602001604052806000815250905090565b6060613a9a82611b2f565b613ad9576040517f08c379a0000000000000000000000000000000000000000000000000000000008152600401613ad090615700565b60405180910390fd5b6000613ae3613a78565b90506000815111613b035760405180602001604052806000815250613b2e565b80613b0d846140fc565b604051602001613b1e92919061518f565b6040516020818303038152906040525b915050919050565b613b408383611c0d565b613b4d6000848484613542565b613b8c576040517f08c379a0000000000000000000000000000000000000000000000000000000008152600401613b8390615440565b60405180910390fd5b505050565b6000613ba4613b9e6142a9565b836142e9565b9050919050565b600080604183511415613bed5760008060006020860151925060408601519150606086015160001a9050613be18782858561431c565b94509450505050613c27565b604083511415613c1e576000806020850151915060408501519050613c13868383614429565b935093505050613c27565b60006002915091505b9250929050565b60006004811115613c68577f4e487b7100000000000000000000000000000000000000000000000000000000600052602160045260246000fd5b816004811115613ca1577f4e487b7100000000000000000000000000000000000000000000000000000000600052602160045260246000fd5b1415613cac57613f7c565b60016004811115613ce6577f4e487b7100000000000000000000000000000000000000000000000000000000600052602160045260246000fd5b816004811115613d1f577f4e487b7100000000000000000000000000000000000000000000000000000000600052602160045260246000fd5b1415613d60576040517f08c379a0000000000000000000000000000000000000000000000000000000008152600401613d57906153c0565b60405180910390fd5b60026004811115613d9a577f4e487b7100000000000000000000000000000000000000000000000000000000600052602160045260246000fd5b816004811115613dd3577f4e487b7100000000000000000000000000000000000000000000000000000000600052602160045260246000fd5b1415613e14576040517f08c379a0000000000000000000000000000000000000000000000000000000008152600401613e0b90615420565b60405180910390fd5b60036004811115613e4e577f4e487b7100000000000000000000000000000000000000000000000000000000600052602160045260246000fd5b816004811115613e87577f4e487b7100000000000000000000000000000000000000000000000000000000600052602160045260246000fd5b1415613ec8576040517f08c379a0000000000000000000000000000000000000000000000000000000008152600401613ebf90615500565b60405180910390fd5b600480811115613f01577f4e487b7100000000000000000000000000000000000000000000000000000000600052602160045260246000fd5b816004811115613f3a577f4e487b7100000000000000000000000000000000000000000000000000000000600052602160045260246000fd5b1415613f7b576040517f08c379a0000000000000000000000000000000000000000000000000000000008152600401613f7290615620565b60405180910390fd5b5b50565b505050565b60608315613f9457829050613fe4565b600083511115613fa75782518084602001fd5b816040517f08c379a0000000000000000000000000000000000000000000000000000000008152600401613fdb919061539e565b60405180910390fd5b9392505050565b6000613ff682611237565b905061400481600084612f9d565b61400f6000836120b3565b6001606860008373ffffffffffffffffffffffffffffffffffffffff1673ffffffffffffffffffffffffffffffffffffffff168152602001908152602001600020600082825461405f9190615a9f565b925050819055506067600083815260200190815260200160002060006101000a81549073ffffffffffffffffffffffffffffffffffffffff021916905581600073ffffffffffffffffffffffffffffffffffffffff168273ffffffffffffffffffffffffffffffffffffffff167fddf252ad1be2c89b69c2b068fc378daa952ba7f163c4a11628f55a4df523b3ef60405160405180910390a45050565b60606000821415614144576040518060400160405280600181526020017f300000000000000000000000000000000000000000000000000000000000000081525090506142a4565b600082905060005b6000821461417657808061415f90615c3f565b915050600a8261416f9190615a14565b915061414c565b60008167ffffffffffffffff8111156141b8577f4e487b7100000000000000000000000000000000000000000000000000000000600052604160045260246000fd5b6040519080825280601f01601f1916602001820160405280156141ea5781602001600182028036833780820191505090505b5090505b6000851461429d576001826142039190615a9f565b9150600a856142129190615c92565b603061421e91906159be565b60f81b81838151811061425a577f4e487b7100000000000000000000000000000000000000000000000000000000600052603260045260246000fd5b60200101907effffffffffffffffffffffffffffffffffffffffffffffffffffffffffffff1916908160001a905350600a856142969190615a14565b94506141ee565b8093505050505b919050565b60006142e47f8b73c3c69bb8fe3d512ecc4cf759cc79239f7b179b0ffacaa9a75d522b39400f6142d7614477565b6142df614481565b61448b565b905090565b600082826040516020016142fe9291906151b3565b60405160208183030381529060405280519060200120905092915050565b6000807f7fffffffffffffffffffffffffffffff5d576e7357a4501ddfe92f46681b20a08360001c1115614357576000600391509150614420565b601b8560ff161415801561436f5750601c8560ff1614155b15614381576000600491509150614420565b6000600187878787604051600081526020016040526040516143a69493929190615359565b6020604051602081039080840390855afa1580156143c8573d6000803e3d6000fd5b505050602060405103519050600073ffffffffffffffffffffffffffffffffffffffff168173ffffffffffffffffffffffffffffffffffffffff16141561441757600060019250925050614420565b80600092509250505b94509492505050565b6000806000807f7fffffffffffffffffffffffffffffffffffffffffffffffffffffffffffffff85169150601b8560ff1c0190506144698782888561431c565b935093505050935093915050565b6000609754905090565b6000609854905090565b600083838346306040516020016144a69594939291906152c1565b6040516020818303038152906040528051906020012090509392505050565b8280546144d190615bdc565b90600052602060002090601f0160209004810192826144f3576000855561453a565b82601f1061450c57805160ff191683800117855561453a565b8280016001018555821561453a579182015b8281111561453957825182559160200191906001019061451e565b5b509050614547919061458b565b5090565b50805461455790615bdc565b6000825580601f106145695750614588565b601f016020900490600052602060002090810190614587919061458b565b5b50565b5b808211156145a457600081600090555060010161458c565b5090565b60006145bb6145b68461590e565b6158e9565b9050828152602081018484840111156145d357600080fd5b6145de848285615b70565b509392505050565b60006145f96145f48461593f565b6158e9565b90508281526020810184848401111561461157600080fd5b61461c848285615b70565b509392505050565b60008135905061463381616782565b92915050565b60008135905061464881616799565b92915050565b60008135905061465d816167b0565b92915050565b600081359050614672816167c7565b92915050565b600081359050614687816167de565b92915050565b60008151905061469c816167de565b92915050565b600082601f8301126146b357600080fd5b81356146c38482602086016145a8565b91505092915050565b600082601f8301126146dd57600080fd5b81356146ed8482602086016145e6565b91505092915050565b60006080828403121561470857600080fd5b81905092915050565b600081359050614720816167f5565b92915050565b60006020828403121561473857600080fd5b600061474684828501614624565b91505092915050565b60006020828403121561476157600080fd5b600061476f84828501614639565b91505092915050565b6000806040838503121561478b57600080fd5b600061479985828601614624565b92505060206147aa85828601614624565b9150509250929050565b6000806000606084860312156147c957600080fd5b60006147d786828701614624565b93505060206147e886828701614624565b92505060406147f986828701614711565b9150509250925092565b6000806000806080858703121561481957600080fd5b600061482787828801614624565b945050602061483887828801614624565b935050604061484987828801614711565b925050606085013567ffffffffffffffff81111561486657600080fd5b614872878288016146a2565b91505092959194509250565b6000806040838503121561489157600080fd5b600061489f85828601614624565b92505060206148b08582860161464e565b9150509250929050565b600080604083850312156148cd57600080fd5b60006148db85828601614624565b925050602083013567ffffffffffffffff8111156148f857600080fd5b614904858286016146a2565b9150509250929050565b6000806040838503121561492157600080fd5b600061492f85828601614624565b925050602083013567ffffffffffffffff81111561494c57600080fd5b614958858286016146cc565b9150509250929050565b6000806040838503121561497557600080fd5b600061498385828601614624565b925050602083013567ffffffffffffffff8111156149a057600080fd5b6149ac858286016146f6565b9150509250929050565b600080604083850312156149c957600080fd5b60006149d785828601614624565b92505060206149e885828601614711565b9150509250929050565b600060208284031215614a0457600080fd5b6000614a1284828501614663565b91505092915050565b60008060408385031215614a2e57600080fd5b6000614a3c85828601614663565b9250506020614a4d85828601614624565b9150509250929050565b600060208284031215614a6957600080fd5b6000614a7784828501614678565b91505092915050565b600060208284031215614a9257600080fd5b6000614aa08482850161468d565b91505092915050565b600060208284031215614abb57600080fd5b6000614ac984828501614711565b91505092915050565b614adb81615ad3565b82525050565b614aea81615af7565b82525050565b614af981615b03565b82525050565b614b10614b0b82615b03565b615c88565b82525050565b6000614b228385615997565b9350614b2f838584615b70565b82840190509392505050565b6000614b4682615970565b614b508185615986565b9350614b60818560208601615b7f565b614b6981615d7f565b840191505092915050565b6000614b7f82615970565b614b898185615997565b9350614b99818560208601615b7f565b80840191505092915050565b6000614bb08261597b565b614bba81856159a2565b9350614bca818560208601615b7f565b614bd381615d7f565b840191505092915050565b6000614be98261597b565b614bf381856159b3565b9350614c03818560208601615b7f565b80840191505092915050565b6000614c1c6018836159a2565b9150614c2782615d90565b602082019050919050565b6000614c3f6020836159a2565b9150614c4a82615db9565b602082019050919050565b6000614c626014836159a2565b9150614c6d82615de2565b602082019050919050565b6000614c85601f836159a2565b9150614c9082615e0b565b602082019050919050565b6000614ca86032836159a2565b9150614cb382615e34565b604082019050919050565b6000614ccb602f836159a2565b9150614cd682615e83565b604082019050919050565b6000614cee601c836159a2565b9150614cf982615ed2565b602082019050919050565b6000614d116002836159b3565b9150614d1c82615efb565b600282019050919050565b6000614d34602c836159a2565b9150614d3f82615f24565b604082019050919050565b6000614d576024836159a2565b9150614d6282615f73565b604082019050919050565b6000614d7a6019836159a2565b9150614d8582615fc2565b602082019050919050565b6000614d9d6022836159a2565b9150614da882615feb565b604082019050919050565b6000614dc0602c836159a2565b9150614dcb8261603a565b604082019050919050565b6000614de3602c836159a2565b9150614dee82616089565b604082019050919050565b6000614e066010836159a2565b9150614e11826160d8565b602082019050919050565b6000614e296038836159a2565b9150614e3482616101565b604082019050919050565b6000614e4c602a836159a2565b9150614e5782616150565b604082019050919050565b6000614e6f6029836159a2565b9150614e7a8261619f565b604082019050919050565b6000614e92602e836159a2565b9150614e9d826161ee565b604082019050919050565b6000614eb5602e836159a2565b9150614ec08261623d565b604082019050919050565b6000614ed86022836159a2565b9150614ee38261628c565b604082019050919050565b6000614efb601c836159a2565b9150614f06826162db565b602082019050919050565b6000614f1e6020836159a2565b9150614f2982616304565b602082019050919050565b6000614f416031836159a2565b9150614f4c8261632d565b604082019050919050565b6000614f64602c836159a2565b9150614f6f8261637c565b604082019050919050565b6000614f87602d836159a2565b9150614f92826163cb565b604082019050919050565b6000614faa6029836159a2565b9150614fb58261641a565b604082019050919050565b6000614fcd602f836159a2565b9150614fd882616469565b604082019050919050565b6000614ff06024836159a2565b9150614ffb826164b8565b604082019050919050565b60006150136021836159a2565b915061501e82616507565b604082019050919050565b60006150366021836159a2565b915061504182616556565b604082019050919050565b60006150596026836159a2565b9150615064826165a5565b604082019050919050565b600061507c6031836159a2565b9150615087826165f4565b604082019050919050565b600061509f602b836159a2565b91506150aa82616643565b604082019050919050565b60006150c26017836159b3565b91506150cd82616692565b601782019050919050565b60006150e56030836159a2565b91506150f0826166bb565b604082019050919050565b60006151086011836159b3565b91506151138261670a565b601182019050919050565b600061512b602f836159a2565b915061513682616733565b604082019050919050565b61514a81615b59565b82525050565b61515981615b63565b82525050565b600061516c828486614b16565b91508190509392505050565b60006151848284614b74565b915081905092915050565b600061519b8285614bde565b91506151a78284614bde565b91508190509392505050565b60006151be82614d04565b91506151ca8285614aff565b6020820191506151da8284614aff565b6020820191508190509392505050565b60006151f5826150b5565b91506152018285614bde565b915061520c826150fb565b91506152188284614bde565b91508190509392505050565b60006020820190506152396000830184614ad2565b92915050565b60006080820190506152546000830187614ad2565b6152616020830186614ad2565b61526e6040830185615141565b81810360608301526152808184614b3b565b905095945050505050565b60006020820190506152a06000830184614ae1565b92915050565b60006020820190506152bb6000830184614af0565b92915050565b600060a0820190506152d66000830188614af0565b6152e36020830187614af0565b6152f06040830186614af0565b6152fd6060830185615141565b61530a6080830184614ad2565b9695505050505050565b60006080820190506153296000830187614af0565b6153366020830186615141565b6153436040830185615141565b6153506060830184614af0565b95945050505050565b600060808201905061536e6000830187614af0565b61537b6020830186615150565b6153886040830185614af0565b6153956060830184614af0565b95945050505050565b600060208201905081810360008301526153b88184614ba5565b905092915050565b600060208201905081810360008301526153d981614c0f565b9050919050565b600060208201905081810360008301526153f981614c32565b9050919050565b6000602082019050818103600083015261541981614c55565b9050919050565b6000602082019050818103600083015261543981614c78565b9050919050565b6000602082019050818103600083015261545981614c9b565b9050919050565b6000602082019050818103600083015261547981614cbe565b9050919050565b6000602082019050818103600083015261549981614ce1565b9050919050565b600060208201905081810360008301526154b981614d27565b9050919050565b600060208201905081810360008301526154d981614d4a565b9050919050565b600060208201905081810360008301526154f981614d6d565b9050919050565b6000602082019050818103600083015261551981614d90565b9050919050565b6000602082019050818103600083015261553981614db3565b9050919050565b6000602082019050818103600083015261555981614dd6565b9050919050565b6000602082019050818103600083015261557981614df9565b9050919050565b6000602082019050818103600083015261559981614e1c565b9050919050565b600060208201905081810360008301526155b981614e3f565b9050919050565b600060208201905081810360008301526155d981614e62565b9050919050565b600060208201905081810360008301526155f981614e85565b9050919050565b6000602082019050818103600083015261561981614ea8565b9050919050565b6000602082019050818103600083015261563981614ecb565b9050919050565b6000602082019050818103600083015261565981614eee565b9050919050565b6000602082019050818103600083015261567981614f11565b9050919050565b6000602082019050818103600083015261569981614f34565b9050919050565b600060208201905081810360008301526156b981614f57565b9050919050565b600060208201905081810360008301526156d981614f7a565b9050919050565b600060208201905081810360008301526156f981614f9d565b9050919050565b6000602082019050818103600083015261571981614fc0565b9050919050565b6000602082019050818103600083015261573981614fe3565b9050919050565b6000602082019050818103600083015261575981615006565b9050919050565b6000602082019050818103600083015261577981615029565b9050919050565b600060208201905081810360008301526157998161504c565b9050919050565b600060208201905081810360008301526157b98161506f565b9050919050565b600060208201905081810360008301526157d981615092565b9050919050565b600060208201905081810360008301526157f9816150d8565b9050919050565b600060208201905081810360008301526158198161511e565b9050919050565b60006020820190506158356000830184615141565b92915050565b6000808335600160200384360303811261585457600080fd5b80840192508235915067ffffffffffffffff82111561587257600080fd5b60208301925060018202360383131561588a57600080fd5b509250929050565b600080833560016020038436030381126158ab57600080fd5b80840192508235915067ffffffffffffffff8211156158c957600080fd5b6020830192506001820236038313156158e157600080fd5b509250929050565b60006158f3615904565b90506158ff8282615c0e565b919050565b6000604051905090565b600067ffffffffffffffff82111561592957615928615d50565b5b61593282615d7f565b9050602081019050919050565b600067ffffffffffffffff82111561595a57615959615d50565b5b61596382615d7f565b9050602081019050919050565b600081519050919050565b600081519050919050565b600082825260208201905092915050565b600081905092915050565b600082825260208201905092915050565b600081905092915050565b60006159c982615b59565b91506159d483615b59565b9250827fffffffffffffffffffffffffffffffffffffffffffffffffffffffffffffffff03821115615a0957615a08615cc3565b5b828201905092915050565b6000615a1f82615b59565b9150615a2a83615b59565b925082615a3a57615a39615cf2565b5b828204905092915050565b6000615a5082615b59565b9150615a5b83615b59565b9250817fffffffffffffffffffffffffffffffffffffffffffffffffffffffffffffffff0483118215151615615a9457615a93615cc3565b5b828202905092915050565b6000615aaa82615b59565b9150615ab583615b59565b925082821015615ac857615ac7615cc3565b5b828203905092915050565b6000615ade82615b39565b9050919050565b6000615af082615b39565b9050919050565b60008115159050919050565b6000819050919050565b60007fffffffff0000000000000000000000000000000000000000000000000000000082169050919050565b600073ffffffffffffffffffffffffffffffffffffffff82169050919050565b6000819050919050565b600060ff82169050919050565b82818337600083830152505050565b60005b83811015615b9d578082015181840152602081019050615b82565b83811115615bac576000848401525b50505050565b6000615bbd82615b59565b91506000821415615bd157615bd0615cc3565b5b600182039050919050565b60006002820490506001821680615bf457607f821691505b60208210811415615c0857615c07615d21565b5b50919050565b615c1782615d7f565b810181811067ffffffffffffffff82111715615c3657615c35615d50565b5b80604052505050565b6000615c4a82615b59565b91507fffffffffffffffffffffffffffffffffffffffffffffffffffffffffffffffff821415615c7d57615c7c615cc3565b5b600182019050919050565b6000819050919050565b6000615c9d82615b59565b9150615ca883615b59565b925082615cb857615cb7615cf2565b5b828206905092915050565b7f4e487b7100000000000000000000000000000000000000000000000000000000600052601160045260246000fd5b7f4e487b7100000000000000000000000000000000000000000000000000000000600052601260045260246000fd5b7f4e487b7100000000000000000000000000000000000000000000000000000000600052602260045260246000fd5b7f4e487b7100000000000000000000000000000000000000000000000000000000600052604160045260246000fd5b6000601f19601f8301169050919050565b7f45434453413a20696e76616c6964207369676e61747572650000000000000000600082015250565b7f537472696e67733a20686578206c656e67746820696e73756666696369656e74600082015250565b7f5061757361626c653a206e6f7420706175736564000000000000000000000000600082015250565b7f45434453413a20696e76616c6964207369676e6174757265206c656e67746800600082015250565b7f4552433732313a207472616e7366657220746f206e6f6e20455243373231526560008201527f63656976657220696d706c656d656e7465720000000000000000000000000000602082015250565b7f45524331393637557067726164653a207570677261646520627265616b73206660008201527f7572746865722075706772616465730000000000000000000000000000000000602082015250565b7f4552433732313a20746f6b656e20616c7265616479206d696e74656400000000600082015250565b7f1901000000000000000000000000000000000000000000000000000000000000600082015250565b7f46756e6374696f6e206d7573742062652063616c6c6564207468726f7567682060008201527f64656c656761746563616c6c0000000000000000000000000000000000000000602082015250565b7f4552433732313a207472616e7366657220746f20746865207a65726f2061646460008201527f7265737300000000000000000000000000000000000000000000000000000000602082015250565b7f4552433732313a20617070726f766520746f2063616c6c657200000000000000600082015250565b7f45434453413a20696e76616c6964207369676e6174757265202773272076616c60008201527f7565000000000000000000000000000000000000000000000000000000000000602082015250565b7f46756e6374696f6e206d7573742062652063616c6c6564207468726f7567682060008201527f6163746976652070726f78790000000000000000000000000000000000000000602082015250565b7f4552433732313a206f70657261746f7220717565727920666f72206e6f6e657860008201527f697374656e7420746f6b656e0000000000000000000000000000000000000000602082015250565b7f5061757361626c653a2070617573656400000000000000000000000000000000600082015250565b7f4552433732313a20617070726f76652063616c6c6572206973206e6f74206f7760008201527f6e6572206e6f7220617070726f76656420666f7220616c6c0000000000000000602082015250565b7f4552433732313a2062616c616e636520717565727920666f7220746865207a6560008201527f726f206164647265737300000000000000000000000000000000000000000000602082015250565b7f4552433732313a206f776e657220717565727920666f72206e6f6e657869737460008201527f656e7420746f6b656e0000000000000000000000000000000000000000000000602082015250565b7f45524337323155524953746f726167653a2055524920736574206f66206e6f6e60008201527f6578697374656e7420746f6b656e000000000000000000000000000000000000602082015250565b7f496e697469616c697a61626c653a20636f6e747261637420697320616c72656160008201527f647920696e697469616c697a6564000000000000000000000000000000000000602082015250565b7f45434453413a20696e76616c6964207369676e6174757265202776272076616c60008201527f7565000000000000000000000000000000000000000000000000000000000000602082015250565b7f496e73756666696369656e742066756e647320746f2072656465656d00000000600082015250565b7f4552433732313a206d696e7420746f20746865207a65726f2061646472657373600082015250565b7f45524337323155524953746f726167653a2055524920717565727920666f722060008201527f6e6f6e6578697374656e7420746f6b656e000000000000000000000000000000602082015250565b7f4552433732313a20617070726f76656420717565727920666f72206e6f6e657860008201527f697374656e7420746f6b656e0000000000000000000000000000000000000000602082015250565b7f455243313936373a206e657720696d706c656d656e746174696f6e206973206e60008201527f6f74206120636f6e747261637400000000000000000000000000000000000000602082015250565b7f4552433732313a207472616e73666572206f6620746f6b656e2074686174206960008201527f73206e6f74206f776e0000000000000000000000000000000000000000000000602082015250565b7f4552433732314d657461646174613a2055524920717565727920666f72206e6f60008201527f6e6578697374656e7420746f6b656e0000000000000000000000000000000000602082015250565b7f4f6e6c7920617574686f72697a6564206d696e746572732063616e207769746860008201527f6472617700000000000000000000000000000000000000000000000000000000602082015250565b7f4552433732313a20617070726f76616c20746f2063757272656e74206f776e6560008201527f7200000000000000000000000000000000000000000000000000000000000000602082015250565b7f5369676e617475726520696e76616c6964206f7220756e617574686f72697a6560008201527f6400000000000000000000000000000000000000000000000000000000000000602082015250565b7f416464726573733a2064656c65676174652063616c6c20746f206e6f6e2d636f60008201527f6e74726163740000000000000000000000000000000000000000000000000000602082015250565b7f4552433732313a207472616e736665722063616c6c6572206973206e6f74206f60008201527f776e6572206e6f7220617070726f766564000000000000000000000000000000602082015250565b7f496e697469616c697a61626c653a20636f6e7472616374206973206e6f74206960008201527f6e697469616c697a696e67000000000000000000000000000000000000000000602082015250565b7f416363657373436f6e74726f6c3a206163636f756e7420000000000000000000600082015250565b7f4552433732314275726e61626c653a2063616c6c6572206973206e6f74206f7760008201527f6e6572206e6f7220617070726f76656400000000000000000000000000000000602082015250565b7f206973206d697373696e6720726f6c6520000000000000000000000000000000600082015250565b7f416363657373436f6e74726f6c3a2063616e206f6e6c792072656e6f756e636560008201527f20726f6c657320666f722073656c660000000000000000000000000000000000602082015250565b61678b81615ad3565b811461679657600080fd5b50565b6167a281615ae5565b81146167ad57600080fd5b50565b6167b981615af7565b81146167c457600080fd5b50565b6167d081615b03565b81146167db57600080fd5b50565b6167e781615b0d565b81146167f257600080fd5b50565b6167fe81615b59565b811461680957600080fd5b5056fe416464726573733a206c6f772d6c6576656c2064656c65676174652063616c6c206661696c6564a264697066735822122077320e7539f7a979793a0fa9cd5016e3a04d6b6784cff7882cd899ca69188ebc64736f6c63430008020033",
  "immutableReferences": {
    "1051": [
      {
        "length": 32,
        "start": 3372
      },
      {
        "length": 32,
        "start": 3515
      },
      {
        "length": 32,
        "start": 4312
      },
      {
        "length": 32,
        "start": 4455
      }
    ]
  },
  "source": "// SPDX-License-Identifier: MIT\r\npragma solidity ^0.8.2;\r\nimport \"@openzeppelin/contracts-upgradeable/token/ERC721/ERC721Upgradeable.sol\";\r\nimport \"@openzeppelin/contracts-upgradeable/token/ERC721/extensions/ERC721URIStorageUpgradeable.sol\";\r\nimport \"@openzeppelin/contracts/token/ERC721/ERC721.sol\";\r\nimport \"@openzeppelin/contracts-upgradeable/security/PausableUpgradeable.sol\";\r\nimport \"@openzeppelin/contracts-upgradeable/access/AccessControlUpgradeable.sol\";\r\nimport \"@openzeppelin/contracts-upgradeable/token/ERC721/extensions/ERC721BurnableUpgradeable.sol\";\r\nimport \"@openzeppelin/contracts-upgradeable/proxy/utils/Initializable.sol\";\r\nimport \"@openzeppelin/contracts-upgradeable/proxy/utils/UUPSUpgradeable.sol\";\r\nimport \"@openzeppelin/contracts-upgradeable/utils/CountersUpgradeable.sol\";\r\n//imports from the lazy minting guide\r\nimport \"@openzeppelin/contracts/utils/cryptography/ECDSA.sol\";\r\nimport \"@openzeppelin/contracts-upgradeable/utils/cryptography/draft-EIP712Upgradeable.sol\";\r\n\r\n\r\n//ZeNFT implementation for ERC721's\r\n contract ZNFT is Initializable, ERC721Upgradeable, EIP712Upgradeable, ERC721URIStorageUpgradeable, PausableUpgradeable, \r\n AccessControlUpgradeable, ERC721BurnableUpgradeable, UUPSUpgradeable {\r\n    //lazy minter stuff\r\n    bytes32 public constant MINTER_ROLE = keccak256(\"MINTER_ROLE\");\r\n    bytes32 public constant PAUSER_ROLE = keccak256(\"PAUSER_ROLE\");\r\n    bytes32 public constant UPGRADER_ROLE = keccak256(\"DEFAULT_ADMIN_ROLE\");\r\n    string private constant SIGNING_DOMAIN = \"ZeNFT-Minter\";\r\n    string private constant SIGNATURE_VERSION = \"1.0\";\r\n    /*royalties\r\n    address public artist;\r\n    uint public txFeeAmount;\r\n    mapping(address => bool) public excludedList;\r\n    */\r\n    using CountersUpgradeable for CountersUpgradeable.Counter;\r\n    mapping (address => uint256) pendingWithdrawals;\r\n\r\n    CountersUpgradeable.Counter private _tokenIdCounter;\r\n    constructor() initializer {}\r\n    function initialize(address payable minter) initializer public {\r\n        __ERC721_init(\"zNFT\", \"Zens\");\r\n        __EIP712_init(\"ZeNFT\", \"1.0\");\r\n        __ERC721URIStorage_init();\r\n        __Pausable_init();\r\n        __ERC721Burnable_init();\r\n        __UUPSUpgradeable_init();\r\n        __AccessControl_init();\r\n\r\n        _setupRole(MINTER_ROLE, minter);\r\n        _setupRole(DEFAULT_ADMIN_ROLE, msg.sender);\r\n        grantRole(PAUSER_ROLE, msg.sender);\r\n    }\r\n        \r\n    function pause() public onlyRole(PAUSER_ROLE) {\r\n        _pause();\r\n    }\r\n    function unpause() public onlyRole(PAUSER_ROLE) {\r\n        _unpause();\r\n    }\r\n\r\n    function safeMint(address to, string memory uri) public onlyRole(MINTER_ROLE) {\r\n        uint256 tokenId = _tokenIdCounter.current();\r\n        _tokenIdCounter.increment();\r\n        _safeMint(to, tokenId);\r\n        _setTokenURI(tokenId, uri);\r\n    }\r\n    function _beforeTokenTransfer(address from, address to, uint256 tokenId) internal whenNotPaused override{\r\n        super._beforeTokenTransfer(from, to, tokenId);\r\n    }\r\n//Only the owner can call this function in which you pass in the contract address of the newly deployed contract\r\n//called the new Implementation\r\n    function _authorizeUpgrade(address newImplementation)internal onlyRole(DEFAULT_ADMIN_ROLE) override{\r\n        }\r\n    // The following functions are overrides required by Solidity.\r\n    function _burn(uint256 tokenId) internal override(ERC721Upgradeable, ERC721URIStorageUpgradeable){\r\n        super._burn(tokenId);\r\n    }\r\n    //\r\n    function tokenURI(uint256 tokenId)public view override(ERC721Upgradeable, ERC721URIStorageUpgradeable) returns (string memory){\r\n        return super.tokenURI(tokenId);\r\n    }\r\n\r\n  //if you are doing an airdrop then you have to take the minimum price out of it and then the buyer pays the gas fees\r\n  ///Represents an un-minted NFT, which has not yet been recorded into the blockchain. A signed voucher can be redeemed for a real NFT using the redeem function.\r\n  struct NFTVoucher {\r\n    // The id of the token to be redeemed. Must be unique - if another token with this ID already exists, the redeem function will revert.\r\n    uint256 tokenId;\r\n    //The minimum price (in wei) that the NFT creator is willing to accept for the initial sale of this NFT.\r\n    uint256 minPrice;\r\n    //The metadata URI to associate with this token.\r\n    string uri;\r\n    //the EIP-712 signature of all other fields in the NFTVoucher struct. For a voucher to be valid, it must be signed by an account with the MINTER_ROLE.\r\n    bytes signature;\r\n  }\r\n  /// notice Redeems an NFTVoucher for an actual NFT, creating it in the process.\r\n  /// param redeemer The address of the account which will receive the NFT upon success.\r\n  /// param voucher A signed NFTVoucher that describes the NFT to be redeemed.\r\n  function redeem(address redeemer, NFTVoucher calldata voucher) public payable returns (uint256) {\r\n    // make sure signature is valid and get the address of the signer\r\n    address signer = _verify(voucher);\r\n    // make sure that the signer is authorized to mint NFTs\r\n    require(hasRole(MINTER_ROLE, signer), \"Signature invalid or unauthorized\");\r\n    // make sure that the redeemer is paying enough to cover the buyer's cost\r\n    require(msg.value >= voucher.minPrice, \"Insufficient funds to redeem\");\r\n    // first assign the token to the signer, to establish provenance on-chain\r\n    _mint(signer, voucher.tokenId);\r\n    _setTokenURI(voucher.tokenId, voucher.uri);\r\n    // transfer the token to the redeemer\r\n    _transfer(signer, redeemer, voucher.tokenId);\r\n    // record payment to signer's withdrawal balance\r\n    pendingWithdrawals[signer] += msg.value;\r\n    //you return the tkenID\r\n    return voucher.tokenId;\r\n  }\r\n\r\n  /// notice Transfers all pending withdrawal balance to the caller. Reverts if the caller is not an authorized minter.\r\n  function withdraw() public {\r\n    //hasRole\r\n    require(hasRole(MINTER_ROLE, msg.sender), \"Only authorized minters can withdraw\");\r\n    // IMPORTANT: casting msg.sender to a payable address is only safe if ALL members of the minter role are payable addresses.\r\n    address payable receiver = payable(msg.sender);\r\n    uint amount = pendingWithdrawals[receiver];\r\n    // zero account before transfer to prevent re-entrancy attack\r\n    pendingWithdrawals[receiver] = 0;\r\n    receiver.transfer(amount);\r\n  }\r\n  /// notice Retuns the amount of Ether available to the caller to withdraw.\r\n  function availableToWithdraw() public view returns (uint256) {\r\n    return pendingWithdrawals[msg.sender];\r\n  }\r\n\r\n  /// @notice Returns a hash of the given NFTVoucher, prepared using EIP712 typed data hashing rules.\r\n  /// @param voucher An NFTVoucher to hash.\r\n  function _hash(NFTVoucher calldata voucher) internal view returns (bytes32) {\r\n    return _hashTypedDataV4(keccak256(abi.encode(\r\n      keccak256(\"NFTVoucher(uint256 tokenId,uint256 minPrice,string uri)\"),\r\n      voucher.tokenId,\r\n      voucher.minPrice,\r\n      keccak256(bytes(voucher.uri))\r\n    )));\r\n  }\r\n  /// notice Returns the chain id of the current blockchain.\r\n  /// @dev This is used to workaround an issue with ganache returning different values from the on-chain chainid() function and\r\n  ///  the eth_chainId RPC method. See https://github.com/protocol/nft-website/issues/121 for context.\r\n  function getChainID() external view returns (uint256) {\r\n    uint256 id;\r\n    assembly {\r\n        id := chainid()\r\n    }\r\n    return id;\r\n  }\r\n  /// notice Verifies the signature for a given NFTVoucher, returning the address of the signer.\r\n  /// dev Will revert if the signature is invalid. Does not verify that the signer is authorized to mint NFTs.\r\n  /// param voucher An NFTVoucher describing an unminted NFT.\r\n  function _verify(NFTVoucher calldata voucher) internal view returns (address) {\r\n    bytes32 digest = _hash(voucher);\r\n    return ECDSA.recover(digest, voucher.signature);\r\n  }\r\n\r\n  function supportsInterface(bytes4 interfaceId) public view virtual override (AccessControlUpgradeable, ERC721Upgradeable) returns (bool) {\r\n    return ERC721Upgradeable.supportsInterface(interfaceId) || AccessControlUpgradeable.supportsInterface(interfaceId);\r\n  }\r\n\r\n\r\n/*Leftover from royalties\r\n//sets whether its excluded from paying royalties\r\n  function setExcluded(address excluded, bool status) external {\r\n    require(msg.sender == artist, 'artist only');\r\n    excludedList[excluded] = status;\r\n  }\r\n*/\r\n  function transferFrom(address from, address to, uint256 tokenId) public override {\r\n     require(ownerOf(tokenId) == msg.sender, 'ERC721: transfer caller is not owner nor approved');\r\n     _transfer(from, to, tokenId);\r\n  }\r\n// this should require an is approvedorOwner?\r\n  function safeTransferFrom(address from, address to, uint256 tokenId) public override  {\r\n     safeTransferFrom(from, to, tokenId, '');\r\n   }\r\n//look up to see why theres a seperate transferFrom adding in the bytes\r\n  function safeTransferFrom(address from, address to, uint256 tokenId, bytes memory _data) public override {\r\n    require(ownerOf(tokenId) == msg.sender, 'ERC721: transfer caller is not owner nor approved');\r\n    _safeTransfer(from, to, tokenId, _data);\r\n  }\r\n}\r\n\r\n",
  "sourcePath": "/home/elfindis/Documents/ZeNFT-Minter/contracts/zNFT.sol",
  "compiler": {
    "name": "solc",
    "version": "0.8.2+commit.661d1103.Emscripten.clang"
  },
  "schemaVersion": "3.4.4",
  "updatedAt": "2022-02-04T04:44:01.966Z",
  "devdoc": {
    "kind": "dev",
    "methods": {
      "approve(address,uint256)": {
        "details": "See {IERC721-approve}."
      },
      "balanceOf(address)": {
        "details": "See {IERC721-balanceOf}."
      },
      "burn(uint256)": {
        "details": "Burns `tokenId`. See {ERC721-_burn}. Requirements: - The caller must own `tokenId` or be an approved operator."
      },
      "getApproved(uint256)": {
        "details": "See {IERC721-getApproved}."
      },
      "getChainID()": {
        "details": "This is used to workaround an issue with ganache returning different values from the on-chain chainid() function and  the eth_chainId RPC method. See https://github.com/protocol/nft-website/issues/121 for context."
      },
      "getRoleAdmin(bytes32)": {
        "details": "Returns the admin role that controls `role`. See {grantRole} and {revokeRole}. To change a role's admin, use {_setRoleAdmin}."
      },
      "grantRole(bytes32,address)": {
        "details": "Grants `role` to `account`. If `account` had not been already granted `role`, emits a {RoleGranted} event. Requirements: - the caller must have ``role``'s admin role."
      },
      "hasRole(bytes32,address)": {
        "details": "Returns `true` if `account` has been granted `role`."
      },
      "isApprovedForAll(address,address)": {
        "details": "See {IERC721-isApprovedForAll}."
      },
      "name()": {
        "details": "See {IERC721Metadata-name}."
      },
      "ownerOf(uint256)": {
        "details": "See {IERC721-ownerOf}."
      },
      "paused()": {
        "details": "Returns true if the contract is paused, and false otherwise."
      },
      "renounceRole(bytes32,address)": {
        "details": "Revokes `role` from the calling account. Roles are often managed via {grantRole} and {revokeRole}: this function's purpose is to provide a mechanism for accounts to lose their privileges if they are compromised (such as when a trusted device is misplaced). If the calling account had been revoked `role`, emits a {RoleRevoked} event. Requirements: - the caller must be `account`."
      },
      "revokeRole(bytes32,address)": {
        "details": "Revokes `role` from `account`. If `account` had been granted `role`, emits a {RoleRevoked} event. Requirements: - the caller must have ``role``'s admin role."
      },
      "safeTransferFrom(address,address,uint256)": {
        "details": "See {IERC721-safeTransferFrom}."
      },
      "safeTransferFrom(address,address,uint256,bytes)": {
        "details": "See {IERC721-safeTransferFrom}."
      },
      "setApprovalForAll(address,bool)": {
        "details": "See {IERC721-setApprovalForAll}."
      },
      "symbol()": {
        "details": "See {IERC721Metadata-symbol}."
      },
      "transferFrom(address,address,uint256)": {
        "details": "See {IERC721-transferFrom}."
      },
      "upgradeTo(address)": {
        "details": "Upgrade the implementation of the proxy to `newImplementation`. Calls {_authorizeUpgrade}. Emits an {Upgraded} event."
      },
      "upgradeToAndCall(address,bytes)": {
        "details": "Upgrade the implementation of the proxy to `newImplementation`, and subsequently execute the function call encoded in `data`. Calls {_authorizeUpgrade}. Emits an {Upgraded} event."
      }
    },
    "version": 1
  },
  "userdoc": {
    "kind": "user",
    "methods": {
      "availableToWithdraw()": {
        "notice": "notice Retuns the amount of Ether available to the caller to withdraw."
      },
      "getChainID()": {
        "notice": "notice Returns the chain id of the current blockchain."
      },
      "redeem(address,(uint256,uint256,string,bytes))": {
        "notice": "notice Redeems an NFTVoucher for an actual NFT, creating it in the process. param redeemer The address of the account which will receive the NFT upon success. param voucher A signed NFTVoucher that describes the NFT to be redeemed."
      },
      "withdraw()": {
        "notice": "notice Transfers all pending withdrawal balance to the caller. Reverts if the caller is not an authorized minter."
      }
    },
    "version": 1
  }
}