{
  "contractName": "ZNFT",
  "abi": [
    {
      "anonymous": false,
      "inputs": [
        {
          "indexed": false,
          "internalType": "address",
          "name": "previousAdmin",
          "type": "address"
        },
        {
          "indexed": false,
          "internalType": "address",
          "name": "newAdmin",
          "type": "address"
        }
      ],
      "name": "AdminChanged",
      "type": "event"
    },
    {
      "anonymous": false,
      "inputs": [
        {
          "indexed": true,
          "internalType": "address",
          "name": "owner",
          "type": "address"
        },
        {
          "indexed": true,
          "internalType": "address",
          "name": "approved",
          "type": "address"
        },
        {
          "indexed": true,
          "internalType": "uint256",
          "name": "tokenId",
          "type": "uint256"
        }
      ],
      "name": "Approval",
      "type": "event"
    },
    {
      "anonymous": false,
      "inputs": [
        {
          "indexed": true,
          "internalType": "address",
          "name": "owner",
          "type": "address"
        },
        {
          "indexed": true,
          "internalType": "address",
          "name": "operator",
          "type": "address"
        },
        {
          "indexed": false,
          "internalType": "bool",
          "name": "approved",
          "type": "bool"
        }
      ],
      "name": "ApprovalForAll",
      "type": "event"
    },
    {
      "anonymous": false,
      "inputs": [
        {
          "indexed": true,
          "internalType": "address",
          "name": "beacon",
          "type": "address"
        }
      ],
      "name": "BeaconUpgraded",
      "type": "event"
    },
    {
      "anonymous": false,
      "inputs": [
        {
          "indexed": true,
          "internalType": "address",
          "name": "previousOwner",
          "type": "address"
        },
        {
          "indexed": true,
          "internalType": "address",
          "name": "newOwner",
          "type": "address"
        }
      ],
      "name": "OwnershipTransferred",
      "type": "event"
    },
    {
      "anonymous": false,
      "inputs": [
        {
          "indexed": false,
          "internalType": "address",
          "name": "account",
          "type": "address"
        }
      ],
      "name": "Paused",
      "type": "event"
    },
    {
      "anonymous": false,
      "inputs": [
        {
          "indexed": true,
          "internalType": "address",
          "name": "from",
          "type": "address"
        },
        {
          "indexed": true,
          "internalType": "address",
          "name": "to",
          "type": "address"
        },
        {
          "indexed": true,
          "internalType": "uint256",
          "name": "tokenId",
          "type": "uint256"
        }
      ],
      "name": "Transfer",
      "type": "event"
    },
    {
      "anonymous": false,
      "inputs": [
        {
          "indexed": false,
          "internalType": "address",
          "name": "account",
          "type": "address"
        }
      ],
      "name": "Unpaused",
      "type": "event"
    },
    {
      "anonymous": false,
      "inputs": [
        {
          "indexed": true,
          "internalType": "address",
          "name": "implementation",
          "type": "address"
        }
      ],
      "name": "Upgraded",
      "type": "event"
    },
    {
      "inputs": [
        {
          "internalType": "address",
          "name": "to",
          "type": "address"
        },
        {
          "internalType": "uint256",
          "name": "tokenId",
          "type": "uint256"
        }
      ],
      "name": "approve",
      "outputs": [],
      "stateMutability": "nonpayable",
      "type": "function"
    },
    {
      "inputs": [
        {
          "internalType": "address",
          "name": "owner",
          "type": "address"
        }
      ],
      "name": "balanceOf",
      "outputs": [
        {
          "internalType": "uint256",
          "name": "",
          "type": "uint256"
        }
      ],
      "stateMutability": "view",
      "type": "function"
    },
    {
      "inputs": [
        {
          "internalType": "uint256",
          "name": "tokenId",
          "type": "uint256"
        }
      ],
      "name": "burn",
      "outputs": [],
      "stateMutability": "nonpayable",
      "type": "function"
    },
    {
      "inputs": [
        {
          "internalType": "uint256",
          "name": "tokenId",
          "type": "uint256"
        }
      ],
      "name": "getApproved",
      "outputs": [
        {
          "internalType": "address",
          "name": "",
          "type": "address"
        }
      ],
      "stateMutability": "view",
      "type": "function"
    },
    {
      "inputs": [
        {
          "internalType": "address",
          "name": "owner",
          "type": "address"
        },
        {
          "internalType": "address",
          "name": "operator",
          "type": "address"
        }
      ],
      "name": "isApprovedForAll",
      "outputs": [
        {
          "internalType": "bool",
          "name": "",
          "type": "bool"
        }
      ],
      "stateMutability": "view",
      "type": "function"
    },
    {
      "inputs": [],
      "name": "name",
      "outputs": [
        {
          "internalType": "string",
          "name": "",
          "type": "string"
        }
      ],
      "stateMutability": "view",
      "type": "function"
    },
    {
      "inputs": [],
      "name": "owner",
      "outputs": [
        {
          "internalType": "address",
          "name": "",
          "type": "address"
        }
      ],
      "stateMutability": "view",
      "type": "function"
    },
    {
      "inputs": [
        {
          "internalType": "uint256",
          "name": "tokenId",
          "type": "uint256"
        }
      ],
      "name": "ownerOf",
      "outputs": [
        {
          "internalType": "address",
          "name": "",
          "type": "address"
        }
      ],
      "stateMutability": "view",
      "type": "function"
    },
    {
      "inputs": [],
      "name": "paused",
      "outputs": [
        {
          "internalType": "bool",
          "name": "",
          "type": "bool"
        }
      ],
      "stateMutability": "view",
      "type": "function"
    },
    {
      "inputs": [],
      "name": "renounceOwnership",
      "outputs": [],
      "stateMutability": "nonpayable",
      "type": "function"
    },
    {
      "inputs": [
        {
          "internalType": "address",
          "name": "from",
          "type": "address"
        },
        {
          "internalType": "address",
          "name": "to",
          "type": "address"
        },
        {
          "internalType": "uint256",
          "name": "tokenId",
          "type": "uint256"
        }
      ],
      "name": "safeTransferFrom",
      "outputs": [],
      "stateMutability": "nonpayable",
      "type": "function"
    },
    {
      "inputs": [
        {
          "internalType": "address",
          "name": "from",
          "type": "address"
        },
        {
          "internalType": "address",
          "name": "to",
          "type": "address"
        },
        {
          "internalType": "uint256",
          "name": "tokenId",
          "type": "uint256"
        },
        {
          "internalType": "bytes",
          "name": "_data",
          "type": "bytes"
        }
      ],
      "name": "safeTransferFrom",
      "outputs": [],
      "stateMutability": "nonpayable",
      "type": "function"
    },
    {
      "inputs": [
        {
          "internalType": "address",
          "name": "operator",
          "type": "address"
        },
        {
          "internalType": "bool",
          "name": "approved",
          "type": "bool"
        }
      ],
      "name": "setApprovalForAll",
      "outputs": [],
      "stateMutability": "nonpayable",
      "type": "function"
    },
    {
      "inputs": [
        {
          "internalType": "bytes4",
          "name": "interfaceId",
          "type": "bytes4"
        }
      ],
      "name": "supportsInterface",
      "outputs": [
        {
          "internalType": "bool",
          "name": "",
          "type": "bool"
        }
      ],
      "stateMutability": "view",
      "type": "function"
    },
    {
      "inputs": [],
      "name": "symbol",
      "outputs": [
        {
          "internalType": "string",
          "name": "",
          "type": "string"
        }
      ],
      "stateMutability": "view",
      "type": "function"
    },
    {
      "inputs": [
        {
          "internalType": "address",
          "name": "from",
          "type": "address"
        },
        {
          "internalType": "address",
          "name": "to",
          "type": "address"
        },
        {
          "internalType": "uint256",
          "name": "tokenId",
          "type": "uint256"
        }
      ],
      "name": "transferFrom",
      "outputs": [],
      "stateMutability": "nonpayable",
      "type": "function"
    },
    {
      "inputs": [
        {
          "internalType": "address",
          "name": "newOwner",
          "type": "address"
        }
      ],
      "name": "transferOwnership",
      "outputs": [],
      "stateMutability": "nonpayable",
      "type": "function"
    },
    {
      "inputs": [
        {
          "internalType": "address",
          "name": "newImplementation",
          "type": "address"
        }
      ],
      "name": "upgradeTo",
      "outputs": [],
      "stateMutability": "nonpayable",
      "type": "function"
    },
    {
      "inputs": [
        {
          "internalType": "address",
          "name": "newImplementation",
          "type": "address"
        },
        {
          "internalType": "bytes",
          "name": "data",
          "type": "bytes"
        }
      ],
      "name": "upgradeToAndCall",
      "outputs": [],
      "stateMutability": "payable",
      "type": "function"
    },
    {
      "inputs": [],
      "name": "initialize",
      "outputs": [],
      "stateMutability": "nonpayable",
      "type": "function"
    },
    {
      "inputs": [],
      "name": "pause",
      "outputs": [],
      "stateMutability": "nonpayable",
      "type": "function"
    },
    {
      "inputs": [],
      "name": "unpause",
      "outputs": [],
      "stateMutability": "nonpayable",
      "type": "function"
    },
    {
      "inputs": [
        {
          "internalType": "address",
          "name": "to",
          "type": "address"
        }
      ],
      "name": "safeMint",
      "outputs": [],
      "stateMutability": "nonpayable",
      "type": "function"
    },
    {
      "inputs": [
        {
          "internalType": "uint256",
          "name": "tokenId",
          "type": "uint256"
        }
      ],
      "name": "tokenURI",
      "outputs": [
        {
          "internalType": "string",
          "name": "",
          "type": "string"
        }
      ],
      "stateMutability": "view",
      "type": "function"
    }
  ],
  "bytecode": "0x60a06040523073ffffffffffffffffffffffffffffffffffffffff1660809073ffffffffffffffffffffffffffffffffffffffff1660601b81525034801561004657600080fd5b5060805160601c61519161007a600039600081816108c60152818161095501528181610c150152610ca401526151916000f3fe60806040526004361061014b5760003560e01c80636352211e116100b657806395d89b411161006f57806395d89b4114610433578063a22cb4651461045e578063b88d4fde14610487578063c87b56dd146104b0578063e985e9c5146104ed578063f2fde38b1461052a5761014b565b80636352211e1461034957806370a0823114610386578063715018a6146103c35780638129fc1c146103da5780638456cb59146103f15780638da5cb5b146104085761014b565b80633f4ba83a116101085780633f4ba83a1461027057806340d097c31461028757806342842e0e146102b057806342966c68146102d95780634f1ef286146103025780635c975abb1461031e5761014b565b806301ffc9a71461015057806306fdde031461018d578063081812fc146101b8578063095ea7b3146101f557806323b872dd1461021e5780633659cfe614610247575b600080fd5b34801561015c57600080fd5b5061017760048036038101906101729190613cb3565b610553565b604051610184919061425f565b60405180910390f35b34801561019957600080fd5b506101a2610635565b6040516101af919061427a565b60405180910390f35b3480156101c457600080fd5b506101df60048036038101906101da9190613d05565b6106c7565b6040516101ec91906141f8565b60405180910390f35b34801561020157600080fd5b5061021c60048036038101906102179190613c77565b61074c565b005b34801561022a57600080fd5b5061024560048036038101906102409190613b1d565b610864565b005b34801561025357600080fd5b5061026e60048036038101906102699190613ab8565b6108c4565b005b34801561027c57600080fd5b50610285610a73565b005b34801561029357600080fd5b506102ae60048036038101906102a99190613ab8565b610af9565b005b3480156102bc57600080fd5b506102d760048036038101906102d29190613b1d565b610b97565b005b3480156102e557600080fd5b5061030060048036038101906102fb9190613d05565b610bb7565b005b61031c60048036038101906103179190613c23565b610c13565b005b34801561032a57600080fd5b50610333610d50565b604051610340919061425f565b60405180910390f35b34801561035557600080fd5b50610370600480360381019061036b9190613d05565b610d67565b60405161037d91906141f8565b60405180910390f35b34801561039257600080fd5b506103ad60048036038101906103a89190613ab8565b610e19565b6040516103ba91906145dc565b60405180910390f35b3480156103cf57600080fd5b506103d8610ed1565b005b3480156103e657600080fd5b506103ef610f59565b005b3480156103fd57600080fd5b506104066110ce565b005b34801561041457600080fd5b5061041d611154565b60405161042a91906141f8565b60405180910390f35b34801561043f57600080fd5b5061044861117e565b604051610455919061427a565b60405180910390f35b34801561046a57600080fd5b5061048560048036038101906104809190613be7565b611210565b005b34801561049357600080fd5b506104ae60048036038101906104a99190613b6c565b611391565b005b3480156104bc57600080fd5b506104d760048036038101906104d29190613d05565b6113f3565b6040516104e4919061427a565b60405180910390f35b3480156104f957600080fd5b50610514600480360381019061050f9190613ae1565b611405565b604051610521919061425f565b60405180910390f35b34801561053657600080fd5b50610551600480360381019061054c9190613ab8565b611499565b005b60007f80ac58cd000000000000000000000000000000000000000000000000000000007bffffffffffffffffffffffffffffffffffffffffffffffffffffffff1916827bffffffffffffffffffffffffffffffffffffffffffffffffffffffff1916148061061e57507f5b5e139f000000000000000000000000000000000000000000000000000000007bffffffffffffffffffffffffffffffffffffffffffffffffffffffff1916827bffffffffffffffffffffffffffffffffffffffffffffffffffffffff1916145b8061062e575061062d82611591565b5b9050919050565b6060606580546106449061480c565b80601f01602080910402602001604051908101604052809291908181526020018280546106709061480c565b80156106bd5780601f10610692576101008083540402835291602001916106bd565b820191906000526020600020905b8154815290600101906020018083116106a057829003601f168201915b5050505050905090565b60006106d2826115fb565b610711576040517f08c379a0000000000000000000000000000000000000000000000000000000008152600401610708906144bc565b60405180910390fd5b6069600083815260200190815260200160002060009054906101000a900473ffffffffffffffffffffffffffffffffffffffff169050919050565b600061075782610d67565b90508073ffffffffffffffffffffffffffffffffffffffff168373ffffffffffffffffffffffffffffffffffffffff1614156107c8576040517f08c379a00000000000000000000000000000000000000000000000000000000081526004016107bf9061455c565b60405180910390fd5b8073ffffffffffffffffffffffffffffffffffffffff166107e7611667565b73ffffffffffffffffffffffffffffffffffffffff161480610816575061081581610810611667565b611405565b5b610855576040517f08c379a000000000000000000000000000000000000000000000000000000000815260040161084c906143fc565b60405180910390fd5b61085f838361166f565b505050565b61087561086f611667565b82611728565b6108b4576040517f08c379a00000000000000000000000000000000000000000000000000000000081526004016108ab9061459c565b60405180910390fd5b6108bf838383611806565b505050565b7f000000000000000000000000000000000000000000000000000000000000000073ffffffffffffffffffffffffffffffffffffffff163073ffffffffffffffffffffffffffffffffffffffff161415610953576040517f08c379a000000000000000000000000000000000000000000000000000000000815260040161094a9061433c565b60405180910390fd5b7f000000000000000000000000000000000000000000000000000000000000000073ffffffffffffffffffffffffffffffffffffffff16610992611a62565b73ffffffffffffffffffffffffffffffffffffffff16146109e8576040517f08c379a00000000000000000000000000000000000000000000000000000000081526004016109df9061439c565b60405180910390fd5b6109f181611ab9565b610a7081600067ffffffffffffffff811115610a36577f4e487b7100000000000000000000000000000000000000000000000000000000600052604160045260246000fd5b6040519080825280601f01601f191660200182016040528015610a685781602001600182028036833780820191505090505b506000611b38565b50565b610a7b611667565b73ffffffffffffffffffffffffffffffffffffffff16610a99611154565b73ffffffffffffffffffffffffffffffffffffffff1614610aef576040517f08c379a0000000000000000000000000000000000000000000000000000000008152600401610ae6906144fc565b60405180910390fd5b610af7611d09565b565b610b01611667565b73ffffffffffffffffffffffffffffffffffffffff16610b1f611154565b73ffffffffffffffffffffffffffffffffffffffff1614610b75576040517f08c379a0000000000000000000000000000000000000000000000000000000008152600401610b6c906144fc565b60405180910390fd5b610b8981610b846101c3611dab565b611db9565b610b946101c3611dd7565b50565b610bb283838360405180602001604052806000815250611391565b505050565b610bc8610bc2611667565b82611728565b610c07576040517f08c379a0000000000000000000000000000000000000000000000000000000008152600401610bfe906145bc565b60405180910390fd5b610c1081611ded565b50565b7f000000000000000000000000000000000000000000000000000000000000000073ffffffffffffffffffffffffffffffffffffffff163073ffffffffffffffffffffffffffffffffffffffff161415610ca2576040517f08c379a0000000000000000000000000000000000000000000000000000000008152600401610c999061433c565b60405180910390fd5b7f000000000000000000000000000000000000000000000000000000000000000073ffffffffffffffffffffffffffffffffffffffff16610ce1611a62565b73ffffffffffffffffffffffffffffffffffffffff1614610d37576040517f08c379a0000000000000000000000000000000000000000000000000000000008152600401610d2e9061439c565b60405180910390fd5b610d4082611ab9565b610d4c82826001611b38565b5050565b600060c960009054906101000a900460ff16905090565b6000806067600084815260200190815260200160002060009054906101000a900473ffffffffffffffffffffffffffffffffffffffff169050600073ffffffffffffffffffffffffffffffffffffffff168173ffffffffffffffffffffffffffffffffffffffff161415610e10576040517f08c379a0000000000000000000000000000000000000000000000000000000008152600401610e079061443c565b60405180910390fd5b80915050919050565b60008073ffffffffffffffffffffffffffffffffffffffff168273ffffffffffffffffffffffffffffffffffffffff161415610e8a576040517f08c379a0000000000000000000000000000000000000000000000000000000008152600401610e819061441c565b60405180910390fd5b606860008373ffffffffffffffffffffffffffffffffffffffff1673ffffffffffffffffffffffffffffffffffffffff168152602001908152602001600020549050919050565b610ed9611667565b73ffffffffffffffffffffffffffffffffffffffff16610ef7611154565b73ffffffffffffffffffffffffffffffffffffffff1614610f4d576040517f08c379a0000000000000000000000000000000000000000000000000000000008152600401610f44906144fc565b60405180910390fd5b610f576000611df9565b565b600060019054906101000a900460ff1680610f7f575060008054906101000a900460ff16155b610fbe576040517f08c379a0000000000000000000000000000000000000000000000000000000008152600401610fb59061445c565b60405180910390fd5b60008060019054906101000a900460ff16159050801561100e576001600060016101000a81548160ff02191690831515021790555060016000806101000a81548160ff0219169083151502179055505b6110826040518060400160405280600481526020017f7a4e4654000000000000000000000000000000000000000000000000000000008152506040518060400160405280600481526020017f5a656e7300000000000000000000000000000000000000000000000000000000815250611ebf565b61108a611fb4565b6110926120a5565b61109a61218e565b6110a2612277565b6110aa612368565b80156110cb5760008060016101000a81548160ff0219169083151502179055505b50565b6110d6611667565b73ffffffffffffffffffffffffffffffffffffffff166110f4611154565b73ffffffffffffffffffffffffffffffffffffffff161461114a576040517f08c379a0000000000000000000000000000000000000000000000000000000008152600401611141906144fc565b60405180910390fd5b611152612451565b565b600060fb60009054906101000a900473ffffffffffffffffffffffffffffffffffffffff16905090565b60606066805461118d9061480c565b80601f01602080910402602001604051908101604052809291908181526020018280546111b99061480c565b80156112065780601f106111db57610100808354040283529160200191611206565b820191906000526020600020905b8154815290600101906020018083116111e957829003601f168201915b5050505050905090565b611218611667565b73ffffffffffffffffffffffffffffffffffffffff168273ffffffffffffffffffffffffffffffffffffffff161415611286576040517f08c379a000000000000000000000000000000000000000000000000000000000815260040161127d9061437c565b60405180910390fd5b80606a6000611293611667565b73ffffffffffffffffffffffffffffffffffffffff1673ffffffffffffffffffffffffffffffffffffffff16815260200190815260200160002060008473ffffffffffffffffffffffffffffffffffffffff1673ffffffffffffffffffffffffffffffffffffffff16815260200190815260200160002060006101000a81548160ff0219169083151502179055508173ffffffffffffffffffffffffffffffffffffffff16611340611667565b73ffffffffffffffffffffffffffffffffffffffff167f17307eab39ab6107e8899845ad3d59bd9653f200f220920489ca2b5937696c3183604051611385919061425f565b60405180910390a35050565b6113a261139c611667565b83611728565b6113e1576040517f08c379a00000000000000000000000000000000000000000000000000000000081526004016113d89061459c565b60405180910390fd5b6113ed848484846124f4565b50505050565b60606113fe82612550565b9050919050565b6000606a60008473ffffffffffffffffffffffffffffffffffffffff1673ffffffffffffffffffffffffffffffffffffffff16815260200190815260200160002060008373ffffffffffffffffffffffffffffffffffffffff1673ffffffffffffffffffffffffffffffffffffffff16815260200190815260200160002060009054906101000a900460ff16905092915050565b6114a1611667565b73ffffffffffffffffffffffffffffffffffffffff166114bf611154565b73ffffffffffffffffffffffffffffffffffffffff1614611515576040517f08c379a000000000000000000000000000000000000000000000000000000000815260040161150c906144fc565b60405180910390fd5b600073ffffffffffffffffffffffffffffffffffffffff168173ffffffffffffffffffffffffffffffffffffffff161415611585576040517f08c379a000000000000000000000000000000000000000000000000000000000815260040161157c906142fc565b60405180910390fd5b61158e81611df9565b50565b60007f01ffc9a7000000000000000000000000000000000000000000000000000000007bffffffffffffffffffffffffffffffffffffffffffffffffffffffff1916827bffffffffffffffffffffffffffffffffffffffffffffffffffffffff1916149050919050565b60008073ffffffffffffffffffffffffffffffffffffffff166067600084815260200190815260200160002060009054906101000a900473ffffffffffffffffffffffffffffffffffffffff1673ffffffffffffffffffffffffffffffffffffffff1614159050919050565b600033905090565b816069600083815260200190815260200160002060006101000a81548173ffffffffffffffffffffffffffffffffffffffff021916908373ffffffffffffffffffffffffffffffffffffffff160217905550808273ffffffffffffffffffffffffffffffffffffffff166116e283610d67565b73ffffffffffffffffffffffffffffffffffffffff167f8c5be1e5ebec7d5bd14f71427d1e84f3dd0314c0f7b2291e5b200ac8c7c3b92560405160405180910390a45050565b6000611733826115fb565b611772576040517f08c379a0000000000000000000000000000000000000000000000000000000008152600401611769906143bc565b60405180910390fd5b600061177d83610d67565b90508073ffffffffffffffffffffffffffffffffffffffff168473ffffffffffffffffffffffffffffffffffffffff1614806117ec57508373ffffffffffffffffffffffffffffffffffffffff166117d4846106c7565b73ffffffffffffffffffffffffffffffffffffffff16145b806117fd57506117fc8185611405565b5b91505092915050565b8273ffffffffffffffffffffffffffffffffffffffff1661182682610d67565b73ffffffffffffffffffffffffffffffffffffffff161461187c576040517f08c379a00000000000000000000000000000000000000000000000000000000081526004016118739061451c565b60405180910390fd5b600073ffffffffffffffffffffffffffffffffffffffff168273ffffffffffffffffffffffffffffffffffffffff1614156118ec576040517f08c379a00000000000000000000000000000000000000000000000000000000081526004016118e39061435c565b60405180910390fd5b6118f78383836126a2565b61190260008261166f565b6001606860008573ffffffffffffffffffffffffffffffffffffffff1673ffffffffffffffffffffffffffffffffffffffff16815260200190815260200160002060008282546119529190614722565b925050819055506001606860008473ffffffffffffffffffffffffffffffffffffffff1673ffffffffffffffffffffffffffffffffffffffff16815260200190815260200160002060008282546119a9919061469b565b92505081905550816067600083815260200190815260200160002060006101000a81548173ffffffffffffffffffffffffffffffffffffffff021916908373ffffffffffffffffffffffffffffffffffffffff160217905550808273ffffffffffffffffffffffffffffffffffffffff168473ffffffffffffffffffffffffffffffffffffffff167fddf252ad1be2c89b69c2b068fc378daa952ba7f163c4a11628f55a4df523b3ef60405160405180910390a4505050565b6000611a907f360894a13ba1a3210667c828492db98dca3e2076cc3735a920a3ca505d382bbc60001b6126fa565b60000160009054906101000a900473ffffffffffffffffffffffffffffffffffffffff16905090565b611ac1611667565b73ffffffffffffffffffffffffffffffffffffffff16611adf611154565b73ffffffffffffffffffffffffffffffffffffffff1614611b35576040517f08c379a0000000000000000000000000000000000000000000000000000000008152600401611b2c906144fc565b60405180910390fd5b50565b6000611b42611a62565b9050611b4d84612704565b600083511180611b5a5750815b15611b6b57611b6984846127bd565b505b6000611b997f4910fdfa16fed3260ed0e7147f7cc6da11a60208b5b9406d12a635614ffd914360001b6128a1565b90508060000160009054906101000a900460ff16611d025760018160000160006101000a81548160ff021916908315150217905550611c658583604051602401611be391906141f8565b6040516020818303038152906040527f3659cfe6000000000000000000000000000000000000000000000000000000007bffffffffffffffffffffffffffffffffffffffffffffffffffffffff19166020820180517bffffffffffffffffffffffffffffffffffffffffffffffffffffffff83818316178352505050506127bd565b5060008160000160006101000a81548160ff021916908315150217905550611c8b611a62565b73ffffffffffffffffffffffffffffffffffffffff168273ffffffffffffffffffffffffffffffffffffffff1614611cf8576040517f08c379a0000000000000000000000000000000000000000000000000000000008152600401611cef906142dc565b60405180910390fd5b611d01856128ab565b5b5050505050565b611d11610d50565b611d50576040517f08c379a0000000000000000000000000000000000000000000000000000000008152600401611d479061429c565b60405180910390fd5b600060c960006101000a81548160ff0219169083151502179055507f5db9ee0a495bf2e6ff9c91a7834c1ba4fdd244a5e8aa4e537bd38aeae4b073aa611d94611667565b604051611da191906141f8565b60405180910390a1565b600081600001549050919050565b611dd38282604051806020016040528060008152506128fa565b5050565b6001816000016000828254019250508190555050565b611df681612955565b50565b600060fb60009054906101000a900473ffffffffffffffffffffffffffffffffffffffff1690508160fb60006101000a81548173ffffffffffffffffffffffffffffffffffffffff021916908373ffffffffffffffffffffffffffffffffffffffff1602179055508173ffffffffffffffffffffffffffffffffffffffff168173ffffffffffffffffffffffffffffffffffffffff167f8be0079c531659141344cd1fd0a4f28419497f9722a3daafe3b4186f6b6457e060405160405180910390a35050565b600060019054906101000a900460ff1680611ee5575060008054906101000a900460ff16155b611f24576040517f08c379a0000000000000000000000000000000000000000000000000000000008152600401611f1b9061445c565b60405180910390fd5b60008060019054906101000a900460ff161590508015611f74576001600060016101000a81548160ff02191690831515021790555060016000806101000a81548160ff0219169083151502179055505b611f7c6129a8565b611f84612a81565b611f8e8383612b5a565b8015611faf5760008060016101000a81548160ff0219169083151502179055505b505050565b600060019054906101000a900460ff1680611fda575060008054906101000a900460ff16155b612019576040517f08c379a00000000000000000000000000000000000000000000000000000000081526004016120109061445c565b60405180910390fd5b60008060019054906101000a900460ff161590508015612069576001600060016101000a81548160ff02191690831515021790555060016000806101000a81548160ff0219169083151502179055505b6120716129a8565b612079612a81565b612081612c63565b80156120a25760008060016101000a81548160ff0219169083151502179055505b50565b600060019054906101000a900460ff16806120cb575060008054906101000a900460ff16155b61210a576040517f08c379a00000000000000000000000000000000000000000000000000000000081526004016121019061445c565b60405180910390fd5b60008060019054906101000a900460ff16159050801561215a576001600060016101000a81548160ff02191690831515021790555060016000806101000a81548160ff0219169083151502179055505b6121626129a8565b61216a612d3c565b801561218b5760008060016101000a81548160ff0219169083151502179055505b50565b600060019054906101000a900460ff16806121b4575060008054906101000a900460ff16155b6121f3576040517f08c379a00000000000000000000000000000000000000000000000000000000081526004016121ea9061445c565b60405180910390fd5b60008060019054906101000a900460ff161590508015612243576001600060016101000a81548160ff02191690831515021790555060016000806101000a81548160ff0219169083151502179055505b61224b6129a8565b612253612e30565b80156122745760008060016101000a81548160ff0219169083151502179055505b50565b600060019054906101000a900460ff168061229d575060008054906101000a900460ff16155b6122dc576040517f08c379a00000000000000000000000000000000000000000000000000000000081526004016122d39061445c565b60405180910390fd5b60008060019054906101000a900460ff16159050801561232c576001600060016101000a81548160ff02191690831515021790555060016000806101000a81548160ff0219169083151502179055505b6123346129a8565b61233c612a81565b612344612f19565b80156123655760008060016101000a81548160ff0219169083151502179055505b50565b600060019054906101000a900460ff168061238e575060008054906101000a900460ff16155b6123cd576040517f08c379a00000000000000000000000000000000000000000000000000000000081526004016123c49061445c565b60405180910390fd5b60008060019054906101000a900460ff16159050801561241d576001600060016101000a81548160ff02191690831515021790555060016000806101000a81548160ff0219169083151502179055505b612425612ff2565b61242d6130cb565b801561244e5760008060016101000a81548160ff0219169083151502179055505b50565b612459610d50565b15612499576040517f08c379a0000000000000000000000000000000000000000000000000000000008152600401612490906143dc565b60405180910390fd5b600160c960006101000a81548160ff0219169083151502179055507f62e78cea01bee320cd4e420270b5ea74000d11b0c9f74754ebdbfc544b05a2586124dd611667565b6040516124ea91906141f8565b60405180910390a1565b6124ff848484611806565b61250b848484846131a4565b61254a576040517f08c379a0000000000000000000000000000000000000000000000000000000008152600401612541906142bc565b60405180910390fd5b50505050565b606061255b826115fb565b61259a576040517f08c379a00000000000000000000000000000000000000000000000000000000081526004016125919061449c565b60405180910390fd5b60006097600084815260200190815260200160002080546125ba9061480c565b80601f01602080910402602001604051908101604052809291908181526020018280546125e69061480c565b80156126335780601f1061260857610100808354040283529160200191612633565b820191906000526020600020905b81548152906001019060200180831161261657829003601f168201915b50505050509050600061264461333b565b905060008151141561265a57819250505061269d565b60008251111561268f5780826040516020016126779291906141d4565b6040516020818303038152906040529250505061269d565b61269884613352565b925050505b919050565b6126aa610d50565b156126ea576040517f08c379a00000000000000000000000000000000000000000000000000000000081526004016126e1906143dc565b60405180910390fd5b6126f58383836133f9565b505050565b6000819050919050565b61270d816133fe565b61274c576040517f08c379a0000000000000000000000000000000000000000000000000000000008152600401612743906144dc565b60405180910390fd5b806127797f360894a13ba1a3210667c828492db98dca3e2076cc3735a920a3ca505d382bbc60001b6126fa565b60000160006101000a81548173ffffffffffffffffffffffffffffffffffffffff021916908373ffffffffffffffffffffffffffffffffffffffff16021790555050565b60606127c8836133fe565b612807576040517f08c379a00000000000000000000000000000000000000000000000000000000081526004016127fe9061457c565b60405180910390fd5b6000808473ffffffffffffffffffffffffffffffffffffffff168460405161282f91906141bd565b600060405180830381855af49150503d806000811461286a576040519150601f19603f3d011682016040523d82523d6000602084013e61286f565b606091505b5091509150612897828260405180606001604052806027815260200161513560279139613411565b9250505092915050565b6000819050919050565b6128b481612704565b8073ffffffffffffffffffffffffffffffffffffffff167fbc7cd75a20ee27fd9adebab32041f755214dbc6bffa90cc0225b39da2e5c2d3b60405160405180910390a250565b6129048383613478565b61291160008484846131a4565b612950576040517f08c379a0000000000000000000000000000000000000000000000000000000008152600401612947906142bc565b60405180910390fd5b505050565b61295e81613646565b600060976000838152602001908152602001600020805461297e9061480c565b9050146129a5576097600082815260200190815260200160002060006129a49190613904565b5b50565b600060019054906101000a900460ff16806129ce575060008054906101000a900460ff16155b612a0d576040517f08c379a0000000000000000000000000000000000000000000000000000000008152600401612a049061445c565b60405180910390fd5b60008060019054906101000a900460ff161590508015612a5d576001600060016101000a81548160ff02191690831515021790555060016000806101000a81548160ff0219169083151502179055505b8015612a7e5760008060016101000a81548160ff0219169083151502179055505b50565b600060019054906101000a900460ff1680612aa7575060008054906101000a900460ff16155b612ae6576040517f08c379a0000000000000000000000000000000000000000000000000000000008152600401612add9061445c565b60405180910390fd5b60008060019054906101000a900460ff161590508015612b36576001600060016101000a81548160ff02191690831515021790555060016000806101000a81548160ff0219169083151502179055505b8015612b575760008060016101000a81548160ff0219169083151502179055505b50565b600060019054906101000a900460ff1680612b80575060008054906101000a900460ff16155b612bbf576040517f08c379a0000000000000000000000000000000000000000000000000000000008152600401612bb69061445c565b60405180910390fd5b60008060019054906101000a900460ff161590508015612c0f576001600060016101000a81548160ff02191690831515021790555060016000806101000a81548160ff0219169083151502179055505b8260659080519060200190612c25929190613944565b508160669080519060200190612c3c929190613944565b508015612c5e5760008060016101000a81548160ff0219169083151502179055505b505050565b600060019054906101000a900460ff1680612c89575060008054906101000a900460ff16155b612cc8576040517f08c379a0000000000000000000000000000000000000000000000000000000008152600401612cbf9061445c565b60405180910390fd5b60008060019054906101000a900460ff161590508015612d18576001600060016101000a81548160ff02191690831515021790555060016000806101000a81548160ff0219169083151502179055505b8015612d395760008060016101000a81548160ff0219169083151502179055505b50565b600060019054906101000a900460ff1680612d62575060008054906101000a900460ff16155b612da1576040517f08c379a0000000000000000000000000000000000000000000000000000000008152600401612d989061445c565b60405180910390fd5b60008060019054906101000a900460ff161590508015612df1576001600060016101000a81548160ff02191690831515021790555060016000806101000a81548160ff0219169083151502179055505b600060c960006101000a81548160ff0219169083151502179055508015612e2d5760008060016101000a81548160ff0219169083151502179055505b50565b600060019054906101000a900460ff1680612e56575060008054906101000a900460ff16155b612e95576040517f08c379a0000000000000000000000000000000000000000000000000000000008152600401612e8c9061445c565b60405180910390fd5b60008060019054906101000a900460ff161590508015612ee5576001600060016101000a81548160ff02191690831515021790555060016000806101000a81548160ff0219169083151502179055505b612ef5612ef0611667565b611df9565b8015612f165760008060016101000a81548160ff0219169083151502179055505b50565b600060019054906101000a900460ff1680612f3f575060008054906101000a900460ff16155b612f7e576040517f08c379a0000000000000000000000000000000000000000000000000000000008152600401612f759061445c565b60405180910390fd5b60008060019054906101000a900460ff161590508015612fce576001600060016101000a81548160ff02191690831515021790555060016000806101000a81548160ff0219169083151502179055505b8015612fef5760008060016101000a81548160ff0219169083151502179055505b50565b600060019054906101000a900460ff1680613018575060008054906101000a900460ff16155b613057576040517f08c379a000000000000000000000000000000000000000000000000000000000815260040161304e9061445c565b60405180910390fd5b60008060019054906101000a900460ff1615905080156130a7576001600060016101000a81548160ff02191690831515021790555060016000806101000a81548160ff0219169083151502179055505b80156130c85760008060016101000a81548160ff0219169083151502179055505b50565b600060019054906101000a900460ff16806130f1575060008054906101000a900460ff16155b613130576040517f08c379a00000000000000000000000000000000000000000000000000000000081526004016131279061445c565b60405180910390fd5b60008060019054906101000a900460ff161590508015613180576001600060016101000a81548160ff02191690831515021790555060016000806101000a81548160ff0219169083151502179055505b80156131a15760008060016101000a81548160ff0219169083151502179055505b50565b60006131c58473ffffffffffffffffffffffffffffffffffffffff166133fe565b1561332e578373ffffffffffffffffffffffffffffffffffffffff1663150b7a026131ee611667565b8786866040518563ffffffff1660e01b81526004016132109493929190614213565b602060405180830381600087803b15801561322a57600080fd5b505af192505050801561325b57506040513d601f19601f820116820180604052508101906132589190613cdc565b60015b6132de573d806000811461328b576040519150601f19603f3d011682016040523d82523d6000602084013e613290565b606091505b506000815114156132d6576040517f08c379a00000000000000000000000000000000000000000000000000000000081526004016132cd906142bc565b60405180910390fd5b805181602001fd5b63150b7a0260e01b7bffffffffffffffffffffffffffffffffffffffffffffffffffffffff1916817bffffffffffffffffffffffffffffffffffffffffffffffffffffffff191614915050613333565b600190505b949350505050565b606060405180602001604052806000815250905090565b606061335d826115fb565b61339c576040517f08c379a00000000000000000000000000000000000000000000000000000000081526004016133939061453c565b60405180910390fd5b60006133a661333b565b905060008151116133c657604051806020016040528060008152506133f1565b806133d084613757565b6040516020016133e19291906141d4565b6040516020818303038152906040525b915050919050565b505050565b600080823b905060008111915050919050565b6060831561342157829050613471565b6000835111156134345782518084602001fd5b816040517f08c379a0000000000000000000000000000000000000000000000000000000008152600401613468919061427a565b60405180910390fd5b9392505050565b600073ffffffffffffffffffffffffffffffffffffffff168273ffffffffffffffffffffffffffffffffffffffff1614156134e8576040517f08c379a00000000000000000000000000000000000000000000000000000000081526004016134df9061447c565b60405180910390fd5b6134f1816115fb565b15613531576040517f08c379a00000000000000000000000000000000000000000000000000000000081526004016135289061431c565b60405180910390fd5b61353d600083836126a2565b6001606860008473ffffffffffffffffffffffffffffffffffffffff1673ffffffffffffffffffffffffffffffffffffffff168152602001908152602001600020600082825461358d919061469b565b92505081905550816067600083815260200190815260200160002060006101000a81548173ffffffffffffffffffffffffffffffffffffffff021916908373ffffffffffffffffffffffffffffffffffffffff160217905550808273ffffffffffffffffffffffffffffffffffffffff16600073ffffffffffffffffffffffffffffffffffffffff167fddf252ad1be2c89b69c2b068fc378daa952ba7f163c4a11628f55a4df523b3ef60405160405180910390a45050565b600061365182610d67565b905061365f816000846126a2565b61366a60008361166f565b6001606860008373ffffffffffffffffffffffffffffffffffffffff1673ffffffffffffffffffffffffffffffffffffffff16815260200190815260200160002060008282546136ba9190614722565b925050819055506067600083815260200190815260200160002060006101000a81549073ffffffffffffffffffffffffffffffffffffffff021916905581600073ffffffffffffffffffffffffffffffffffffffff168273ffffffffffffffffffffffffffffffffffffffff167fddf252ad1be2c89b69c2b068fc378daa952ba7f163c4a11628f55a4df523b3ef60405160405180910390a45050565b6060600082141561379f576040518060400160405280600181526020017f300000000000000000000000000000000000000000000000000000000000000081525090506138ff565b600082905060005b600082146137d15780806137ba9061486f565b915050600a826137ca91906146f1565b91506137a7565b60008167ffffffffffffffff811115613813577f4e487b7100000000000000000000000000000000000000000000000000000000600052604160045260246000fd5b6040519080825280601f01601f1916602001820160405280156138455781602001600182028036833780820191505090505b5090505b600085146138f85760018261385e9190614722565b9150600a8561386d91906148b8565b6030613879919061469b565b60f81b8183815181106138b5577f4e487b7100000000000000000000000000000000000000000000000000000000600052603260045260246000fd5b60200101907effffffffffffffffffffffffffffffffffffffffffffffffffffffffffffff1916908160001a905350600a856138f191906146f1565b9450613849565b8093505050505b919050565b5080546139109061480c565b6000825580601f106139225750613941565b601f01602090049060005260206000209081019061394091906139ca565b5b50565b8280546139509061480c565b90600052602060002090601f01602090048101928261397257600085556139b9565b82601f1061398b57805160ff19168380011785556139b9565b828001600101855582156139b9579182015b828111156139b857825182559160200191906001019061399d565b5b5090506139c691906139ca565b5090565b5b808211156139e35760008160009055506001016139cb565b5090565b60006139fa6139f58461461c565b6145f7565b905082815260208101848484011115613a1257600080fd5b613a1d8482856147ca565b509392505050565b600081359050613a34816150d8565b92915050565b600081359050613a49816150ef565b92915050565b600081359050613a5e81615106565b92915050565b600081519050613a7381615106565b92915050565b600082601f830112613a8a57600080fd5b8135613a9a8482602086016139e7565b91505092915050565b600081359050613ab28161511d565b92915050565b600060208284031215613aca57600080fd5b6000613ad884828501613a25565b91505092915050565b60008060408385031215613af457600080fd5b6000613b0285828601613a25565b9250506020613b1385828601613a25565b9150509250929050565b600080600060608486031215613b3257600080fd5b6000613b4086828701613a25565b9350506020613b5186828701613a25565b9250506040613b6286828701613aa3565b9150509250925092565b60008060008060808587031215613b8257600080fd5b6000613b9087828801613a25565b9450506020613ba187828801613a25565b9350506040613bb287828801613aa3565b925050606085013567ffffffffffffffff811115613bcf57600080fd5b613bdb87828801613a79565b91505092959194509250565b60008060408385031215613bfa57600080fd5b6000613c0885828601613a25565b9250506020613c1985828601613a3a565b9150509250929050565b60008060408385031215613c3657600080fd5b6000613c4485828601613a25565b925050602083013567ffffffffffffffff811115613c6157600080fd5b613c6d85828601613a79565b9150509250929050565b60008060408385031215613c8a57600080fd5b6000613c9885828601613a25565b9250506020613ca985828601613aa3565b9150509250929050565b600060208284031215613cc557600080fd5b6000613cd384828501613a4f565b91505092915050565b600060208284031215613cee57600080fd5b6000613cfc84828501613a64565b91505092915050565b600060208284031215613d1757600080fd5b6000613d2584828501613aa3565b91505092915050565b613d3781614756565b82525050565b613d4681614768565b82525050565b6000613d578261464d565b613d618185614663565b9350613d718185602086016147d9565b613d7a816149a5565b840191505092915050565b6000613d908261464d565b613d9a8185614674565b9350613daa8185602086016147d9565b80840191505092915050565b6000613dc182614658565b613dcb818561467f565b9350613ddb8185602086016147d9565b613de4816149a5565b840191505092915050565b6000613dfa82614658565b613e048185614690565b9350613e148185602086016147d9565b80840191505092915050565b6000613e2d60148361467f565b9150613e38826149b6565b602082019050919050565b6000613e5060328361467f565b9150613e5b826149df565b604082019050919050565b6000613e73602f8361467f565b9150613e7e82614a2e565b604082019050919050565b6000613e9660268361467f565b9150613ea182614a7d565b604082019050919050565b6000613eb9601c8361467f565b9150613ec482614acc565b602082019050919050565b6000613edc602c8361467f565b9150613ee782614af5565b604082019050919050565b6000613eff60248361467f565b9150613f0a82614b44565b604082019050919050565b6000613f2260198361467f565b9150613f2d82614b93565b602082019050919050565b6000613f45602c8361467f565b9150613f5082614bbc565b604082019050919050565b6000613f68602c8361467f565b9150613f7382614c0b565b604082019050919050565b6000613f8b60108361467f565b9150613f9682614c5a565b602082019050919050565b6000613fae60388361467f565b9150613fb982614c83565b604082019050919050565b6000613fd1602a8361467f565b9150613fdc82614cd2565b604082019050919050565b6000613ff460298361467f565b9150613fff82614d21565b604082019050919050565b6000614017602e8361467f565b915061402282614d70565b604082019050919050565b600061403a60208361467f565b915061404582614dbf565b602082019050919050565b600061405d60318361467f565b915061406882614de8565b604082019050919050565b6000614080602c8361467f565b915061408b82614e37565b604082019050919050565b60006140a3602d8361467f565b91506140ae82614e86565b604082019050919050565b60006140c660208361467f565b91506140d182614ed5565b602082019050919050565b60006140e960298361467f565b91506140f482614efe565b604082019050919050565b600061410c602f8361467f565b915061411782614f4d565b604082019050919050565b600061412f60218361467f565b915061413a82614f9c565b604082019050919050565b600061415260268361467f565b915061415d82614feb565b604082019050919050565b600061417560318361467f565b91506141808261503a565b604082019050919050565b600061419860308361467f565b91506141a382615089565b604082019050919050565b6141b7816147c0565b82525050565b60006141c98284613d85565b915081905092915050565b60006141e08285613def565b91506141ec8284613def565b91508190509392505050565b600060208201905061420d6000830184613d2e565b92915050565b60006080820190506142286000830187613d2e565b6142356020830186613d2e565b61424260408301856141ae565b81810360608301526142548184613d4c565b905095945050505050565b60006020820190506142746000830184613d3d565b92915050565b600060208201905081810360008301526142948184613db6565b905092915050565b600060208201905081810360008301526142b581613e20565b9050919050565b600060208201905081810360008301526142d581613e43565b9050919050565b600060208201905081810360008301526142f581613e66565b9050919050565b6000602082019050818103600083015261431581613e89565b9050919050565b6000602082019050818103600083015261433581613eac565b9050919050565b6000602082019050818103600083015261435581613ecf565b9050919050565b6000602082019050818103600083015261437581613ef2565b9050919050565b6000602082019050818103600083015261439581613f15565b9050919050565b600060208201905081810360008301526143b581613f38565b9050919050565b600060208201905081810360008301526143d581613f5b565b9050919050565b600060208201905081810360008301526143f581613f7e565b9050919050565b6000602082019050818103600083015261441581613fa1565b9050919050565b6000602082019050818103600083015261443581613fc4565b9050919050565b6000602082019050818103600083015261445581613fe7565b9050919050565b600060208201905081810360008301526144758161400a565b9050919050565b600060208201905081810360008301526144958161402d565b9050919050565b600060208201905081810360008301526144b581614050565b9050919050565b600060208201905081810360008301526144d581614073565b9050919050565b600060208201905081810360008301526144f581614096565b9050919050565b60006020820190508181036000830152614515816140b9565b9050919050565b60006020820190508181036000830152614535816140dc565b9050919050565b60006020820190508181036000830152614555816140ff565b9050919050565b6000602082019050818103600083015261457581614122565b9050919050565b6000602082019050818103600083015261459581614145565b9050919050565b600060208201905081810360008301526145b581614168565b9050919050565b600060208201905081810360008301526145d58161418b565b9050919050565b60006020820190506145f160008301846141ae565b92915050565b6000614601614612565b905061460d828261483e565b919050565b6000604051905090565b600067ffffffffffffffff82111561463757614636614976565b5b614640826149a5565b9050602081019050919050565b600081519050919050565b600081519050919050565b600082825260208201905092915050565b600081905092915050565b600082825260208201905092915050565b600081905092915050565b60006146a6826147c0565b91506146b1836147c0565b9250827fffffffffffffffffffffffffffffffffffffffffffffffffffffffffffffffff038211156146e6576146e56148e9565b5b828201905092915050565b60006146fc826147c0565b9150614707836147c0565b92508261471757614716614918565b5b828204905092915050565b600061472d826147c0565b9150614738836147c0565b92508282101561474b5761474a6148e9565b5b828203905092915050565b6000614761826147a0565b9050919050565b60008115159050919050565b60007fffffffff0000000000000000000000000000000000000000000000000000000082169050919050565b600073ffffffffffffffffffffffffffffffffffffffff82169050919050565b6000819050919050565b82818337600083830152505050565b60005b838110156147f75780820151818401526020810190506147dc565b83811115614806576000848401525b50505050565b6000600282049050600182168061482457607f821691505b6020821081141561483857614837614947565b5b50919050565b614847826149a5565b810181811067ffffffffffffffff8211171561486657614865614976565b5b80604052505050565b600061487a826147c0565b91507fffffffffffffffffffffffffffffffffffffffffffffffffffffffffffffffff8214156148ad576148ac6148e9565b5b600182019050919050565b60006148c3826147c0565b91506148ce836147c0565b9250826148de576148dd614918565b5b828206905092915050565b7f4e487b7100000000000000000000000000000000000000000000000000000000600052601160045260246000fd5b7f4e487b7100000000000000000000000000000000000000000000000000000000600052601260045260246000fd5b7f4e487b7100000000000000000000000000000000000000000000000000000000600052602260045260246000fd5b7f4e487b7100000000000000000000000000000000000000000000000000000000600052604160045260246000fd5b6000601f19601f8301169050919050565b7f5061757361626c653a206e6f7420706175736564000000000000000000000000600082015250565b7f4552433732313a207472616e7366657220746f206e6f6e20455243373231526560008201527f63656976657220696d706c656d656e7465720000000000000000000000000000602082015250565b7f45524331393637557067726164653a207570677261646520627265616b73206660008201527f7572746865722075706772616465730000000000000000000000000000000000602082015250565b7f4f776e61626c653a206e6577206f776e657220697320746865207a65726f206160008201527f6464726573730000000000000000000000000000000000000000000000000000602082015250565b7f4552433732313a20746f6b656e20616c7265616479206d696e74656400000000600082015250565b7f46756e6374696f6e206d7573742062652063616c6c6564207468726f7567682060008201527f64656c656761746563616c6c0000000000000000000000000000000000000000602082015250565b7f4552433732313a207472616e7366657220746f20746865207a65726f2061646460008201527f7265737300000000000000000000000000000000000000000000000000000000602082015250565b7f4552433732313a20617070726f766520746f2063616c6c657200000000000000600082015250565b7f46756e6374696f6e206d7573742062652063616c6c6564207468726f7567682060008201527f6163746976652070726f78790000000000000000000000000000000000000000602082015250565b7f4552433732313a206f70657261746f7220717565727920666f72206e6f6e657860008201527f697374656e7420746f6b656e0000000000000000000000000000000000000000602082015250565b7f5061757361626c653a2070617573656400000000000000000000000000000000600082015250565b7f4552433732313a20617070726f76652063616c6c6572206973206e6f74206f7760008201527f6e6572206e6f7220617070726f76656420666f7220616c6c0000000000000000602082015250565b7f4552433732313a2062616c616e636520717565727920666f7220746865207a6560008201527f726f206164647265737300000000000000000000000000000000000000000000602082015250565b7f4552433732313a206f776e657220717565727920666f72206e6f6e657869737460008201527f656e7420746f6b656e0000000000000000000000000000000000000000000000602082015250565b7f496e697469616c697a61626c653a20636f6e747261637420697320616c72656160008201527f647920696e697469616c697a6564000000000000000000000000000000000000602082015250565b7f4552433732313a206d696e7420746f20746865207a65726f2061646472657373600082015250565b7f45524337323155524953746f726167653a2055524920717565727920666f722060008201527f6e6f6e6578697374656e7420746f6b656e000000000000000000000000000000602082015250565b7f4552433732313a20617070726f76656420717565727920666f72206e6f6e657860008201527f697374656e7420746f6b656e0000000000000000000000000000000000000000602082015250565b7f455243313936373a206e657720696d706c656d656e746174696f6e206973206e60008201527f6f74206120636f6e747261637400000000000000000000000000000000000000602082015250565b7f4f776e61626c653a2063616c6c6572206973206e6f7420746865206f776e6572600082015250565b7f4552433732313a207472616e73666572206f6620746f6b656e2074686174206960008201527f73206e6f74206f776e0000000000000000000000000000000000000000000000602082015250565b7f4552433732314d657461646174613a2055524920717565727920666f72206e6f60008201527f6e6578697374656e7420746f6b656e0000000000000000000000000000000000602082015250565b7f4552433732313a20617070726f76616c20746f2063757272656e74206f776e6560008201527f7200000000000000000000000000000000000000000000000000000000000000602082015250565b7f416464726573733a2064656c65676174652063616c6c20746f206e6f6e2d636f60008201527f6e74726163740000000000000000000000000000000000000000000000000000602082015250565b7f4552433732313a207472616e736665722063616c6c6572206973206e6f74206f60008201527f776e6572206e6f7220617070726f766564000000000000000000000000000000602082015250565b7f4552433732314275726e61626c653a2063616c6c6572206973206e6f74206f7760008201527f6e6572206e6f7220617070726f76656400000000000000000000000000000000602082015250565b6150e181614756565b81146150ec57600080fd5b50565b6150f881614768565b811461510357600080fd5b50565b61510f81614774565b811461511a57600080fd5b50565b615126816147c0565b811461513157600080fd5b5056fe416464726573733a206c6f772d6c6576656c2064656c65676174652063616c6c206661696c6564a264697066735822122097142893bbfed35f823ab5639c2829fbbfeb7ea741ec8b22c7954c8bea69618464736f6c63430008020033",
  "immutableReferences": {
    "612": [
      {
        "length": 32,
        "start": 2246
      },
      {
        "length": 32,
        "start": 2389
      },
      {
        "length": 32,
        "start": 3093
      },
      {
        "length": 32,
        "start": 3236
      }
    ]
  },
  "source": "// SPDX-License-Identifier: MIT\r\npragma solidity ^0.8.2;\r\n\r\nimport \"@openzeppelin/contracts-upgradeable/token/ERC721/ERC721Upgradeable.sol\";\r\nimport \"@openzeppelin/contracts-upgradeable/token/ERC721/extensions/ERC721URIStorageUpgradeable.sol\";\r\nimport \"@openzeppelin/contracts-upgradeable/security/PausableUpgradeable.sol\";\r\nimport \"@openzeppelin/contracts-upgradeable/access/OwnableUpgradeable.sol\";\r\nimport \"@openzeppelin/contracts-upgradeable/token/ERC721/extensions/ERC721BurnableUpgradeable.sol\";\r\nimport \"@openzeppelin/contracts-upgradeable/proxy/utils/Initializable.sol\";\r\nimport \"@openzeppelin/contracts-upgradeable/proxy/utils/UUPSUpgradeable.sol\";\r\nimport \"@openzeppelin/contracts-upgradeable/utils/CountersUpgradeable.sol\";\r\n\r\n//ZeNFT implementation for ERC721's\r\ncontract ZNFT is Initializable, ERC721Upgradeable, ERC721URIStorageUpgradeable, PausableUpgradeable, OwnableUpgradeable, ERC721BurnableUpgradeable, UUPSUpgradeable {\r\n    using CountersUpgradeable for CountersUpgradeable.Counter;\r\n\r\n    CountersUpgradeable.Counter private _tokenIdCounter;\r\n\r\n    function initialize() initializer public {\r\n        __ERC721_init(\"zNFT\", \"Zens\");\r\n        __ERC721URIStorage_init();\r\n        __Pausable_init();\r\n        __Ownable_init();\r\n        __ERC721Burnable_init();\r\n        __UUPSUpgradeable_init();\r\n    }\r\n\r\n    function pause() public onlyOwner {\r\n        _pause();\r\n    }\r\n\r\n    function unpause() public onlyOwner {\r\n        _unpause();\r\n    }\r\n\r\n    function safeMint(address to) public onlyOwner {\r\n        _safeMint(to, _tokenIdCounter.current());\r\n        _tokenIdCounter.increment();\r\n    }\r\n\r\n    function _beforeTokenTransfer(address from, address to, uint256 tokenId) internal whenNotPaused override{\r\n        super._beforeTokenTransfer(from, to, tokenId);\r\n    }\r\n//Only the owner can call this function in which you pass in the contract address of the newly deployed contract\r\n//called the new Implementation\r\n    function _authorizeUpgrade(address newImplementation)internal onlyOwner override{\r\n        }\r\n    // The following functions are overrides required by Solidity.\r\n    function _burn(uint256 tokenId) internal override(ERC721Upgradeable, ERC721URIStorageUpgradeable){\r\n        super._burn(tokenId);\r\n    }\r\n\r\n    function tokenURI(uint256 tokenId)public view override(ERC721Upgradeable, ERC721URIStorageUpgradeable) returns (string memory){\r\n        return super.tokenURI(tokenId);\r\n    }\r\n}\r\n",
  "sourcePath": "/home/elfindis/Documents/Github/ZeNFT-Minter/contracts/zNFT.sol",
  "compiler": {
    "name": "solc",
    "version": "0.8.2+commit.661d1103.Emscripten.clang"
  },
  "schemaVersion": "3.4.3",
  "updatedAt": "2021-11-11T16:55:54.503Z",
  "devdoc": {
    "kind": "dev",
    "methods": {
      "approve(address,uint256)": {
        "details": "See {IERC721-approve}."
      },
      "balanceOf(address)": {
        "details": "See {IERC721-balanceOf}."
      },
      "burn(uint256)": {
        "details": "Burns `tokenId`. See {ERC721-_burn}. Requirements: - The caller must own `tokenId` or be an approved operator."
      },
      "getApproved(uint256)": {
        "details": "See {IERC721-getApproved}."
      },
      "isApprovedForAll(address,address)": {
        "details": "See {IERC721-isApprovedForAll}."
      },
      "name()": {
        "details": "See {IERC721Metadata-name}."
      },
      "owner()": {
        "details": "Returns the address of the current owner."
      },
      "ownerOf(uint256)": {
        "details": "See {IERC721-ownerOf}."
      },
      "paused()": {
        "details": "Returns true if the contract is paused, and false otherwise."
      },
      "renounceOwnership()": {
        "details": "Leaves the contract without owner. It will not be possible to call `onlyOwner` functions anymore. Can only be called by the current owner. NOTE: Renouncing ownership will leave the contract without an owner, thereby removing any functionality that is only available to the owner."
      },
      "safeTransferFrom(address,address,uint256)": {
        "details": "See {IERC721-safeTransferFrom}."
      },
      "safeTransferFrom(address,address,uint256,bytes)": {
        "details": "See {IERC721-safeTransferFrom}."
      },
      "setApprovalForAll(address,bool)": {
        "details": "See {IERC721-setApprovalForAll}."
      },
      "supportsInterface(bytes4)": {
        "details": "See {IERC165-supportsInterface}."
      },
      "symbol()": {
        "details": "See {IERC721Metadata-symbol}."
      },
      "transferFrom(address,address,uint256)": {
        "details": "See {IERC721-transferFrom}."
      },
      "transferOwnership(address)": {
        "details": "Transfers ownership of the contract to a new account (`newOwner`). Can only be called by the current owner."
      },
      "upgradeTo(address)": {
        "details": "Upgrade the implementation of the proxy to `newImplementation`. Calls {_authorizeUpgrade}. Emits an {Upgraded} event."
      },
      "upgradeToAndCall(address,bytes)": {
        "details": "Upgrade the implementation of the proxy to `newImplementation`, and subsequently execute the function call encoded in `data`. Calls {_authorizeUpgrade}. Emits an {Upgraded} event."
      }
    },
    "version": 1
  },
  "userdoc": {
    "kind": "user",
    "methods": {},
    "version": 1
  }
}